{
  "contractName": "BurnableToken",
  "abi": [
    {
      "constant": true,
      "inputs": [],
      "name": "totalSupply",
      "outputs": [
        {
          "name": "",
          "type": "uint256"
        }
      ],
      "payable": false,
      "stateMutability": "view",
      "type": "function"
    },
    {
      "constant": true,
      "inputs": [
        {
          "name": "_owner",
          "type": "address"
        }
      ],
      "name": "balanceOf",
      "outputs": [
        {
          "name": "",
          "type": "uint256"
        }
      ],
      "payable": false,
      "stateMutability": "view",
      "type": "function"
    },
    {
      "constant": false,
      "inputs": [
        {
          "name": "_to",
          "type": "address"
        },
        {
          "name": "_value",
          "type": "uint256"
        }
      ],
      "name": "transfer",
      "outputs": [
        {
          "name": "",
          "type": "bool"
        }
      ],
      "payable": false,
      "stateMutability": "nonpayable",
      "type": "function"
    },
    {
      "anonymous": false,
      "inputs": [
        {
          "indexed": true,
          "name": "burner",
          "type": "address"
        },
        {
          "indexed": false,
          "name": "value",
          "type": "uint256"
        }
      ],
      "name": "Burn",
      "type": "event"
    },
    {
      "anonymous": false,
      "inputs": [
        {
          "indexed": true,
          "name": "from",
          "type": "address"
        },
        {
          "indexed": true,
          "name": "to",
          "type": "address"
        },
        {
          "indexed": false,
          "name": "value",
          "type": "uint256"
        }
      ],
      "name": "Transfer",
      "type": "event"
    },
    {
      "constant": false,
      "inputs": [
        {
          "name": "_value",
          "type": "uint256"
        }
      ],
      "name": "burn",
      "outputs": [],
      "payable": false,
      "stateMutability": "nonpayable",
      "type": "function"
    }
  ],
  "bytecode": "0x608060405234801561001057600080fd5b50610773806100206000396000f3fe608060405260043610610062576000357c0100000000000000000000000000000000000000000000000000000000900463ffffffff16806318160ddd1461006757806342966c681461009257806370a08231146100cd578063a9059cbb14610132575b600080fd5b34801561007357600080fd5b5061007c6101a5565b6040518082815260200191505060405180910390f35b34801561009e57600080fd5b506100cb600480360360208110156100b557600080fd5b81019080803590602001909291905050506101af565b005b3480156100d957600080fd5b5061011c600480360360208110156100f057600080fd5b81019080803573ffffffffffffffffffffffffffffffffffffffff1690602001909291905050506101bc565b6040518082815260200191505060405180910390f35b34801561013e57600080fd5b5061018b6004803603604081101561015557600080fd5b81019080803573ffffffffffffffffffffffffffffffffffffffff16906020019092919080359060200190929190505050610204565b604051808215151515815260200191505060405180910390f35b6000600154905090565b6101b933826104f6565b50565b60008060008373ffffffffffffffffffffffffffffffffffffffff1673ffffffffffffffffffffffffffffffffffffffff168152602001908152602001600020549050919050565b60008060003373ffffffffffffffffffffffffffffffffffffffff1673ffffffffffffffffffffffffffffffffffffffff1681526020019081526020016000205482111515156102bc576040517f08c379a00000000000000000000000000000000000000000000000000000000081526004018080602001828103825260148152602001807f496e73756666696369656e742042616c616e636500000000000000000000000081525060200191505060405180910390fd5b600073ffffffffffffffffffffffffffffffffffffffff168373ffffffffffffffffffffffffffffffffffffffff1614151515610361576040517f08c379a000000000000000000000000000000000000000000000000000000000815260040180806020018281038252600f8152602001807f496e76616c69642041646472657373000000000000000000000000000000000081525060200191505060405180910390fd5b6103b2826000803373ffffffffffffffffffffffffffffffffffffffff1673ffffffffffffffffffffffffffffffffffffffff1681526020019081526020016000205461071290919063ffffffff16565b6000803373ffffffffffffffffffffffffffffffffffffffff1673ffffffffffffffffffffffffffffffffffffffff16815260200190815260200160002081905550610445826000808673ffffffffffffffffffffffffffffffffffffffff1673ffffffffffffffffffffffffffffffffffffffff1681526020019081526020016000205461072b90919063ffffffff16565b6000808573ffffffffffffffffffffffffffffffffffffffff1673ffffffffffffffffffffffffffffffffffffffff168152602001908152602001600020819055508273ffffffffffffffffffffffffffffffffffffffff163373ffffffffffffffffffffffffffffffffffffffff167fddf252ad1be2c89b69c2b068fc378daa952ba7f163c4a11628f55a4df523b3ef846040518082815260200191505060405180910390a36001905092915050565b6000808373ffffffffffffffffffffffffffffffffffffffff1673ffffffffffffffffffffffffffffffffffffffff1681526020019081526020016000205481111515156105ac576040517f08c379a00000000000000000000000000000000000000000000000000000000081526004018080602001828103825260148152602001807f496e73756666696369656e742042616c616e636500000000000000000000000081525060200191505060405180910390fd5b6105fd816000808573ffffffffffffffffffffffffffffffffffffffff1673ffffffffffffffffffffffffffffffffffffffff1681526020019081526020016000205461071290919063ffffffff16565b6000808473ffffffffffffffffffffffffffffffffffffffff1673ffffffffffffffffffffffffffffffffffffffff168152602001908152602001600020819055506106548160015461071290919063ffffffff16565b6001819055508173ffffffffffffffffffffffffffffffffffffffff167fcc16f5dbb4873280815c1ee09dbd06736cffcc184412cf7a71a0fdb75d397ca5826040518082815260200191505060405180910390a2600073ffffffffffffffffffffffffffffffffffffffff168273ffffffffffffffffffffffffffffffffffffffff167fddf252ad1be2c89b69c2b068fc378daa952ba7f163c4a11628f55a4df523b3ef836040518082815260200191505060405180910390a35050565b600082821115151561072057fe5b818303905092915050565b6000818301905082811015151561073e57fe5b8090509291505056fea165627a7a7230582090786e76dd3dd747cfc3a151d91492ce14f0a4572dac54d4aef4d319d33cdf3a0029",
  "source": "pragma solidity ^0.5.0;\n\n\nimport \"./SafeMath.sol\";\n\ncontract ERC20Basic {\n  function totalSupply() public view returns (uint256);\n  function balanceOf(address _who) public view returns (uint256);\n  function transfer(address _to, uint256 _value) public returns (bool);\n  event Transfer(address indexed from, address indexed to, uint256 value);\n}\n\ncontract BasicToken is ERC20Basic {\n  using SafeMath for uint256;\n\n  mapping(address => uint256) internal balances;\n\n  uint256 internal totalSupply_;\n\n  /**\n  * @dev Total number of tokens in existence\n  */\n  function totalSupply() public view returns (uint256) {\n    return totalSupply_;\n  }\n\n  /**\n  * @dev Transfer token for a specified address\n  * @param _to The address to transfer to.\n  * @param _value The amount to be transferred.\n  */\n  function transfer(address _to, uint256 _value) public returns (bool) {\n    require(_value <= balances[msg.sender],\"Insufficient Balance\");\n    require(_to != address(0),\"Invalid Address\");\n\n    balances[msg.sender] = balances[msg.sender].sub(_value);\n    balances[_to] = balances[_to].add(_value);\n    emit Transfer(msg.sender, _to, _value);\n    return true;\n  }\n\n  /**\n  * @dev Gets the balance of the specified address.\n  * @param _owner The address to query the the balance of.\n  * @return An uint256 representing the amount owned by the passed address.\n  */\n  function balanceOf(address _owner) public view returns (uint256) {\n    return balances[_owner];\n  }\n\n}\n\ncontract BurnableToken is BasicToken {\n\n  event Burn(address indexed burner, uint256 value);\n\n  /**\n   * @dev Burns a specific amount of tokens.\n   * @param _value The amount of token to be burned.\n   */\n  function burn(uint256 _value) public {\n    _burn(msg.sender, _value);\n  }\n\n  function _burn(address _who, uint256 _value) internal {\n    require(_value <= balances[_who],\"Insufficient Balance\");\n    // no need to require value <= totalSupply, since that would imply the\n    // sender's balance is greater than the totalSupply, which *should* be an assertion failure\n\n    balances[_who] = balances[_who].sub(_value);\n    totalSupply_ = totalSupply_.sub(_value);\n    emit Burn(_who, _value);\n    emit Transfer(_who, address(0), _value);\n  }\n}\n\ncontract ERC20 is ERC20Basic {\n  function allowance(address _owner, address _spender)\n    public view returns (uint256);\n\n  function transferFrom(address _from, address _to, uint256 _value)\n    public returns (bool);\n\n  function approve(address _spender, uint256 _value) public returns (bool);\n  event Approval(\n    address indexed owner,\n    address indexed spender,\n    uint256 value\n  );\n}\n\ncontract DetailedERC20 is ERC20 {\n  string public name;\n  string public symbol;\n  uint8 public decimals;\n\n  constructor(string memory _name, string memory _symbol, uint8 _decimals) public {\n    name = _name;\n    symbol = _symbol;\n    decimals = _decimals;\n  }\n}\n\ncontract Ownable {\n  address public owner;\n\n\n  event OwnershipRenounced(address indexed previousOwner);\n  event OwnershipTransferred(\n    address indexed previousOwner,\n    address indexed newOwner\n  );\n\n\n  /**\n   * @dev The Ownable constructor sets the original `owner` of the contract to the sender\n   * account.\n   */\n  constructor() public {\n    owner = msg.sender;\n  }\n\n  /**\n   * @dev Throws if called by any account other than the owner.\n   */\n  modifier onlyOwner() {\n    require(msg.sender == owner,\"Sender is not authorised\");\n    _;\n  }\n\n  /**\n   * @dev Allows the current owner to relinquish control of the contract.\n   * @notice Renouncing to ownership will leave the contract without an owner.\n   * It will not be possible to call the functions with the `onlyOwner`\n   * modifier anymore.\n   */\n  function renounceOwnership() public onlyOwner {\n    emit OwnershipRenounced(owner);\n    owner = address(0);\n  }\n\n  /**\n   * @dev Allows the current owner to transfer control of the contract to a newOwner.\n   * @param _newOwner The address to transfer ownership to.\n   */\n  function transferOwnership(address _newOwner) public onlyOwner {\n    _transferOwnership(_newOwner);\n  }\n\n  /**\n   * @dev Transfers control of the contract to a newOwner.\n   * @param _newOwner The address to transfer ownership to.\n   */\n  function _transferOwnership(address _newOwner) internal {\n    require(_newOwner != address(0),\"Address Should be valid\");\n    emit OwnershipTransferred(owner, _newOwner);\n    owner = _newOwner;\n  }\n}\n\n// library SafeMath {\n\n//   /**\n//   * @dev Multiplies two numbers, throws on overflow.\n//   */\n//   function mul(uint256 _a, uint256 _b) internal pure returns (uint256 c) {\n//     // Gas optimization: this is cheaper than asserting 'a' not being zero, but the\n//     // benefit is lost if 'b' is also tested.\n//     // See: https://github.com/OpenZeppelin/openzeppelin-solidity/pull/522\n//     if (_a == 0) {\n//       return 0;\n//     }\n\n//     c = _a * _b;\n//     assert(c / _a == _b);\n//     return c;\n//   }\n\n//   /**\n//   * @dev Integer division of two numbers, truncating the quotient.\n//   */\n//   function div(uint256 _a, uint256 _b) internal pure returns (uint256) {\n//     // assert(_b > 0); // Solidity automatically throws when dividing by 0\n//     // uint256 c = _a / _b;\n//     // assert(_a == _b * c + _a % _b); // There is no case in which this doesn't hold\n//     return _a / _b;\n//   }\n\n//   /**\n//   * @dev Subtracts two numbers, throws on overflow (i.e. if subtrahend is greater than minuend).\n//   */\n//   function sub(uint256 _a, uint256 _b) internal pure returns (uint256) {\n//     assert(_b <= _a);\n//     return _a - _b;\n//   }\n\n//   /**\n//   * @dev Adds two numbers, throws on overflow.\n//   */\n//   function add(uint256 _a, uint256 _b) internal pure returns (uint256 c) {\n//     c = _a + _b;\n//     assert(c >= _a);\n//     return c;\n//   }\n// }\n\ncontract StandardToken is ERC20, BasicToken {\n\n  mapping (address => mapping (address => uint256)) internal allowed;\n\n\n  /**\n   * @dev Transfer tokens from one address to another\n   * @param _from address The address which you want to send tokens from\n   * @param _to address The address which you want to transfer to\n   * @param _value uint256 the amount of tokens to be transferred\n   */\n  function transferFrom(\n    address _from,\n    address _to,\n    uint256 _value\n  )\n    public\n    returns (bool)\n  {\n    require(_value <= balances[_from],\"Insufficient Balance\");\n    require(_value <= allowed[_from][msg.sender],\"Unauthorized to transfer\");\n    require(_to != address(0),\"Should be a valid address\");\n\n    balances[_from] = balances[_from].sub(_value);\n    balances[_to] = balances[_to].add(_value);\n    allowed[_from][msg.sender] = allowed[_from][msg.sender].sub(_value);\n    emit Transfer(_from, _to, _value);\n    return true;\n  }\n\n  /**\n   * @dev Approve the passed address to spend the specified amount of tokens on behalf of msg.sender.\n   * Beware that changing an allowance with this method brings the risk that someone may use both the old\n   * and the new allowance by unfortunate transaction ordering. One possible solution to mitigate this\n   * race condition is to first reduce the spender's allowance to 0 and set the desired value afterwards:\n   * https://github.com/ethereum/EIPs/issues/20#issuecomment-263524729\n   * @param _spender The address which will spend the funds.\n   * @param _value The amount of tokens to be spent.\n   */\n  function approve(address _spender, uint256 _value) public returns (bool) {\n    allowed[msg.sender][_spender] = _value;\n    emit Approval(msg.sender, _spender, _value);\n    return true;\n  }\n\n  /**\n   * @dev Function to check the amount of tokens that an owner allowed to a spender.\n   * @param _owner address The address which owns the funds.\n   * @param _spender address The address which will spend the funds.\n   * @return A uint256 specifying the amount of tokens still available for the spender.\n   */\n  function allowance(\n    address _owner,\n    address _spender\n   )\n    public\n    view\n    returns (uint256)\n  {\n    return allowed[_owner][_spender];\n  }\n\n  /**\n   * @dev Increase the amount of tokens that an owner allowed to a spender.\n   * approve should be called when allowed[_spender] == 0. To increment\n   * allowed value is better to use this function to avoid 2 calls (and wait until\n   * the first transaction is mined)\n   * From MonolithDAO Token.sol\n   * @param _spender The address which will spend the funds.\n   * @param _addedValue The amount of tokens to increase the allowance by.\n   */\n  function increaseApproval(\n    address _spender,\n    uint256 _addedValue\n  )\n    public\n    returns (bool)\n  {\n    allowed[msg.sender][_spender] = (\n      allowed[msg.sender][_spender].add(_addedValue));\n    emit Approval(msg.sender, _spender, allowed[msg.sender][_spender]);\n    return true;\n  }\n\n  /**\n   * @dev Decrease the amount of tokens that an owner allowed to a spender.\n   * approve should be called when allowed[_spender] == 0. To decrement\n   * allowed value is better to use this function to avoid 2 calls (and wait until\n   * the first transaction is mined)\n   * From MonolithDAO Token.sol\n   * @param _spender The address which will spend the funds.\n   * @param _subtractedValue The amount of tokens to decrease the allowance by.\n   */\n  function decreaseApproval(\n    address _spender,\n    uint256 _subtractedValue\n  )\n    public\n    returns (bool)\n  {\n    uint256 oldValue = allowed[msg.sender][_spender];\n    if (_subtractedValue >= oldValue) {\n      allowed[msg.sender][_spender] = 0;\n    } else {\n      allowed[msg.sender][_spender] = oldValue.sub(_subtractedValue);\n    }\n    emit Approval(msg.sender, _spender, allowed[msg.sender][_spender]);\n    return true;\n  }\n\n}\n\ncontract MintableToken is StandardToken, Ownable {\n  event Mint(address indexed to, uint256 amount);\n  event MintFinished();\n\n  bool public mintingFinished = false;\n\n\n  modifier canMint() {\n    require(!mintingFinished,\"Minting is Finished\");\n    _;\n  }\n\n  /**\n   * @dev Function to mint tokens\n   * @param _to The address that will receive the minted tokens.\n   * @param _amount The amount of tokens to mint.\n   * @return A boolean that indicates if the operation was successful.\n   */\n  function mint(\n    address _to,\n    uint256 _amount\n  )\n    internal\n    canMint\n    returns (bool)\n  {\n    totalSupply_ = totalSupply_.add(_amount);\n    balances[_to] = balances[_to].add(_amount);\n    emit Mint(_to, _amount);\n    emit Transfer(address(0), _to, _amount);\n    return true;\n  }\n\n  /**\n   * @dev Function to stop minting new tokens.\n   * @return True if the operation was successful.\n   */\n  function finishMinting() public onlyOwner canMint returns (bool) {\n    mintingFinished = true;\n    emit MintFinished();\n    return true;\n  }\n}\n\ncontract CappedToken is MintableToken {\n\n  uint256 public cap;\n\n  constructor(uint256 _cap) public {\n    require(_cap > 0,\"Cap cannot be zero\");\n    cap = _cap;\n  }\n\n  /**\n   * @dev Function to mint tokens\n   * @param _to The address that will receive the minted tokens.\n   * @param _amount The amount of tokens to mint.\n   * @return A boolean that indicates if the operation was successful.\n   */\n  function mint(\n    address _to,\n    uint256 _amount\n  )\n    internal\n    returns (bool)\n  {\n    require(totalSupply_.add(_amount) <= cap,\"Amount minted should be within cap\");\n\n    return super.mint(_to, _amount);\n  }\n\n}\n\ncontract EraswapERC20 is DetailedERC20, BurnableToken, CappedToken {\n\n  /**\n  * @dev Constructor\n  */\n\n  constructor() DetailedERC20(\"Eraswap\", \"EST\", 18) public CappedToken(9100000000000000000000000000)  {\n    mint(msg.sender, 910000000000000000000000000);\n  }\n\n}\n\ncontract NRTManager is Ownable, EraswapERC20{\n\n  using SafeMath for uint256;\n\n  uint256 public LastNRTRelease;              // variable to store last release date\n  uint256 public MonthlyNRTAmount;            // variable to store Monthly NRT amount to be released\n  uint256 public AnnualNRTAmount;             // variable to store Annual NRT amount to be released\n  uint256 public MonthCount;                  // variable to store the count of months from the intial date\n  uint256 public luckPoolBal;                 // Luckpool Balance\n  uint256 public burnTokenBal;                // tokens to be burned\n\n  // different pool address\n  address public newTalentsAndPartnerships;\n  address public platformMaintenance;\n  address public marketingAndRNR;\n  address public kmPards;\n  address public contingencyFunds;\n  address public researchAndDevelopment;\n  address public buzzCafe;\n  address public timeSwappers;                 // which include powerToken , curators ,timeTraders , daySwappers\n  address public TimeAlly;                     //address of TimeAlly Contract\n\n  uint256 public newTalentsAndPartnershipsBal; // variable to store last NRT released to the address;\n  uint256 public platformMaintenanceBal;       // variable to store last NRT released to the address;\n  uint256 public marketingAndRNRBal;           // variable to store last NRT released to the address;\n  uint256 public kmPardsBal;                   // variable to store last NRT released to the address;\n  uint256 public contingencyFundsBal;          // variable to store last NRT released to the address;\n  uint256 public researchAndDevelopmentBal;    // variable to store last NRT released to the address;\n  uint256 public buzzCafeNRT;                  // variable to store last NRT released to the address;\n  uint256 public TimeAllyNRT;                   // variable to store last NRT released to the address;\n  uint256 public timeSwappersNRT;              // variable to store last NRT released to the address;\n\n\n    // Event to watch NRT distribution\n    // @param NRTReleased The amount of NRT released in the month\n    event NRTDistributed(uint256 NRTReleased);\n\n    /**\n    * Event to watch Transfer of NRT to different Pool\n    * @param pool - The pool name\n    * @param sendAddress - The address of pool\n    * @param value - The value of NRT released\n    **/\n    event NRTTransfer(string pool, address sendAddress, uint256 value);\n\n\n    // Event to watch Tokens Burned\n    // @param amount The amount burned\n    event TokensBurned(uint256 amount);\n\n\n\n    /**\n    * @dev Should burn tokens according to the total circulation\n    * @return true if success\n    */\n\n    function burnTokens() internal returns (bool){\n      if(burnTokenBal == 0){\n        return true;\n      }\n      else{\n        uint MaxAmount = ((totalSupply()).mul(2)).div(100);   // max amount permitted to burn in a month\n        if(MaxAmount >= burnTokenBal ){\n          burn(burnTokenBal);\n          burnTokenBal = 0;\n        }\n        else{\n          burnTokenBal = burnTokenBal.sub(MaxAmount);\n          burn(MaxAmount);\n        }\n        return true;\n      }\n    }\n\n    /**\n    * @dev To invoke monthly release\n    * @return true if success\n    */\n\n    function MonthlyNRTRelease() external returns (bool) {\n      require(now.sub(LastNRTRelease)> 2592000,\"NRT release happens once every month\");\n      uint256 NRTBal = MonthlyNRTAmount.add(luckPoolBal);        // Total NRT available.\n\n      // Calculating NRT to be released to each of the pools\n      newTalentsAndPartnershipsBal = (NRTBal.mul(5)).div(100);\n      platformMaintenanceBal = (NRTBal.mul(10)).div(100);\n      marketingAndRNRBal = (NRTBal.mul(10)).div(100);\n      kmPardsBal = (NRTBal.mul(10)).div(100);\n      contingencyFundsBal = (NRTBal.mul(10)).div(100);\n      researchAndDevelopmentBal = (NRTBal.mul(5)).div(100);\n      buzzCafeNRT = (NRTBal.mul(25)).div(1000);\n      TimeAllyNRT = (NRTBal.mul(15)).div(100);\n      timeSwappersNRT = (NRTBal.mul(325)).div(1000);\n\n      // sending tokens to respective wallets and emitting events\n      mint(newTalentsAndPartnerships,newTalentsAndPartnershipsBal);\n      emit NRTTransfer(\"newTalentsAndPartnerships\", newTalentsAndPartnerships, newTalentsAndPartnershipsBal);\n      mint(platformMaintenance,platformMaintenanceBal);\n      emit NRTTransfer(\"platformMaintenance\", platformMaintenance, platformMaintenanceBal);\n      mint(marketingAndRNR,marketingAndRNRBal);\n      emit NRTTransfer(\"marketingAndRNR\", marketingAndRNR, marketingAndRNRBal);\n      mint(kmPards,kmPardsBal);\n      emit NRTTransfer(\"kmPards\", kmPards, kmPardsBal);\n      mint(contingencyFunds,contingencyFundsBal);\n      emit NRTTransfer(\"contingencyFunds\", contingencyFunds, contingencyFundsBal);\n      mint(researchAndDevelopment,researchAndDevelopmentBal);\n      emit NRTTransfer(\"researchAndDevelopment\", researchAndDevelopment, researchAndDevelopmentBal);\n      mint(buzzCafe,buzzCafeNRT);\n      emit NRTTransfer(\"buzzCafe\", buzzCafe, buzzCafeNRT);\n      mint(TimeAlly,TimeAllyNRT);\n      emit NRTTransfer(\"stakingContract\", TimeAlly, TimeAllyNRT);\n      mint(timeSwappers,timeSwappersNRT);\n      emit NRTTransfer(\"timeSwappers\", timeSwappers, timeSwappersNRT);\n\n      // Reseting NRT\n      emit NRTDistributed(NRTBal);\n      luckPoolBal = 0;\n      LastNRTRelease = LastNRTRelease.add(30 days); // resetting release date again\n      burnTokens();                                 // burning burnTokenBal\n      emit TokensBurned(burnTokenBal);\n\n\n      if(MonthCount == 11){\n        MonthCount = 0;\n        AnnualNRTAmount = (AnnualNRTAmount.mul(9)).div(10);\n        MonthlyNRTAmount = MonthlyNRTAmount.div(12);\n      }\n      else{\n        MonthCount = MonthCount.add(1);\n      }\n      return true;\n    }\n\n\n  /**\n  * @dev Constructor\n  */\n\n  constructor() public{\n    LastNRTRelease = now;\n    AnnualNRTAmount = 819000000000000000000000000;\n    MonthlyNRTAmount = AnnualNRTAmount.div(uint256(12));\n    MonthCount = 0;\n  }\n\n}\n\ncontract PausableEraswap is NRTManager {\n\n  /**\n   * @dev Modifier to make a function callable only when the contract is not paused.\n   */\n  modifier whenNotPaused() {\n    require((now.sub(LastNRTRelease))< 2592000,\"NRT is currently paused\");\n    _;\n  }\n\n\n  function transfer(\n    address _to,\n    uint256 _value\n  )\n    public\n    whenNotPaused\n    returns (bool)\n  {\n    return super.transfer(_to, _value);\n  }\n\n  function transferFrom(\n    address _from,\n    address _to,\n    uint256 _value\n  )\n    public\n    whenNotPaused\n    returns (bool)\n  {\n    return super.transferFrom(_from, _to, _value);\n  }\n\n  function approve(\n    address _spender,\n    uint256 _value\n  )\n    public\n    whenNotPaused\n    returns (bool)\n  {\n    return super.approve(_spender, _value);\n  }\n\n  function increaseApproval(\n    address _spender,\n    uint _addedValue\n  )\n    public\n    whenNotPaused\n    returns (bool success)\n  {\n    return super.increaseApproval(_spender, _addedValue);\n  }\n\n  function decreaseApproval(\n    address _spender,\n    uint _subtractedValue\n  )\n    public\n    whenNotPaused\n    returns (bool success)\n  {\n    return super.decreaseApproval(_spender, _subtractedValue);\n  }\n}\n\ncontract EraswapToken is PausableEraswap {\n\n\n    /**\n    * Event to watch the addition of pool address\n    * @param pool - The pool name\n    * @param sendAddress - The address of pool\n    **/\n    event PoolAddressAdded(string pool, address sendAddress);\n\n    // Event to watch LuckPool Updation\n    // @param luckPoolBal The current luckPoolBal\n    event LuckPoolUpdated(uint256 luckPoolBal);\n\n    // Event to watch BurnTokenBal Updation\n    // @param burnTokenBal The current burnTokenBal\n    event BurnTokenBalUpdated(uint256 burnTokenBal);\n\n    /**\n    * @dev Throws if caller is not TimeAlly\n    */\n    modifier OnlyTimeAlly() {\n      require(msg.sender == TimeAlly,\"Only TimeAlly is authorised\");\n      _;\n    }\n\n\n    /**\n    * @dev To update pool addresses\n    * @param  pool - A List of pool addresses\n    * Updates if pool address is not already set and if given address is not zero\n    * @return true if success\n    */\n\n    function UpdateAddresses (address[9] calldata  pool) external onlyOwner  returns(bool){\n\n      if((pool[0] != address(0)) && (newTalentsAndPartnerships == address(0))){\n        newTalentsAndPartnerships = pool[0];\n        emit PoolAddressAdded( \"NewTalentsAndPartnerships\", newTalentsAndPartnerships);\n      }\n      if((pool[1] != address(0)) && (platformMaintenance == address(0))){\n        platformMaintenance = pool[1];\n        emit PoolAddressAdded( \"PlatformMaintenance\", platformMaintenance);\n      }\n      if((pool[2] != address(0)) && (marketingAndRNR == address(0))){\n        marketingAndRNR = pool[2];\n        emit PoolAddressAdded( \"MarketingAndRNR\", marketingAndRNR);\n      }\n      if((pool[3] != address(0)) && (kmPards == address(0))){\n        kmPards = pool[3];\n        emit PoolAddressAdded( \"KmPards\", kmPards);\n      }\n      if((pool[4] != address(0)) && (contingencyFunds == address(0))){\n        contingencyFunds = pool[4];\n        emit PoolAddressAdded( \"ContingencyFunds\", contingencyFunds);\n      }\n      if((pool[5] != address(0)) && (researchAndDevelopment == address(0))){\n        researchAndDevelopment = pool[5];\n        emit PoolAddressAdded( \"ResearchAndDevelopment\", researchAndDevelopment);\n      }\n      if((pool[6] != address(0)) && (buzzCafe == address(0))){\n        buzzCafe = pool[6];\n        emit PoolAddressAdded( \"BuzzCafe\", buzzCafe);\n      }\n      if((pool[7] != address(0)) && (timeSwappers == address(0))){\n        timeSwappers = pool[7];\n        emit PoolAddressAdded( \"TimeSwapper\", timeSwappers);\n      }\n      if((pool[8] != address(0)) && (TimeAlly == address(0))){\n        TimeAlly = pool[8];\n        emit PoolAddressAdded( \"TimeAlly\", TimeAlly);\n      }\n\n      return true;\n    }\n\n\n    /**\n    * @dev Function to update luckpool balance\n    * @param amount Amount to be updated\n    */\n    function UpdateLuckpool(uint256 amount) external OnlyTimeAlly  returns(bool){\n      require(transferFrom(msg.sender,address(this), amount),\"Amount should be successfully transfered\");\n      luckPoolBal = luckPoolBal.add(amount);\n      emit LuckPoolUpdated(luckPoolBal);\n      return true;\n    }\n\n    /**\n    * @dev Function to trigger to update  for burning of tokens\n    * @param amount Amount to be updated\n    */\n    function UpdateBurnBal(uint256 amount) external OnlyTimeAlly  returns(bool){\n      require(transferFrom(msg.sender,address(this), amount),\"Amount should be successfully transfered\");\n      burnTokenBal = burnTokenBal.add(amount);\n      emit BurnTokenBalUpdated(burnTokenBal);\n      return true;\n    }\n\n    /**\n    * @dev Function to trigger balance update of a list of users\n    * @param TokenTransferList - List of user addresses\n    * @param TokenTransferBalance - Amount of token to be sent\n    */\n    function UpdateBalance(address[100] calldata TokenTransferList, uint256[100] calldata TokenTransferBalance) external OnlyTimeAlly  returns(bool){\n        uint256 i = 0;\n        while( i < TokenTransferList.length) {\n        require(transferFrom(msg.sender, TokenTransferList[i], TokenTransferBalance[i]),\"Amount should be successfully transfered\");\n        i++;\n        }\n      return true;\n    }\n}\n",
  "sourcePath": "/home/osiz/Desktop/Truffle/contracts/EraswapToken.sol",
  "compiler": {
    "name": "solc",
    "version": "0.5.0+commit.1d4f565a.Emscripten.clang"
  },
  "schemaVersion": "3.0.6",
  "updatedAt": "2019-05-07T06:15:54.447Z",
  "devdoc": {
    "methods": {
      "balanceOf(address)": {
        "details": "Gets the balance of the specified address.",
        "params": {
          "_owner": "The address to query the the balance of."
        },
        "return": "An uint256 representing the amount owned by the passed address."
      },
      "burn(uint256)": {
        "details": "Burns a specific amount of tokens.",
        "params": {
          "_value": "The amount of token to be burned."
        }
      },
      "totalSupply()": {
        "details": "Total number of tokens in existence"
      },
      "transfer(address,uint256)": {
        "details": "Transfer token for a specified address",
        "params": {
          "_to": "The address to transfer to.",
          "_value": "The amount to be transferred."
        }
      }
    }
  },
  "userdoc": {
    "methods": {}
  }
}