{
  "contractName": "EraswapToken",
  "abi": [
    {
      "constant": true,
      "inputs": [],
      "name": "mintingFinished",
      "outputs": [
        {
          "name": "",
          "type": "bool"
        }
      ],
      "payable": false,
      "stateMutability": "view",
      "type": "function"
    },
    {
      "constant": true,
      "inputs": [],
      "name": "name",
      "outputs": [
        {
          "name": "",
          "type": "string"
        }
      ],
      "payable": false,
      "stateMutability": "view",
      "type": "function"
    },
    {
      "constant": false,
      "inputs": [
        {
          "name": "_spender",
          "type": "address"
        },
        {
          "name": "_value",
          "type": "uint256"
        }
      ],
      "name": "approve",
      "outputs": [
        {
          "name": "",
          "type": "bool"
        }
      ],
      "payable": false,
      "stateMutability": "nonpayable",
      "type": "function"
    },
    {
      "constant": true,
      "inputs": [],
      "name": "contingencyFunds",
      "outputs": [
        {
          "name": "",
          "type": "address"
        }
      ],
      "payable": false,
      "stateMutability": "view",
      "type": "function"
    },
    {
      "constant": true,
      "inputs": [],
      "name": "totalSupply",
      "outputs": [
        {
          "name": "",
          "type": "uint256"
        }
      ],
      "payable": false,
      "stateMutability": "view",
      "type": "function"
    },
    {
      "constant": false,
      "inputs": [
        {
          "name": "_from",
          "type": "address"
        },
        {
          "name": "_to",
          "type": "address"
        },
        {
          "name": "_value",
          "type": "uint256"
        }
      ],
      "name": "transferFrom",
      "outputs": [
        {
          "name": "",
          "type": "bool"
        }
      ],
      "payable": false,
      "stateMutability": "nonpayable",
      "type": "function"
    },
    {
      "constant": true,
      "inputs": [],
      "name": "newTalentsAndPartnerships",
      "outputs": [
        {
          "name": "",
          "type": "address"
        }
      ],
      "payable": false,
      "stateMutability": "view",
      "type": "function"
    },
    {
      "constant": true,
      "inputs": [],
      "name": "kmPardsBal",
      "outputs": [
        {
          "name": "",
          "type": "uint256"
        }
      ],
      "payable": false,
      "stateMutability": "view",
      "type": "function"
    },
    {
      "constant": true,
      "inputs": [],
      "name": "decimals",
      "outputs": [
        {
          "name": "",
          "type": "uint8"
        }
      ],
      "payable": false,
      "stateMutability": "view",
      "type": "function"
    },
    {
      "constant": true,
      "inputs": [],
      "name": "cap",
      "outputs": [
        {
          "name": "",
          "type": "uint256"
        }
      ],
      "payable": false,
      "stateMutability": "view",
      "type": "function"
    },
    {
      "constant": true,
      "inputs": [],
      "name": "TimeAlly",
      "outputs": [
        {
          "name": "",
          "type": "address"
        }
      ],
      "payable": false,
      "stateMutability": "view",
      "type": "function"
    },
    {
      "constant": true,
      "inputs": [],
      "name": "platformMaintenance",
      "outputs": [
        {
          "name": "",
          "type": "address"
        }
      ],
      "payable": false,
      "stateMutability": "view",
      "type": "function"
    },
    {
      "constant": true,
      "inputs": [],
      "name": "MonthCount",
      "outputs": [
        {
          "name": "",
          "type": "uint256"
        }
      ],
      "payable": false,
      "stateMutability": "view",
      "type": "function"
    },
    {
      "constant": false,
      "inputs": [
        {
          "name": "_value",
          "type": "uint256"
        }
      ],
      "name": "burn",
      "outputs": [],
      "payable": false,
      "stateMutability": "nonpayable",
      "type": "function"
    },
    {
      "constant": true,
      "inputs": [],
      "name": "burnTokenBal",
      "outputs": [
        {
          "name": "",
          "type": "uint256"
        }
      ],
      "payable": false,
      "stateMutability": "view",
      "type": "function"
    },
    {
      "constant": true,
      "inputs": [],
      "name": "AnnualNRTAmount",
      "outputs": [
        {
          "name": "",
          "type": "uint256"
        }
      ],
      "payable": false,
      "stateMutability": "view",
      "type": "function"
    },
    {
      "constant": true,
      "inputs": [],
      "name": "marketingAndRNR",
      "outputs": [
        {
          "name": "",
          "type": "address"
        }
      ],
      "payable": false,
      "stateMutability": "view",
      "type": "function"
    },
    {
      "constant": true,
      "inputs": [],
      "name": "researchAndDevelopment",
      "outputs": [
        {
          "name": "",
          "type": "address"
        }
      ],
      "payable": false,
      "stateMutability": "view",
      "type": "function"
    },
    {
      "constant": true,
      "inputs": [],
      "name": "contingencyFundsBal",
      "outputs": [
        {
          "name": "",
          "type": "uint256"
        }
      ],
      "payable": false,
      "stateMutability": "view",
      "type": "function"
    },
    {
      "constant": true,
      "inputs": [],
      "name": "kmPards",
      "outputs": [
        {
          "name": "",
          "type": "address"
        }
      ],
      "payable": false,
      "stateMutability": "view",
      "type": "function"
    },
    {
      "constant": false,
      "inputs": [
        {
          "name": "_spender",
          "type": "address"
        },
        {
          "name": "_subtractedValue",
          "type": "uint256"
        }
      ],
      "name": "decreaseApproval",
      "outputs": [
        {
          "name": "success",
          "type": "bool"
        }
      ],
      "payable": false,
      "stateMutability": "nonpayable",
      "type": "function"
    },
    {
      "constant": true,
      "inputs": [],
      "name": "LastNRTRelease",
      "outputs": [
        {
          "name": "",
          "type": "uint256"
        }
      ],
      "payable": false,
      "stateMutability": "view",
      "type": "function"
    },
    {
      "constant": true,
      "inputs": [
        {
          "name": "_owner",
          "type": "address"
        }
      ],
      "name": "balanceOf",
      "outputs": [
        {
          "name": "",
          "type": "uint256"
        }
      ],
      "payable": false,
      "stateMutability": "view",
      "type": "function"
    },
    {
      "constant": false,
      "inputs": [],
      "name": "renounceOwnership",
      "outputs": [],
      "payable": false,
      "stateMutability": "nonpayable",
      "type": "function"
    },
    {
      "constant": true,
      "inputs": [],
      "name": "researchAndDevelopmentBal",
      "outputs": [
        {
          "name": "",
          "type": "uint256"
        }
      ],
      "payable": false,
      "stateMutability": "view",
      "type": "function"
    },
    {
      "constant": false,
      "inputs": [],
      "name": "finishMinting",
      "outputs": [
        {
          "name": "",
          "type": "bool"
        }
      ],
      "payable": false,
      "stateMutability": "nonpayable",
      "type": "function"
    },
    {
      "constant": true,
      "inputs": [],
      "name": "owner",
      "outputs": [
        {
          "name": "",
          "type": "address"
        }
      ],
      "payable": false,
      "stateMutability": "view",
      "type": "function"
    },
    {
      "constant": true,
      "inputs": [],
      "name": "symbol",
      "outputs": [
        {
          "name": "",
          "type": "string"
        }
      ],
      "payable": false,
      "stateMutability": "view",
      "type": "function"
    },
    {
      "constant": true,
      "inputs": [],
      "name": "timeSwappers",
      "outputs": [
        {
          "name": "",
          "type": "address"
        }
      ],
      "payable": false,
      "stateMutability": "view",
      "type": "function"
    },
    {
      "constant": false,
      "inputs": [
        {
          "name": "_to",
          "type": "address"
        },
        {
          "name": "_value",
          "type": "uint256"
        }
      ],
      "name": "transfer",
      "outputs": [
        {
          "name": "",
          "type": "bool"
        }
      ],
      "payable": false,
      "stateMutability": "nonpayable",
      "type": "function"
    },
    {
      "constant": true,
      "inputs": [],
      "name": "buzzCafe",
      "outputs": [
        {
          "name": "",
          "type": "address"
        }
      ],
      "payable": false,
      "stateMutability": "view",
      "type": "function"
    },
    {
      "constant": false,
      "inputs": [],
      "name": "MonthlyNRTRelease",
      "outputs": [
        {
          "name": "",
          "type": "bool"
        }
      ],
      "payable": false,
      "stateMutability": "nonpayable",
      "type": "function"
    },
    {
      "constant": true,
      "inputs": [],
      "name": "platformMaintenanceBal",
      "outputs": [
        {
          "name": "",
          "type": "uint256"
        }
      ],
      "payable": false,
      "stateMutability": "view",
      "type": "function"
    },
    {
      "constant": true,
      "inputs": [],
      "name": "MonthlyNRTAmount",
      "outputs": [
        {
          "name": "",
          "type": "uint256"
        }
      ],
      "payable": false,
      "stateMutability": "view",
      "type": "function"
    },
    {
      "constant": true,
      "inputs": [],
      "name": "timeSwappersNRT",
      "outputs": [
        {
          "name": "",
          "type": "uint256"
        }
      ],
      "payable": false,
      "stateMutability": "view",
      "type": "function"
    },
    {
      "constant": true,
      "inputs": [],
      "name": "luckPoolBal",
      "outputs": [
        {
          "name": "",
          "type": "uint256"
        }
      ],
      "payable": false,
      "stateMutability": "view",
      "type": "function"
    },
    {
      "constant": true,
      "inputs": [],
      "name": "TimeAllyNRT",
      "outputs": [
        {
          "name": "",
          "type": "uint256"
        }
      ],
      "payable": false,
      "stateMutability": "view",
      "type": "function"
    },
    {
      "constant": true,
      "inputs": [],
      "name": "marketingAndRNRBal",
      "outputs": [
        {
          "name": "",
          "type": "uint256"
        }
      ],
      "payable": false,
      "stateMutability": "view",
      "type": "function"
    },
    {
      "constant": false,
      "inputs": [
        {
          "name": "_spender",
          "type": "address"
        },
        {
          "name": "_addedValue",
          "type": "uint256"
        }
      ],
      "name": "increaseApproval",
      "outputs": [
        {
          "name": "success",
          "type": "bool"
        }
      ],
      "payable": false,
      "stateMutability": "nonpayable",
      "type": "function"
    },
    {
      "constant": true,
      "inputs": [],
      "name": "buzzCafeNRT",
      "outputs": [
        {
          "name": "",
          "type": "uint256"
        }
      ],
      "payable": false,
      "stateMutability": "view",
      "type": "function"
    },
    {
      "constant": true,
      "inputs": [
        {
          "name": "_owner",
          "type": "address"
        },
        {
          "name": "_spender",
          "type": "address"
        }
      ],
      "name": "allowance",
      "outputs": [
        {
          "name": "",
          "type": "uint256"
        }
      ],
      "payable": false,
      "stateMutability": "view",
      "type": "function"
    },
    {
      "constant": true,
      "inputs": [],
      "name": "newTalentsAndPartnershipsBal",
      "outputs": [
        {
          "name": "",
          "type": "uint256"
        }
      ],
      "payable": false,
      "stateMutability": "view",
      "type": "function"
    },
    {
      "constant": false,
      "inputs": [
        {
          "name": "_newOwner",
          "type": "address"
        }
      ],
      "name": "transferOwnership",
      "outputs": [],
      "payable": false,
      "stateMutability": "nonpayable",
      "type": "function"
    },
    {
      "anonymous": false,
      "inputs": [
        {
          "indexed": false,
          "name": "pool",
          "type": "string"
        },
        {
          "indexed": false,
          "name": "sendAddress",
          "type": "address"
        }
      ],
      "name": "PoolAddressAdded",
      "type": "event"
    },
    {
      "anonymous": false,
      "inputs": [
        {
          "indexed": false,
          "name": "luckPoolBal",
          "type": "uint256"
        }
      ],
      "name": "LuckPoolUpdated",
      "type": "event"
    },
    {
      "anonymous": false,
      "inputs": [
        {
          "indexed": false,
          "name": "burnTokenBal",
          "type": "uint256"
        }
      ],
      "name": "BurnTokenBalUpdated",
      "type": "event"
    },
    {
      "anonymous": false,
      "inputs": [
        {
          "indexed": false,
          "name": "NRTReleased",
          "type": "uint256"
        }
      ],
      "name": "NRTDistributed",
      "type": "event"
    },
    {
      "anonymous": false,
      "inputs": [
        {
          "indexed": false,
          "name": "pool",
          "type": "string"
        },
        {
          "indexed": false,
          "name": "sendAddress",
          "type": "address"
        },
        {
          "indexed": false,
          "name": "value",
          "type": "uint256"
        }
      ],
      "name": "NRTTransfer",
      "type": "event"
    },
    {
      "anonymous": false,
      "inputs": [
        {
          "indexed": false,
          "name": "amount",
          "type": "uint256"
        }
      ],
      "name": "TokensBurned",
      "type": "event"
    },
    {
      "anonymous": false,
      "inputs": [
        {
          "indexed": true,
          "name": "to",
          "type": "address"
        },
        {
          "indexed": false,
          "name": "amount",
          "type": "uint256"
        }
      ],
      "name": "Mint",
      "type": "event"
    },
    {
      "anonymous": false,
      "inputs": [],
      "name": "MintFinished",
      "type": "event"
    },
    {
      "anonymous": false,
      "inputs": [
        {
          "indexed": true,
          "name": "previousOwner",
          "type": "address"
        }
      ],
      "name": "OwnershipRenounced",
      "type": "event"
    },
    {
      "anonymous": false,
      "inputs": [
        {
          "indexed": true,
          "name": "previousOwner",
          "type": "address"
        },
        {
          "indexed": true,
          "name": "newOwner",
          "type": "address"
        }
      ],
      "name": "OwnershipTransferred",
      "type": "event"
    },
    {
      "anonymous": false,
      "inputs": [
        {
          "indexed": true,
          "name": "burner",
          "type": "address"
        },
        {
          "indexed": false,
          "name": "value",
          "type": "uint256"
        }
      ],
      "name": "Burn",
      "type": "event"
    },
    {
      "anonymous": false,
      "inputs": [
        {
          "indexed": true,
          "name": "owner",
          "type": "address"
        },
        {
          "indexed": true,
          "name": "spender",
          "type": "address"
        },
        {
          "indexed": false,
          "name": "value",
          "type": "uint256"
        }
      ],
      "name": "Approval",
      "type": "event"
    },
    {
      "anonymous": false,
      "inputs": [
        {
          "indexed": true,
          "name": "from",
          "type": "address"
        },
        {
          "indexed": true,
          "name": "to",
          "type": "address"
        },
        {
          "indexed": false,
          "name": "value",
          "type": "uint256"
        }
      ],
      "name": "Transfer",
      "type": "event"
    },
    {
      "constant": false,
      "inputs": [
        {
          "name": "pool",
          "type": "address[9]"
        }
      ],
      "name": "UpdateAddresses",
      "outputs": [
        {
          "name": "",
          "type": "bool"
        }
      ],
      "payable": false,
      "stateMutability": "nonpayable",
      "type": "function"
    },
    {
      "constant": false,
      "inputs": [
        {
          "name": "amount",
          "type": "uint256"
        }
      ],
      "name": "UpdateLuckpool",
      "outputs": [
        {
          "name": "",
          "type": "bool"
        }
      ],
      "payable": false,
      "stateMutability": "nonpayable",
      "type": "function"
    },
    {
      "constant": false,
      "inputs": [
        {
          "name": "amount",
          "type": "uint256"
        }
      ],
      "name": "UpdateBurnBal",
      "outputs": [
        {
          "name": "",
          "type": "bool"
        }
      ],
      "payable": false,
      "stateMutability": "nonpayable",
      "type": "function"
    },
    {
      "constant": false,
      "inputs": [
        {
          "name": "TokenTransferList",
          "type": "address[100]"
        },
        {
          "name": "TokenTransferBalance",
          "type": "uint256[100]"
        }
      ],
      "name": "UpdateBalance",
      "outputs": [
        {
          "name": "",
          "type": "bool"
        }
      ],
      "payable": false,
      "stateMutability": "nonpayable",
      "type": "function"
    }
  ],
  "bytecode": "0x60806040526000600660146101000a81548160ff0219169083151502179055506b1d6757f47b1c8ef70c0000006040805190810160405280600781526020017f45726173776170000000000000000000000000000000000000000000000000008152506040805190810160405280600381526020017f455354000000000000000000000000000000000000000000000000000000000081525060128260009080519060200190620000b292919062000561565b508160019080519060200190620000cb92919062000561565b5080600260006101000a81548160ff021916908360ff16021790555050505033600660006101000a81548173ffffffffffffffffffffffffffffffffffffffff021916908373ffffffffffffffffffffffffffffffffffffffff160217905550600081111515620001a4576040517f08c379a00000000000000000000000000000000000000000000000000000000081526004018080602001828103825260128152602001807f4361702063616e6e6f74206265207a65726f000000000000000000000000000081525060200191505060405180910390fd5b8060078190555050620001d3336b02f0bbfed91c74b24e00000062000228640100000000026401000000009004565b50426008819055506b02a575fef6999c3a13000000600a8190555062000214600c600a54620003176401000000000262004c31179091906401000000009004565b6009819055506000600b8190555062000610565b600060075462000252836004546200032e6401000000000262004435179091906401000000009004565b11151515620002ef576040517f08c379a00000000000000000000000000000000000000000000000000000000081526004018080602001828103825260228152602001807f416d6f756e74206d696e7465642073686f756c642062652077697468696e206381526020017f617000000000000000000000000000000000000000000000000000000000000081525060400191505060405180910390fd5b6200030f83836200034b6401000000000262005108176401000000009004565b905092915050565b600081838115156200032557fe5b04905092915050565b600081830190508281101515156200034257fe5b80905092915050565b6000600660149054906101000a900460ff16151515620003d3576040517f08c379a00000000000000000000000000000000000000000000000000000000081526004018080602001828103825260138152602001807f4d696e74696e672069732046696e69736865640000000000000000000000000081525060200191505060405180910390fd5b620003f8826004546200032e6401000000000262004435179091906401000000009004565b6004819055506200046082600360008673ffffffffffffffffffffffffffffffffffffffff1673ffffffffffffffffffffffffffffffffffffffff168152602001908152602001600020546200032e6401000000000262004435179091906401000000009004565b600360008573ffffffffffffffffffffffffffffffffffffffff1673ffffffffffffffffffffffffffffffffffffffff168152602001908152602001600020819055508273ffffffffffffffffffffffffffffffffffffffff167f0f6798a560793a54c3bcfe86a93cde1e73087d944c0ea20544137d4121396885836040518082815260200191505060405180910390a28273ffffffffffffffffffffffffffffffffffffffff16600073ffffffffffffffffffffffffffffffffffffffff167fddf252ad1be2c89b69c2b068fc378daa952ba7f163c4a11628f55a4df523b3ef846040518082815260200191505060405180910390a36001905092915050565b828054600181600116156101000203166002900490600052602060002090601f016020900481019282601f10620005a457805160ff1916838001178555620005d5565b82800160010185558215620005d5579182015b82811115620005d4578251825591602001919060010190620005b7565b5b509050620005e49190620005e8565b5090565b6200060d91905b8082111562000609576000816000905550600101620005ef565b5090565b90565b61532980620006206000396000f3fe60806040526004361061023b576000357c0100000000000000000000000000000000000000000000000000000000900463ffffffff16806305d2035b1461024057806306fdde031461026f578063095ea7b3146102ff5780630b3e29b81461037257806318160ddd146103c957806323b872dd146103f457806326b3bf2f146104875780632cfceb07146104de578063313ce56714610509578063355274ea1461053a57806337bfea1814610565578063382e2aab146105bc5780633a18a9fd1461060f5780633e249c0e1461066657806341aaa9b61461069157806342966c68146106e45780634a4581aa1461071f5780634f0e81401461074a57806351bd70b1146107755780635c12278d146107cc5780635f7ce89f1461082357806365c004701461084e57806366188463146108a55780636c6a06091461091857806370a0823114610943578063715018a6146109a85780637d53257a146109bf5780637d64bcb4146109ea5780638da5cb5b14610a1957806395d89b4114610a705780639cd417de14610b00578063a9059cbb14610b57578063a9e817a914610bca578063b018abbd14610c21578063bd27d36114610c50578063bec074dc14610c7b578063bfb3d6c814610ca6578063c3348a8b14610cd1578063c6b2c53614610cfc578063cb358efa14610d27578063d37eb95014610d7c578063d73dd62314610da7578063db2f2cb514610e1a578063dd62ed3e14610e45578063e71a3bfd14610eca578063e99e87a114610ef5578063f2fde38b14610f55575b600080fd5b34801561024c57600080fd5b50610255610fa6565b604051808215151515815260200191505060405180910390f35b34801561027b57600080fd5b50610284610fb9565b6040518080602001828103825283818151815260200191508051906020019080838360005b838110156102c45780820151818401526020810190506102a9565b50505050905090810190601f1680156102f15780820380516001836020036101000a031916815260200191505b509250505060405180910390f35b34801561030b57600080fd5b506103586004803603604081101561032257600080fd5b81019080803573ffffffffffffffffffffffffffffffffffffffff16906020019092919080359060200190929190505050611057565b604051808215151515815260200191505060405180910390f35b34801561037e57600080fd5b506103876110f9565b604051808273ffffffffffffffffffffffffffffffffffffffff1673ffffffffffffffffffffffffffffffffffffffff16815260200191505060405180910390f35b3480156103d557600080fd5b506103de61111f565b6040518082815260200191505060405180910390f35b34801561040057600080fd5b5061046d6004803603606081101561041757600080fd5b81019080803573ffffffffffffffffffffffffffffffffffffffff169060200190929190803573ffffffffffffffffffffffffffffffffffffffff16906020019092919080359060200190929190505050611129565b604051808215151515815260200191505060405180910390f35b34801561049357600080fd5b5061049c6111cd565b604051808273ffffffffffffffffffffffffffffffffffffffff1673ffffffffffffffffffffffffffffffffffffffff16815260200191505060405180910390f35b3480156104ea57600080fd5b506104f36111f3565b6040518082815260200191505060405180910390f35b34801561051557600080fd5b5061051e6111f9565b604051808260ff1660ff16815260200191505060405180910390f35b34801561054657600080fd5b5061054f61120c565b6040518082815260200191505060405180910390f35b34801561057157600080fd5b5061057a611212565b604051808273ffffffffffffffffffffffffffffffffffffffff1673ffffffffffffffffffffffffffffffffffffffff16815260200191505060405180910390f35b3480156105c857600080fd5b506105f5600480360360208110156105df57600080fd5b8101908080359060200190929190505050611238565b604051808215151515815260200191505060405180910390f35b34801561061b57600080fd5b50610624611401565b604051808273ffffffffffffffffffffffffffffffffffffffff1673ffffffffffffffffffffffffffffffffffffffff16815260200191505060405180910390f35b34801561067257600080fd5b5061067b611427565b6040518082815260200191505060405180910390f35b34801561069d57600080fd5b506106ca600480360360208110156106b457600080fd5b810190808035906020019092919050505061142d565b604051808215151515815260200191505060405180910390f35b3480156106f057600080fd5b5061071d6004803603602081101561070757600080fd5b81019080803590602001909291905050506115f6565b005b34801561072b57600080fd5b50610734611603565b6040518082815260200191505060405180910390f35b34801561075657600080fd5b5061075f611609565b6040518082815260200191505060405180910390f35b34801561078157600080fd5b5061078a61160f565b604051808273ffffffffffffffffffffffffffffffffffffffff1673ffffffffffffffffffffffffffffffffffffffff16815260200191505060405180910390f35b3480156107d857600080fd5b506107e1611635565b604051808273ffffffffffffffffffffffffffffffffffffffff1673ffffffffffffffffffffffffffffffffffffffff16815260200191505060405180910390f35b34801561082f57600080fd5b5061083861165b565b6040518082815260200191505060405180910390f35b34801561085a57600080fd5b50610863611661565b604051808273ffffffffffffffffffffffffffffffffffffffff1673ffffffffffffffffffffffffffffffffffffffff16815260200191505060405180910390f35b3480156108b157600080fd5b506108fe600480360360408110156108c857600080fd5b81019080803573ffffffffffffffffffffffffffffffffffffffff16906020019092919080359060200190929190505050611687565b604051808215151515815260200191505060405180910390f35b34801561092457600080fd5b5061092d611729565b6040518082815260200191505060405180910390f35b34801561094f57600080fd5b506109926004803603602081101561096657600080fd5b81019080803573ffffffffffffffffffffffffffffffffffffffff16906020019092919050505061172f565b6040518082815260200191505060405180910390f35b3480156109b457600080fd5b506109bd611778565b005b3480156109cb57600080fd5b506109d46118e6565b6040518082815260200191505060405180910390f35b3480156109f657600080fd5b506109ff6118ec565b604051808215151515815260200191505060405180910390f35b348015610a2557600080fd5b50610a2e611a86565b604051808273ffffffffffffffffffffffffffffffffffffffff1673ffffffffffffffffffffffffffffffffffffffff16815260200191505060405180910390f35b348015610a7c57600080fd5b50610a85611aac565b6040518080602001828103825283818151815260200191508051906020019080838360005b83811015610ac5578082015181840152602081019050610aaa565b50505050905090810190601f168015610af25780820380516001836020036101000a031916815260200191505b509250505060405180910390f35b348015610b0c57600080fd5b50610b15611b4a565b604051808273ffffffffffffffffffffffffffffffffffffffff1673ffffffffffffffffffffffffffffffffffffffff16815260200191505060405180910390f35b348015610b6357600080fd5b50610bb060048036036040811015610b7a57600080fd5b81019080803573ffffffffffffffffffffffffffffffffffffffff16906020019092919080359060200190929190505050611b70565b604051808215151515815260200191505060405180910390f35b348015610bd657600080fd5b50610bdf611c12565b604051808273ffffffffffffffffffffffffffffffffffffffff1673ffffffffffffffffffffffffffffffffffffffff16815260200191505060405180910390f35b348015610c2d57600080fd5b50610c36611c38565b604051808215151515815260200191505060405180910390f35b348015610c5c57600080fd5b50610c65612876565b6040518082815260200191505060405180910390f35b348015610c8757600080fd5b50610c9061287c565b6040518082815260200191505060405180910390f35b348015610cb257600080fd5b50610cbb612882565b6040518082815260200191505060405180910390f35b348015610cdd57600080fd5b50610ce6612888565b6040518082815260200191505060405180910390f35b348015610d0857600080fd5b50610d1161288e565b6040518082815260200191505060405180910390f35b348015610d3357600080fd5b50610d626004803603610120811015610d4b57600080fd5b810190808061012001909192919290505050612894565b604051808215151515815260200191505060405180910390f35b348015610d8857600080fd5b50610d91613a56565b6040518082815260200191505060405180910390f35b348015610db357600080fd5b50610e0060048036036040811015610dca57600080fd5b81019080803573ffffffffffffffffffffffffffffffffffffffff16906020019092919080359060200190929190505050613a5c565b604051808215151515815260200191505060405180910390f35b348015610e2657600080fd5b50610e2f613afe565b6040518082815260200191505060405180910390f35b348015610e5157600080fd5b50610eb460048036036040811015610e6857600080fd5b81019080803573ffffffffffffffffffffffffffffffffffffffff169060200190929190803573ffffffffffffffffffffffffffffffffffffffff169060200190929190505050613b04565b6040518082815260200191505060405180910390f35b348015610ed657600080fd5b50610edf613b8b565b6040518082815260200191505060405180910390f35b348015610f0157600080fd5b50610f3b6004803603611900811015610f1957600080fd5b8101908080610c800190919291929080610c8001909192919290505050613b91565b604051808215151515815260200191505060405180910390f35b348015610f6157600080fd5b50610fa460048036036020811015610f7857600080fd5b81019080803573ffffffffffffffffffffffffffffffffffffffff169060200190929190505050613d5e565b005b600660149054906101000a900460ff1681565b60008054600181600116156101000203166002900480601f01602080910402602001604051908101604052809291908181526020018280546001816001161561010002031660029004801561104f5780601f106110245761010080835404028352916020019161104f565b820191906000526020600020905b81548152906001019060200180831161103257829003601f168201915b505050505081565b600062278d0061107260085442613e2f90919063ffffffff16565b1015156110e7576040517f08c379a00000000000000000000000000000000000000000000000000000000081526004018080602001828103825260178152602001807f4e52542069732063757272656e746c792070617573656400000000000000000081525060200191505060405180910390fd5b6110f18383613e48565b905092915050565b601260009054906101000a900473ffffffffffffffffffffffffffffffffffffffff1681565b6000600454905090565b600062278d0061114460085442613e2f90919063ffffffff16565b1015156111b9576040517f08c379a00000000000000000000000000000000000000000000000000000000081526004018080602001828103825260178152602001807f4e52542069732063757272656e746c792070617573656400000000000000000081525060200191505060405180910390fd5b6111c4848484613f3a565b90509392505050565b600e60009054906101000a900473ffffffffffffffffffffffffffffffffffffffff1681565b601a5481565b600260009054906101000a900460ff1681565b60075481565b601660009054906101000a900473ffffffffffffffffffffffffffffffffffffffff1681565b6000601660009054906101000a900473ffffffffffffffffffffffffffffffffffffffff1673ffffffffffffffffffffffffffffffffffffffff163373ffffffffffffffffffffffffffffffffffffffff161415156112ff576040517f08c379a000000000000000000000000000000000000000000000000000000000815260040180806020018281038252601b8152602001807f4f6e6c792054696d65416c6c7920697320617574686f7269736564000000000081525060200191505060405180910390fd5b61130a333084611129565b15156113a4576040517f08c379a00000000000000000000000000000000000000000000000000000000081526004018080602001828103825260288152602001807f416d6f756e742073686f756c64206265207375636365737366756c6c7920747281526020017f616e73666572656400000000000000000000000000000000000000000000000081525060400191505060405180910390fd5b6113b982600c5461443590919063ffffffff16565b600c819055507fc9c58ca254a2bde8ce607d1f5211f98c28c52efcea5216a867ea933b95efc31f600c546040518082815260200191505060405180910390a160019050919050565b600f60009054906101000a900473ffffffffffffffffffffffffffffffffffffffff1681565b600b5481565b6000601660009054906101000a900473ffffffffffffffffffffffffffffffffffffffff1673ffffffffffffffffffffffffffffffffffffffff163373ffffffffffffffffffffffffffffffffffffffff161415156114f4576040517f08c379a000000000000000000000000000000000000000000000000000000000815260040180806020018281038252601b8152602001807f4f6e6c792054696d65416c6c7920697320617574686f7269736564000000000081525060200191505060405180910390fd5b6114ff333084611129565b1515611599576040517f08c379a00000000000000000000000000000000000000000000000000000000081526004018080602001828103825260288152602001807f416d6f756e742073686f756c64206265207375636365737366756c6c7920747281526020017f616e73666572656400000000000000000000000000000000000000000000000081525060400191505060405180910390fd5b6115ae82600d5461443590919063ffffffff16565b600d819055507f8f740eb8352e99b7242ce9c7cec021ee8b28b4acef603ff1260fe8b722822fec600d546040518082815260200191505060405180910390a160019050919050565b6116003382614451565b50565b600d5481565b600a5481565b601060009054906101000a900473ffffffffffffffffffffffffffffffffffffffff1681565b601360009054906101000a900473ffffffffffffffffffffffffffffffffffffffff1681565b601b5481565b601160009054906101000a900473ffffffffffffffffffffffffffffffffffffffff1681565b600062278d006116a260085442613e2f90919063ffffffff16565b101515611717576040517f08c379a00000000000000000000000000000000000000000000000000000000081526004018080602001828103825260178152602001807f4e52542069732063757272656e746c792070617573656400000000000000000081525060200191505060405180910390fd5b6117218383614670565b905092915050565b60085481565b6000600360008373ffffffffffffffffffffffffffffffffffffffff1673ffffffffffffffffffffffffffffffffffffffff168152602001908152602001600020549050919050565b600660009054906101000a900473ffffffffffffffffffffffffffffffffffffffff1673ffffffffffffffffffffffffffffffffffffffff163373ffffffffffffffffffffffffffffffffffffffff1614151561183d576040517f08c379a00000000000000000000000000000000000000000000000000000000081526004018080602001828103825260188152602001807f53656e646572206973206e6f7420617574686f7269736564000000000000000081525060200191505060405180910390fd5b600660009054906101000a900473ffffffffffffffffffffffffffffffffffffffff1673ffffffffffffffffffffffffffffffffffffffff167ff8df31144d9c2f0f6b59d69b8b98abd5459d07f2742c4df920b25aae33c6482060405160405180910390a26000600660006101000a81548173ffffffffffffffffffffffffffffffffffffffff021916908373ffffffffffffffffffffffffffffffffffffffff160217905550565b601c5481565b6000600660009054906101000a900473ffffffffffffffffffffffffffffffffffffffff1673ffffffffffffffffffffffffffffffffffffffff163373ffffffffffffffffffffffffffffffffffffffff161415156119b3576040517f08c379a00000000000000000000000000000000000000000000000000000000081526004018080602001828103825260188152602001807f53656e646572206973206e6f7420617574686f7269736564000000000000000081525060200191505060405180910390fd5b600660149054906101000a900460ff16151515611a38576040517f08c379a00000000000000000000000000000000000000000000000000000000081526004018080602001828103825260138152602001807f4d696e74696e672069732046696e69736865640000000000000000000000000081525060200191505060405180910390fd5b6001600660146101000a81548160ff0219169083151502179055507fae5184fba832cb2b1f702aca6117b8d265eaf03ad33eb133f19dde0f5920fa0860405160405180910390a16001905090565b600660009054906101000a900473ffffffffffffffffffffffffffffffffffffffff1681565b60018054600181600116156101000203166002900480601f016020809104026020016040519081016040528092919081815260200182805460018160011615610100020316600290048015611b425780601f10611b1757610100808354040283529160200191611b42565b820191906000526020600020905b815481529060010190602001808311611b2557829003601f168201915b505050505081565b601560009054906101000a900473ffffffffffffffffffffffffffffffffffffffff1681565b600062278d00611b8b60085442613e2f90919063ffffffff16565b101515611c00576040517f08c379a00000000000000000000000000000000000000000000000000000000081526004018080602001828103825260178152602001807f4e52542069732063757272656e746c792070617573656400000000000000000081525060200191505060405180910390fd5b611c0a8383614902565b905092915050565b601460009054906101000a900473ffffffffffffffffffffffffffffffffffffffff1681565b600062278d00611c5360085442613e2f90919063ffffffff16565b111515611cee576040517f08c379a00000000000000000000000000000000000000000000000000000000081526004018080602001828103825260248152602001807f4e52542072656c656173652068617070656e73206f6e6365206576657279206d81526020017f6f6e74680000000000000000000000000000000000000000000000000000000081525060400191505060405180910390fd5b6000611d07600c5460095461443590919063ffffffff16565b9050611d306064611d22600584614bf990919063ffffffff16565b614c3190919063ffffffff16565b601781905550611d5d6064611d4f600a84614bf990919063ffffffff16565b614c3190919063ffffffff16565b601881905550611d8a6064611d7c600a84614bf990919063ffffffff16565b614c3190919063ffffffff16565b601981905550611db76064611da9600a84614bf990919063ffffffff16565b614c3190919063ffffffff16565b601a81905550611de46064611dd6600a84614bf990919063ffffffff16565b614c3190919063ffffffff16565b601b81905550611e116064611e03600584614bf990919063ffffffff16565b614c3190919063ffffffff16565b601c81905550611e3f6103e8611e31601984614bf990919063ffffffff16565b614c3190919063ffffffff16565b601d81905550611e6c6064611e5e600f84614bf990919063ffffffff16565b614c3190919063ffffffff16565b601e81905550611e9b6103e8611e8d61014584614bf990919063ffffffff16565b614c3190919063ffffffff16565b601f81905550611ecf600e60009054906101000a900473ffffffffffffffffffffffffffffffffffffffff16601754614c47565b507f8470ec6072093abfec912969ee9fd5273eed1d3202eac51a1fd83c236ee9bea8600e60009054906101000a900473ffffffffffffffffffffffffffffffffffffffff1660175460405180806020018473ffffffffffffffffffffffffffffffffffffffff1673ffffffffffffffffffffffffffffffffffffffff168152602001838152602001828103825260198152602001807f6e657754616c656e7473416e64506172746e6572736869707300000000000000815250602001935050505060405180910390a1611fc6600f60009054906101000a900473ffffffffffffffffffffffffffffffffffffffff16601854614c47565b507f8470ec6072093abfec912969ee9fd5273eed1d3202eac51a1fd83c236ee9bea8600f60009054906101000a900473ffffffffffffffffffffffffffffffffffffffff1660185460405180806020018473ffffffffffffffffffffffffffffffffffffffff1673ffffffffffffffffffffffffffffffffffffffff168152602001838152602001828103825260138152602001807f706c6174666f726d4d61696e74656e616e636500000000000000000000000000815250602001935050505060405180910390a16120bd601060009054906101000a900473ffffffffffffffffffffffffffffffffffffffff16601954614c47565b507f8470ec6072093abfec912969ee9fd5273eed1d3202eac51a1fd83c236ee9bea8601060009054906101000a900473ffffffffffffffffffffffffffffffffffffffff1660195460405180806020018473ffffffffffffffffffffffffffffffffffffffff1673ffffffffffffffffffffffffffffffffffffffff1681526020018381526020018281038252600f8152602001807f6d61726b6574696e67416e64524e520000000000000000000000000000000000815250602001935050505060405180910390a16121b4601160009054906101000a900473ffffffffffffffffffffffffffffffffffffffff16601a54614c47565b507f8470ec6072093abfec912969ee9fd5273eed1d3202eac51a1fd83c236ee9bea8601160009054906101000a900473ffffffffffffffffffffffffffffffffffffffff16601a5460405180806020018473ffffffffffffffffffffffffffffffffffffffff1673ffffffffffffffffffffffffffffffffffffffff168152602001838152602001828103825260078152602001807f6b6d506172647300000000000000000000000000000000000000000000000000815250602001935050505060405180910390a16122ab601260009054906101000a900473ffffffffffffffffffffffffffffffffffffffff16601b54614c47565b507f8470ec6072093abfec912969ee9fd5273eed1d3202eac51a1fd83c236ee9bea8601260009054906101000a900473ffffffffffffffffffffffffffffffffffffffff16601b5460405180806020018473ffffffffffffffffffffffffffffffffffffffff1673ffffffffffffffffffffffffffffffffffffffff168152602001838152602001828103825260108152602001807f636f6e74696e67656e637946756e647300000000000000000000000000000000815250602001935050505060405180910390a16123a2601360009054906101000a900473ffffffffffffffffffffffffffffffffffffffff16601c54614c47565b507f8470ec6072093abfec912969ee9fd5273eed1d3202eac51a1fd83c236ee9bea8601360009054906101000a900473ffffffffffffffffffffffffffffffffffffffff16601c5460405180806020018473ffffffffffffffffffffffffffffffffffffffff1673ffffffffffffffffffffffffffffffffffffffff168152602001838152602001828103825260168152602001807f7265736561726368416e64446576656c6f706d656e7400000000000000000000815250602001935050505060405180910390a1612499601460009054906101000a900473ffffffffffffffffffffffffffffffffffffffff16601d54614c47565b507f8470ec6072093abfec912969ee9fd5273eed1d3202eac51a1fd83c236ee9bea8601460009054906101000a900473ffffffffffffffffffffffffffffffffffffffff16601d5460405180806020018473ffffffffffffffffffffffffffffffffffffffff1673ffffffffffffffffffffffffffffffffffffffff168152602001838152602001828103825260088152602001807f62757a7a43616665000000000000000000000000000000000000000000000000815250602001935050505060405180910390a1612590601660009054906101000a900473ffffffffffffffffffffffffffffffffffffffff16601e54614c47565b507f8470ec6072093abfec912969ee9fd5273eed1d3202eac51a1fd83c236ee9bea8601660009054906101000a900473ffffffffffffffffffffffffffffffffffffffff16601e5460405180806020018473ffffffffffffffffffffffffffffffffffffffff1673ffffffffffffffffffffffffffffffffffffffff1681526020018381526020018281038252600f8152602001807f7374616b696e67436f6e74726163740000000000000000000000000000000000815250602001935050505060405180910390a1612687601560009054906101000a900473ffffffffffffffffffffffffffffffffffffffff16601f54614c47565b507f8470ec6072093abfec912969ee9fd5273eed1d3202eac51a1fd83c236ee9bea8601560009054906101000a900473ffffffffffffffffffffffffffffffffffffffff16601f5460405180806020018473ffffffffffffffffffffffffffffffffffffffff1673ffffffffffffffffffffffffffffffffffffffff1681526020018381526020018281038252600c8152602001807f74696d6553776170706572730000000000000000000000000000000000000000815250602001935050505060405180910390a17f31a2c82874744c38fa6d0d7bacb6ff098de6c1ecc98899f39f5b9ea32108765b816040518082815260200191505060405180910390a16000600c819055506127a762278d0060085461443590919063ffffffff16565b6008819055506127b5614d0f565b507f6ef4855b666dcc7884561072e4358b28dfe01feb1b7f4dcebc00e62d50394ac7600d546040518082815260200191505060405180910390a1600b80541415612851576000600b8190555061282a600a61281c6009600a54614bf990919063ffffffff16565b614c3190919063ffffffff16565b600a81905550612846600c600954614c3190919063ffffffff16565b60098190555061286e565b6128676001600b5461443590919063ffffffff16565b600b819055505b600191505090565b60185481565b60095481565b601f5481565b600c5481565b601e5481565b6000600660009054906101000a900473ffffffffffffffffffffffffffffffffffffffff1673ffffffffffffffffffffffffffffffffffffffff163373ffffffffffffffffffffffffffffffffffffffff1614151561295b576040517f08c379a00000000000000000000000000000000000000000000000000000000081526004018080602001828103825260188152602001807f53656e646572206973206e6f7420617574686f7269736564000000000000000081525060200191505060405180910390fd5b600073ffffffffffffffffffffffffffffffffffffffff1682600060098110151561298257fe5b602002013573ffffffffffffffffffffffffffffffffffffffff1673ffffffffffffffffffffffffffffffffffffffff1614158015612a0f5750600073ffffffffffffffffffffffffffffffffffffffff16600e60009054906101000a900473ffffffffffffffffffffffffffffffffffffffff1673ffffffffffffffffffffffffffffffffffffffff16145b15612b3d57816000600981101515612a2357fe5b602002013573ffffffffffffffffffffffffffffffffffffffff16600e60006101000a81548173ffffffffffffffffffffffffffffffffffffffff021916908373ffffffffffffffffffffffffffffffffffffffff1602179055507f12fb0c5abba542bf97c53eecc4ebe59d9ba7ad563247ed305f002ada0291d60f600e60009054906101000a900473ffffffffffffffffffffffffffffffffffffffff1660405180806020018373ffffffffffffffffffffffffffffffffffffffff1673ffffffffffffffffffffffffffffffffffffffff168152602001828103825260198152602001807f4e657754616c656e7473416e64506172746e65727368697073000000000000008152506020019250505060405180910390a15b600073ffffffffffffffffffffffffffffffffffffffff16826001600981101515612b6457fe5b602002013573ffffffffffffffffffffffffffffffffffffffff1673ffffffffffffffffffffffffffffffffffffffff1614158015612bf15750600073ffffffffffffffffffffffffffffffffffffffff16600f60009054906101000a900473ffffffffffffffffffffffffffffffffffffffff1673ffffffffffffffffffffffffffffffffffffffff16145b15612d1f57816001600981101515612c0557fe5b602002013573ffffffffffffffffffffffffffffffffffffffff16600f60006101000a81548173ffffffffffffffffffffffffffffffffffffffff021916908373ffffffffffffffffffffffffffffffffffffffff1602179055507f12fb0c5abba542bf97c53eecc4ebe59d9ba7ad563247ed305f002ada0291d60f600f60009054906101000a900473ffffffffffffffffffffffffffffffffffffffff1660405180806020018373ffffffffffffffffffffffffffffffffffffffff1673ffffffffffffffffffffffffffffffffffffffff168152602001828103825260138152602001807f506c6174666f726d4d61696e74656e616e6365000000000000000000000000008152506020019250505060405180910390a15b600073ffffffffffffffffffffffffffffffffffffffff16826002600981101515612d4657fe5b602002013573ffffffffffffffffffffffffffffffffffffffff1673ffffffffffffffffffffffffffffffffffffffff1614158015612dd35750600073ffffffffffffffffffffffffffffffffffffffff16601060009054906101000a900473ffffffffffffffffffffffffffffffffffffffff1673ffffffffffffffffffffffffffffffffffffffff16145b15612f0157816002600981101515612de757fe5b602002013573ffffffffffffffffffffffffffffffffffffffff16601060006101000a81548173ffffffffffffffffffffffffffffffffffffffff021916908373ffffffffffffffffffffffffffffffffffffffff1602179055507f12fb0c5abba542bf97c53eecc4ebe59d9ba7ad563247ed305f002ada0291d60f601060009054906101000a900473ffffffffffffffffffffffffffffffffffffffff1660405180806020018373ffffffffffffffffffffffffffffffffffffffff1673ffffffffffffffffffffffffffffffffffffffff1681526020018281038252600f8152602001807f4d61726b6574696e67416e64524e5200000000000000000000000000000000008152506020019250505060405180910390a15b600073ffffffffffffffffffffffffffffffffffffffff16826003600981101515612f2857fe5b602002013573ffffffffffffffffffffffffffffffffffffffff1673ffffffffffffffffffffffffffffffffffffffff1614158015612fb55750600073ffffffffffffffffffffffffffffffffffffffff16601160009054906101000a900473ffffffffffffffffffffffffffffffffffffffff1673ffffffffffffffffffffffffffffffffffffffff16145b156130e357816003600981101515612fc957fe5b602002013573ffffffffffffffffffffffffffffffffffffffff16601160006101000a81548173ffffffffffffffffffffffffffffffffffffffff021916908373ffffffffffffffffffffffffffffffffffffffff1602179055507f12fb0c5abba542bf97c53eecc4ebe59d9ba7ad563247ed305f002ada0291d60f601160009054906101000a900473ffffffffffffffffffffffffffffffffffffffff1660405180806020018373ffffffffffffffffffffffffffffffffffffffff1673ffffffffffffffffffffffffffffffffffffffff168152602001828103825260078152602001807f4b6d5061726473000000000000000000000000000000000000000000000000008152506020019250505060405180910390a15b600073ffffffffffffffffffffffffffffffffffffffff1682600460098110151561310a57fe5b602002013573ffffffffffffffffffffffffffffffffffffffff1673ffffffffffffffffffffffffffffffffffffffff16141580156131975750600073ffffffffffffffffffffffffffffffffffffffff16601260009054906101000a900473ffffffffffffffffffffffffffffffffffffffff1673ffffffffffffffffffffffffffffffffffffffff16145b156132c5578160046009811015156131ab57fe5b602002013573ffffffffffffffffffffffffffffffffffffffff16601260006101000a81548173ffffffffffffffffffffffffffffffffffffffff021916908373ffffffffffffffffffffffffffffffffffffffff1602179055507f12fb0c5abba542bf97c53eecc4ebe59d9ba7ad563247ed305f002ada0291d60f601260009054906101000a900473ffffffffffffffffffffffffffffffffffffffff1660405180806020018373ffffffffffffffffffffffffffffffffffffffff1673ffffffffffffffffffffffffffffffffffffffff168152602001828103825260108152602001807f436f6e74696e67656e637946756e6473000000000000000000000000000000008152506020019250505060405180910390a15b600073ffffffffffffffffffffffffffffffffffffffff168260056009811015156132ec57fe5b602002013573ffffffffffffffffffffffffffffffffffffffff1673ffffffffffffffffffffffffffffffffffffffff16141580156133795750600073ffffffffffffffffffffffffffffffffffffffff16601360009054906101000a900473ffffffffffffffffffffffffffffffffffffffff1673ffffffffffffffffffffffffffffffffffffffff16145b156134a75781600560098110151561338d57fe5b602002013573ffffffffffffffffffffffffffffffffffffffff16601360006101000a81548173ffffffffffffffffffffffffffffffffffffffff021916908373ffffffffffffffffffffffffffffffffffffffff1602179055507f12fb0c5abba542bf97c53eecc4ebe59d9ba7ad563247ed305f002ada0291d60f601360009054906101000a900473ffffffffffffffffffffffffffffffffffffffff1660405180806020018373ffffffffffffffffffffffffffffffffffffffff1673ffffffffffffffffffffffffffffffffffffffff168152602001828103825260168152602001807f5265736561726368416e64446576656c6f706d656e74000000000000000000008152506020019250505060405180910390a15b600073ffffffffffffffffffffffffffffffffffffffff168260066009811015156134ce57fe5b602002013573ffffffffffffffffffffffffffffffffffffffff1673ffffffffffffffffffffffffffffffffffffffff161415801561355b5750600073ffffffffffffffffffffffffffffffffffffffff16601460009054906101000a900473ffffffffffffffffffffffffffffffffffffffff1673ffffffffffffffffffffffffffffffffffffffff16145b156136895781600660098110151561356f57fe5b602002013573ffffffffffffffffffffffffffffffffffffffff16601460006101000a81548173ffffffffffffffffffffffffffffffffffffffff021916908373ffffffffffffffffffffffffffffffffffffffff1602179055507f12fb0c5abba542bf97c53eecc4ebe59d9ba7ad563247ed305f002ada0291d60f601460009054906101000a900473ffffffffffffffffffffffffffffffffffffffff1660405180806020018373ffffffffffffffffffffffffffffffffffffffff1673ffffffffffffffffffffffffffffffffffffffff168152602001828103825260088152602001807f42757a7a436166650000000000000000000000000000000000000000000000008152506020019250505060405180910390a15b600073ffffffffffffffffffffffffffffffffffffffff168260076009811015156136b057fe5b602002013573ffffffffffffffffffffffffffffffffffffffff1673ffffffffffffffffffffffffffffffffffffffff161415801561373d5750600073ffffffffffffffffffffffffffffffffffffffff16601560009054906101000a900473ffffffffffffffffffffffffffffffffffffffff1673ffffffffffffffffffffffffffffffffffffffff16145b1561386b5781600760098110151561375157fe5b602002013573ffffffffffffffffffffffffffffffffffffffff16601560006101000a81548173ffffffffffffffffffffffffffffffffffffffff021916908373ffffffffffffffffffffffffffffffffffffffff1602179055507f12fb0c5abba542bf97c53eecc4ebe59d9ba7ad563247ed305f002ada0291d60f601560009054906101000a900473ffffffffffffffffffffffffffffffffffffffff1660405180806020018373ffffffffffffffffffffffffffffffffffffffff1673ffffffffffffffffffffffffffffffffffffffff1681526020018281038252600b8152602001807f54696d65537761707065720000000000000000000000000000000000000000008152506020019250505060405180910390a15b600073ffffffffffffffffffffffffffffffffffffffff1682600860098110151561389257fe5b602002013573ffffffffffffffffffffffffffffffffffffffff1673ffffffffffffffffffffffffffffffffffffffff161415801561391f5750600073ffffffffffffffffffffffffffffffffffffffff16601660009054906101000a900473ffffffffffffffffffffffffffffffffffffffff1673ffffffffffffffffffffffffffffffffffffffff16145b15613a4d5781600860098110151561393357fe5b602002013573ffffffffffffffffffffffffffffffffffffffff16601660006101000a81548173ffffffffffffffffffffffffffffffffffffffff021916908373ffffffffffffffffffffffffffffffffffffffff1602179055507f12fb0c5abba542bf97c53eecc4ebe59d9ba7ad563247ed305f002ada0291d60f601660009054906101000a900473ffffffffffffffffffffffffffffffffffffffff1660405180806020018373ffffffffffffffffffffffffffffffffffffffff1673ffffffffffffffffffffffffffffffffffffffff168152602001828103825260088152602001807f54696d65416c6c790000000000000000000000000000000000000000000000008152506020019250505060405180910390a15b60019050919050565b60195481565b600062278d00613a7760085442613e2f90919063ffffffff16565b101515613aec576040517f08c379a00000000000000000000000000000000000000000000000000000000081526004018080602001828103825260178152602001807f4e52542069732063757272656e746c792070617573656400000000000000000081525060200191505060405180910390fd5b613af68383614da7565b905092915050565b601d5481565b6000600560008473ffffffffffffffffffffffffffffffffffffffff1673ffffffffffffffffffffffffffffffffffffffff16815260200190815260200160002060008373ffffffffffffffffffffffffffffffffffffffff1673ffffffffffffffffffffffffffffffffffffffff16815260200190815260200160002054905092915050565b60175481565b6000601660009054906101000a900473ffffffffffffffffffffffffffffffffffffffff1673ffffffffffffffffffffffffffffffffffffffff163373ffffffffffffffffffffffffffffffffffffffff16141515613c58576040517f08c379a000000000000000000000000000000000000000000000000000000000815260040180806020018281038252601b8152602001807f4f6e6c792054696d65416c6c7920697320617574686f7269736564000000000081525060200191505060405180910390fd5b60008090505b6064811015613d5357613cac338583606481101515613c7957fe5b602002013573ffffffffffffffffffffffffffffffffffffffff168584606481101515613ca257fe5b6020020135611129565b1515613d46576040517f08c379a00000000000000000000000000000000000000000000000000000000081526004018080602001828103825260288152602001807f416d6f756e742073686f756c64206265207375636365737366756c6c7920747281526020017f616e73666572656400000000000000000000000000000000000000000000000081525060400191505060405180910390fd5b8080600101915050613c5e565b600191505092915050565b600660009054906101000a900473ffffffffffffffffffffffffffffffffffffffff1673ffffffffffffffffffffffffffffffffffffffff163373ffffffffffffffffffffffffffffffffffffffff16141515613e23576040517f08c379a00000000000000000000000000000000000000000000000000000000081526004018080602001828103825260188152602001807f53656e646572206973206e6f7420617574686f7269736564000000000000000081525060200191505060405180910390fd5b613e2c81614fa3565b50565b6000828211151515613e3d57fe5b818303905092915050565b600081600560003373ffffffffffffffffffffffffffffffffffffffff1673ffffffffffffffffffffffffffffffffffffffff16815260200190815260200160002060008573ffffffffffffffffffffffffffffffffffffffff1673ffffffffffffffffffffffffffffffffffffffff168152602001908152602001600020819055508273ffffffffffffffffffffffffffffffffffffffff163373ffffffffffffffffffffffffffffffffffffffff167f8c5be1e5ebec7d5bd14f71427d1e84f3dd0314c0f7b2291e5b200ac8c7c3b925846040518082815260200191505060405180910390a36001905092915050565b6000600360008573ffffffffffffffffffffffffffffffffffffffff1673ffffffffffffffffffffffffffffffffffffffff168152602001908152602001600020548211151515613ff3576040517f08c379a00000000000000000000000000000000000000000000000000000000081526004018080602001828103825260148152602001807f496e73756666696369656e742042616c616e636500000000000000000000000081525060200191505060405180910390fd5b600560008573ffffffffffffffffffffffffffffffffffffffff1673ffffffffffffffffffffffffffffffffffffffff16815260200190815260200160002060003373ffffffffffffffffffffffffffffffffffffffff1673ffffffffffffffffffffffffffffffffffffffff1681526020019081526020016000205482111515156140e7576040517f08c379a00000000000000000000000000000000000000000000000000000000081526004018080602001828103825260188152602001807f556e617574686f72697a656420746f207472616e73666572000000000000000081525060200191505060405180910390fd5b600073ffffffffffffffffffffffffffffffffffffffff168373ffffffffffffffffffffffffffffffffffffffff161415151561418c576040517f08c379a00000000000000000000000000000000000000000000000000000000081526004018080602001828103825260198152602001807f53686f756c6420626520612076616c696420616464726573730000000000000081525060200191505060405180910390fd5b6141de82600360008773ffffffffffffffffffffffffffffffffffffffff1673ffffffffffffffffffffffffffffffffffffffff16815260200190815260200160002054613e2f90919063ffffffff16565b600360008673ffffffffffffffffffffffffffffffffffffffff1673ffffffffffffffffffffffffffffffffffffffff1681526020019081526020016000208190555061427382600360008673ffffffffffffffffffffffffffffffffffffffff1673ffffffffffffffffffffffffffffffffffffffff1681526020019081526020016000205461443590919063ffffffff16565b600360008573ffffffffffffffffffffffffffffffffffffffff1673ffffffffffffffffffffffffffffffffffffffff1681526020019081526020016000208190555061434582600560008773ffffffffffffffffffffffffffffffffffffffff1673ffffffffffffffffffffffffffffffffffffffff16815260200190815260200160002060003373ffffffffffffffffffffffffffffffffffffffff1673ffffffffffffffffffffffffffffffffffffffff16815260200190815260200160002054613e2f90919063ffffffff16565b600560008673ffffffffffffffffffffffffffffffffffffffff1673ffffffffffffffffffffffffffffffffffffffff16815260200190815260200160002060003373ffffffffffffffffffffffffffffffffffffffff1673ffffffffffffffffffffffffffffffffffffffff168152602001908152602001600020819055508273ffffffffffffffffffffffffffffffffffffffff168473ffffffffffffffffffffffffffffffffffffffff167fddf252ad1be2c89b69c2b068fc378daa952ba7f163c4a11628f55a4df523b3ef846040518082815260200191505060405180910390a3600190509392505050565b6000818301905082811015151561444857fe5b80905092915050565b600360008373ffffffffffffffffffffffffffffffffffffffff1673ffffffffffffffffffffffffffffffffffffffff168152602001908152602001600020548111151515614508576040517f08c379a00000000000000000000000000000000000000000000000000000000081526004018080602001828103825260148152602001807f496e73756666696369656e742042616c616e636500000000000000000000000081525060200191505060405180910390fd5b61455a81600360008573ffffffffffffffffffffffffffffffffffffffff1673ffffffffffffffffffffffffffffffffffffffff16815260200190815260200160002054613e2f90919063ffffffff16565b600360008473ffffffffffffffffffffffffffffffffffffffff1673ffffffffffffffffffffffffffffffffffffffff168152602001908152602001600020819055506145b281600454613e2f90919063ffffffff16565b6004819055508173ffffffffffffffffffffffffffffffffffffffff167fcc16f5dbb4873280815c1ee09dbd06736cffcc184412cf7a71a0fdb75d397ca5826040518082815260200191505060405180910390a2600073ffffffffffffffffffffffffffffffffffffffff168273ffffffffffffffffffffffffffffffffffffffff167fddf252ad1be2c89b69c2b068fc378daa952ba7f163c4a11628f55a4df523b3ef836040518082815260200191505060405180910390a35050565b600080600560003373ffffffffffffffffffffffffffffffffffffffff1673ffffffffffffffffffffffffffffffffffffffff16815260200190815260200160002060008573ffffffffffffffffffffffffffffffffffffffff1673ffffffffffffffffffffffffffffffffffffffff1681526020019081526020016000205490508083101515614782576000600560003373ffffffffffffffffffffffffffffffffffffffff1673ffffffffffffffffffffffffffffffffffffffff16815260200190815260200160002060008673ffffffffffffffffffffffffffffffffffffffff1673ffffffffffffffffffffffffffffffffffffffff16815260200190815260200160002081905550614816565b6147958382613e2f90919063ffffffff16565b600560003373ffffffffffffffffffffffffffffffffffffffff1673ffffffffffffffffffffffffffffffffffffffff16815260200190815260200160002060008673ffffffffffffffffffffffffffffffffffffffff1673ffffffffffffffffffffffffffffffffffffffff168152602001908152602001600020819055505b8373ffffffffffffffffffffffffffffffffffffffff163373ffffffffffffffffffffffffffffffffffffffff167f8c5be1e5ebec7d5bd14f71427d1e84f3dd0314c0f7b2291e5b200ac8c7c3b925600560003373ffffffffffffffffffffffffffffffffffffffff1673ffffffffffffffffffffffffffffffffffffffff16815260200190815260200160002060008873ffffffffffffffffffffffffffffffffffffffff1673ffffffffffffffffffffffffffffffffffffffff168152602001908152602001600020546040518082815260200191505060405180910390a3600191505092915050565b6000600360003373ffffffffffffffffffffffffffffffffffffffff1673ffffffffffffffffffffffffffffffffffffffff1681526020019081526020016000205482111515156149bb576040517f08c379a00000000000000000000000000000000000000000000000000000000081526004018080602001828103825260148152602001807f496e73756666696369656e742042616c616e636500000000000000000000000081525060200191505060405180910390fd5b600073ffffffffffffffffffffffffffffffffffffffff168373ffffffffffffffffffffffffffffffffffffffff1614151515614a60576040517f08c379a000000000000000000000000000000000000000000000000000000000815260040180806020018281038252600f8152602001807f496e76616c69642041646472657373000000000000000000000000000000000081525060200191505060405180910390fd5b614ab282600360003373ffffffffffffffffffffffffffffffffffffffff1673ffffffffffffffffffffffffffffffffffffffff16815260200190815260200160002054613e2f90919063ffffffff16565b600360003373ffffffffffffffffffffffffffffffffffffffff1673ffffffffffffffffffffffffffffffffffffffff16815260200190815260200160002081905550614b4782600360008673ffffffffffffffffffffffffffffffffffffffff1673ffffffffffffffffffffffffffffffffffffffff1681526020019081526020016000205461443590919063ffffffff16565b600360008573ffffffffffffffffffffffffffffffffffffffff1673ffffffffffffffffffffffffffffffffffffffff168152602001908152602001600020819055508273ffffffffffffffffffffffffffffffffffffffff163373ffffffffffffffffffffffffffffffffffffffff167fddf252ad1be2c89b69c2b068fc378daa952ba7f163c4a11628f55a4df523b3ef846040518082815260200191505060405180910390a36001905092915050565b600080831415614c0c5760009050614c2b565b8183029050818382811515614c1d57fe5b04141515614c2757fe5b8090505b92915050565b60008183811515614c3e57fe5b04905092915050565b6000600754614c618360045461443590919063ffffffff16565b11151515614cfd576040517f08c379a00000000000000000000000000000000000000000000000000000000081526004018080602001828103825260228152602001807f416d6f756e74206d696e7465642073686f756c642062652077697468696e206381526020017f617000000000000000000000000000000000000000000000000000000000000081525060400191505060405180910390fd5b614d078383615108565b905092915050565b600080600d541415614d245760019050614da4565b6000614d546064614d466002614d3861111f565b614bf990919063ffffffff16565b614c3190919063ffffffff16565b9050600d5481101515614d7957614d6c600d546115f6565b6000600d81905550614d9e565b614d8e81600d54613e2f90919063ffffffff16565b600d81905550614d9d816115f6565b5b60019150505b90565b6000614e3882600560003373ffffffffffffffffffffffffffffffffffffffff1673ffffffffffffffffffffffffffffffffffffffff16815260200190815260200160002060008673ffffffffffffffffffffffffffffffffffffffff1673ffffffffffffffffffffffffffffffffffffffff1681526020019081526020016000205461443590919063ffffffff16565b600560003373ffffffffffffffffffffffffffffffffffffffff1673ffffffffffffffffffffffffffffffffffffffff16815260200190815260200160002060008573ffffffffffffffffffffffffffffffffffffffff1673ffffffffffffffffffffffffffffffffffffffff168152602001908152602001600020819055508273ffffffffffffffffffffffffffffffffffffffff163373ffffffffffffffffffffffffffffffffffffffff167f8c5be1e5ebec7d5bd14f71427d1e84f3dd0314c0f7b2291e5b200ac8c7c3b925600560003373ffffffffffffffffffffffffffffffffffffffff1673ffffffffffffffffffffffffffffffffffffffff16815260200190815260200160002060008773ffffffffffffffffffffffffffffffffffffffff1673ffffffffffffffffffffffffffffffffffffffff168152602001908152602001600020546040518082815260200191505060405180910390a36001905092915050565b600073ffffffffffffffffffffffffffffffffffffffff168173ffffffffffffffffffffffffffffffffffffffff1614151515615048576040517f08c379a00000000000000000000000000000000000000000000000000000000081526004018080602001828103825260178152602001807f416464726573732053686f756c642062652076616c696400000000000000000081525060200191505060405180910390fd5b8073ffffffffffffffffffffffffffffffffffffffff16600660009054906101000a900473ffffffffffffffffffffffffffffffffffffffff1673ffffffffffffffffffffffffffffffffffffffff167f8be0079c531659141344cd1fd0a4f28419497f9722a3daafe3b4186f6b6457e060405160405180910390a380600660006101000a81548173ffffffffffffffffffffffffffffffffffffffff021916908373ffffffffffffffffffffffffffffffffffffffff16021790555050565b6000600660149054906101000a900460ff1615151561518f576040517f08c379a00000000000000000000000000000000000000000000000000000000081526004018080602001828103825260138152602001807f4d696e74696e672069732046696e69736865640000000000000000000000000081525060200191505060405180910390fd5b6151a48260045461443590919063ffffffff16565b6004819055506151fc82600360008673ffffffffffffffffffffffffffffffffffffffff1673ffffffffffffffffffffffffffffffffffffffff1681526020019081526020016000205461443590919063ffffffff16565b600360008573ffffffffffffffffffffffffffffffffffffffff1673ffffffffffffffffffffffffffffffffffffffff168152602001908152602001600020819055508273ffffffffffffffffffffffffffffffffffffffff167f0f6798a560793a54c3bcfe86a93cde1e73087d944c0ea20544137d4121396885836040518082815260200191505060405180910390a28273ffffffffffffffffffffffffffffffffffffffff16600073ffffffffffffffffffffffffffffffffffffffff167fddf252ad1be2c89b69c2b068fc378daa952ba7f163c4a11628f55a4df523b3ef846040518082815260200191505060405180910390a3600190509291505056fea165627a7a723058205a0a5f556e8736050aad3ab529316ea6953dc6609adbb5c410b77ad1b623f0390029",
  "source": "pragma solidity ^0.5.0;\n\n\nimport \"./SafeMath.sol\";\n\ncontract ERC20Basic {\n  function totalSupply() public view returns (uint256);\n  function balanceOf(address _who) public view returns (uint256);\n  function transfer(address _to, uint256 _value) public returns (bool);\n  event Transfer(address indexed from, address indexed to, uint256 value);\n}\n\ncontract BasicToken is ERC20Basic {\n  using SafeMath for uint256;\n\n  mapping(address => uint256) internal balances;\n\n  uint256 internal totalSupply_;\n\n  /**\n  * @dev Total number of tokens in existence\n  */\n  function totalSupply() public view returns (uint256) {\n    return totalSupply_;\n  }\n\n  /**\n  * @dev Transfer token for a specified address\n  * @param _to The address to transfer to.\n  * @param _value The amount to be transferred.\n  */\n  function transfer(address _to, uint256 _value) public returns (bool) {\n    require(_value <= balances[msg.sender],\"Insufficient Balance\");\n    require(_to != address(0),\"Invalid Address\");\n\n    balances[msg.sender] = balances[msg.sender].sub(_value);\n    balances[_to] = balances[_to].add(_value);\n    emit Transfer(msg.sender, _to, _value);\n    return true;\n  }\n\n  /**\n  * @dev Gets the balance of the specified address.\n  * @param _owner The address to query the the balance of.\n  * @return An uint256 representing the amount owned by the passed address.\n  */\n  function balanceOf(address _owner) public view returns (uint256) {\n    return balances[_owner];\n  }\n\n}\n\ncontract BurnableToken is BasicToken {\n\n  event Burn(address indexed burner, uint256 value);\n\n  /**\n   * @dev Burns a specific amount of tokens.\n   * @param _value The amount of token to be burned.\n   */\n  function burn(uint256 _value) public {\n    _burn(msg.sender, _value);\n  }\n\n  function _burn(address _who, uint256 _value) internal {\n    require(_value <= balances[_who],\"Insufficient Balance\");\n    // no need to require value <= totalSupply, since that would imply the\n    // sender's balance is greater than the totalSupply, which *should* be an assertion failure\n\n    balances[_who] = balances[_who].sub(_value);\n    totalSupply_ = totalSupply_.sub(_value);\n    emit Burn(_who, _value);\n    emit Transfer(_who, address(0), _value);\n  }\n}\n\ncontract ERC20 is ERC20Basic {\n  function allowance(address _owner, address _spender)\n    public view returns (uint256);\n\n  function transferFrom(address _from, address _to, uint256 _value)\n    public returns (bool);\n\n  function approve(address _spender, uint256 _value) public returns (bool);\n  event Approval(\n    address indexed owner,\n    address indexed spender,\n    uint256 value\n  );\n}\n\ncontract DetailedERC20 is ERC20 {\n  string public name;\n  string public symbol;\n  uint8 public decimals;\n\n  constructor(string memory _name, string memory _symbol, uint8 _decimals) public {\n    name = _name;\n    symbol = _symbol;\n    decimals = _decimals;\n  }\n}\n\ncontract Ownable {\n  address public owner;\n\n\n  event OwnershipRenounced(address indexed previousOwner);\n  event OwnershipTransferred(\n    address indexed previousOwner,\n    address indexed newOwner\n  );\n\n\n  /**\n   * @dev The Ownable constructor sets the original `owner` of the contract to the sender\n   * account.\n   */\n  constructor() public {\n    owner = msg.sender;\n  }\n\n  /**\n   * @dev Throws if called by any account other than the owner.\n   */\n  modifier onlyOwner() {\n    require(msg.sender == owner,\"Sender is not authorised\");\n    _;\n  }\n\n  /**\n   * @dev Allows the current owner to relinquish control of the contract.\n   * @notice Renouncing to ownership will leave the contract without an owner.\n   * It will not be possible to call the functions with the `onlyOwner`\n   * modifier anymore.\n   */\n  function renounceOwnership() public onlyOwner {\n    emit OwnershipRenounced(owner);\n    owner = address(0);\n  }\n\n  /**\n   * @dev Allows the current owner to transfer control of the contract to a newOwner.\n   * @param _newOwner The address to transfer ownership to.\n   */\n  function transferOwnership(address _newOwner) public onlyOwner {\n    _transferOwnership(_newOwner);\n  }\n\n  /**\n   * @dev Transfers control of the contract to a newOwner.\n   * @param _newOwner The address to transfer ownership to.\n   */\n  function _transferOwnership(address _newOwner) internal {\n    require(_newOwner != address(0),\"Address Should be valid\");\n    emit OwnershipTransferred(owner, _newOwner);\n    owner = _newOwner;\n  }\n}\n\n// library SafeMath {\n\n//   /**\n//   * @dev Multiplies two numbers, throws on overflow.\n//   */\n//   function mul(uint256 _a, uint256 _b) internal pure returns (uint256 c) {\n//     // Gas optimization: this is cheaper than asserting 'a' not being zero, but the\n//     // benefit is lost if 'b' is also tested.\n//     // See: https://github.com/OpenZeppelin/openzeppelin-solidity/pull/522\n//     if (_a == 0) {\n//       return 0;\n//     }\n\n//     c = _a * _b;\n//     assert(c / _a == _b);\n//     return c;\n//   }\n\n//   /**\n//   * @dev Integer division of two numbers, truncating the quotient.\n//   */\n//   function div(uint256 _a, uint256 _b) internal pure returns (uint256) {\n//     // assert(_b > 0); // Solidity automatically throws when dividing by 0\n//     // uint256 c = _a / _b;\n//     // assert(_a == _b * c + _a % _b); // There is no case in which this doesn't hold\n//     return _a / _b;\n//   }\n\n//   /**\n//   * @dev Subtracts two numbers, throws on overflow (i.e. if subtrahend is greater than minuend).\n//   */\n//   function sub(uint256 _a, uint256 _b) internal pure returns (uint256) {\n//     assert(_b <= _a);\n//     return _a - _b;\n//   }\n\n//   /**\n//   * @dev Adds two numbers, throws on overflow.\n//   */\n//   function add(uint256 _a, uint256 _b) internal pure returns (uint256 c) {\n//     c = _a + _b;\n//     assert(c >= _a);\n//     return c;\n//   }\n// }\n\ncontract StandardToken is ERC20, BasicToken {\n\n  mapping (address => mapping (address => uint256)) internal allowed;\n\n\n  /**\n   * @dev Transfer tokens from one address to another\n   * @param _from address The address which you want to send tokens from\n   * @param _to address The address which you want to transfer to\n   * @param _value uint256 the amount of tokens to be transferred\n   */\n  function transferFrom(\n    address _from,\n    address _to,\n    uint256 _value\n  )\n    public\n    returns (bool)\n  {\n    require(_value <= balances[_from],\"Insufficient Balance\");\n    require(_value <= allowed[_from][msg.sender],\"Unauthorized to transfer\");\n    require(_to != address(0),\"Should be a valid address\");\n\n    balances[_from] = balances[_from].sub(_value);\n    balances[_to] = balances[_to].add(_value);\n    allowed[_from][msg.sender] = allowed[_from][msg.sender].sub(_value);\n    emit Transfer(_from, _to, _value);\n    return true;\n  }\n\n  /**\n   * @dev Approve the passed address to spend the specified amount of tokens on behalf of msg.sender.\n   * Beware that changing an allowance with this method brings the risk that someone may use both the old\n   * and the new allowance by unfortunate transaction ordering. One possible solution to mitigate this\n   * race condition is to first reduce the spender's allowance to 0 and set the desired value afterwards:\n   * https://github.com/ethereum/EIPs/issues/20#issuecomment-263524729\n   * @param _spender The address which will spend the funds.\n   * @param _value The amount of tokens to be spent.\n   */\n  function approve(address _spender, uint256 _value) public returns (bool) {\n    allowed[msg.sender][_spender] = _value;\n    emit Approval(msg.sender, _spender, _value);\n    return true;\n  }\n\n  /**\n   * @dev Function to check the amount of tokens that an owner allowed to a spender.\n   * @param _owner address The address which owns the funds.\n   * @param _spender address The address which will spend the funds.\n   * @return A uint256 specifying the amount of tokens still available for the spender.\n   */\n  function allowance(\n    address _owner,\n    address _spender\n   )\n    public\n    view\n    returns (uint256)\n  {\n    return allowed[_owner][_spender];\n  }\n\n  /**\n   * @dev Increase the amount of tokens that an owner allowed to a spender.\n   * approve should be called when allowed[_spender] == 0. To increment\n   * allowed value is better to use this function to avoid 2 calls (and wait until\n   * the first transaction is mined)\n   * From MonolithDAO Token.sol\n   * @param _spender The address which will spend the funds.\n   * @param _addedValue The amount of tokens to increase the allowance by.\n   */\n  function increaseApproval(\n    address _spender,\n    uint256 _addedValue\n  )\n    public\n    returns (bool)\n  {\n    allowed[msg.sender][_spender] = (\n      allowed[msg.sender][_spender].add(_addedValue));\n    emit Approval(msg.sender, _spender, allowed[msg.sender][_spender]);\n    return true;\n  }\n\n  /**\n   * @dev Decrease the amount of tokens that an owner allowed to a spender.\n   * approve should be called when allowed[_spender] == 0. To decrement\n   * allowed value is better to use this function to avoid 2 calls (and wait until\n   * the first transaction is mined)\n   * From MonolithDAO Token.sol\n   * @param _spender The address which will spend the funds.\n   * @param _subtractedValue The amount of tokens to decrease the allowance by.\n   */\n  function decreaseApproval(\n    address _spender,\n    uint256 _subtractedValue\n  )\n    public\n    returns (bool)\n  {\n    uint256 oldValue = allowed[msg.sender][_spender];\n    if (_subtractedValue >= oldValue) {\n      allowed[msg.sender][_spender] = 0;\n    } else {\n      allowed[msg.sender][_spender] = oldValue.sub(_subtractedValue);\n    }\n    emit Approval(msg.sender, _spender, allowed[msg.sender][_spender]);\n    return true;\n  }\n\n}\n\ncontract MintableToken is StandardToken, Ownable {\n  event Mint(address indexed to, uint256 amount);\n  event MintFinished();\n\n  bool public mintingFinished = false;\n\n\n  modifier canMint() {\n    require(!mintingFinished,\"Minting is Finished\");\n    _;\n  }\n\n  /**\n   * @dev Function to mint tokens\n   * @param _to The address that will receive the minted tokens.\n   * @param _amount The amount of tokens to mint.\n   * @return A boolean that indicates if the operation was successful.\n   */\n  function mint(\n    address _to,\n    uint256 _amount\n  )\n    internal\n    canMint\n    returns (bool)\n  {\n    totalSupply_ = totalSupply_.add(_amount);\n    balances[_to] = balances[_to].add(_amount);\n    emit Mint(_to, _amount);\n    emit Transfer(address(0), _to, _amount);\n    return true;\n  }\n\n  /**\n   * @dev Function to stop minting new tokens.\n   * @return True if the operation was successful.\n   */\n  function finishMinting() public onlyOwner canMint returns (bool) {\n    mintingFinished = true;\n    emit MintFinished();\n    return true;\n  }\n}\n\ncontract CappedToken is MintableToken {\n\n  uint256 public cap;\n\n  constructor(uint256 _cap) public {\n    require(_cap > 0,\"Cap cannot be zero\");\n    cap = _cap;\n  }\n\n  /**\n   * @dev Function to mint tokens\n   * @param _to The address that will receive the minted tokens.\n   * @param _amount The amount of tokens to mint.\n   * @return A boolean that indicates if the operation was successful.\n   */\n  function mint(\n    address _to,\n    uint256 _amount\n  )\n    internal\n    returns (bool)\n  {\n    require(totalSupply_.add(_amount) <= cap,\"Amount minted should be within cap\");\n\n    return super.mint(_to, _amount);\n  }\n\n}\n\ncontract EraswapERC20 is DetailedERC20, BurnableToken, CappedToken {\n\n  /**\n  * @dev Constructor\n  */\n\n  constructor() DetailedERC20(\"Eraswap\", \"EST\", 18) public CappedToken(9100000000000000000000000000)  {\n    mint(msg.sender, 910000000000000000000000000);\n  }\n\n}\n\ncontract NRTManager is Ownable, EraswapERC20{\n\n  using SafeMath for uint256;\n\n  uint256 public LastNRTRelease;              // variable to store last release date\n  uint256 public MonthlyNRTAmount;            // variable to store Monthly NRT amount to be released\n  uint256 public AnnualNRTAmount;             // variable to store Annual NRT amount to be released\n  uint256 public MonthCount;                  // variable to store the count of months from the intial date\n  uint256 public luckPoolBal;                 // Luckpool Balance\n  uint256 public burnTokenBal;                // tokens to be burned\n\n  // different pool address\n  address public newTalentsAndPartnerships;\n  address public platformMaintenance;\n  address public marketingAndRNR;\n  address public kmPards;\n  address public contingencyFunds;\n  address public researchAndDevelopment;\n  address public buzzCafe;\n  address public timeSwappers;                 // which include powerToken , curators ,timeTraders , daySwappers\n  address public TimeAlly;                     //address of TimeAlly Contract\n\n  uint256 public newTalentsAndPartnershipsBal; // variable to store last NRT released to the address;\n  uint256 public platformMaintenanceBal;       // variable to store last NRT released to the address;\n  uint256 public marketingAndRNRBal;           // variable to store last NRT released to the address;\n  uint256 public kmPardsBal;                   // variable to store last NRT released to the address;\n  uint256 public contingencyFundsBal;          // variable to store last NRT released to the address;\n  uint256 public researchAndDevelopmentBal;    // variable to store last NRT released to the address;\n  uint256 public buzzCafeNRT;                  // variable to store last NRT released to the address;\n  uint256 public TimeAllyNRT;                   // variable to store last NRT released to the address;\n  uint256 public timeSwappersNRT;              // variable to store last NRT released to the address;\n\n\n    // Event to watch NRT distribution\n    // @param NRTReleased The amount of NRT released in the month\n    event NRTDistributed(uint256 NRTReleased);\n\n    /**\n    * Event to watch Transfer of NRT to different Pool\n    * @param pool - The pool name\n    * @param sendAddress - The address of pool\n    * @param value - The value of NRT released\n    **/\n    event NRTTransfer(string pool, address sendAddress, uint256 value);\n\n\n    // Event to watch Tokens Burned\n    // @param amount The amount burned\n    event TokensBurned(uint256 amount);\n\n\n\n    /**\n    * @dev Should burn tokens according to the total circulation\n    * @return true if success\n    */\n\n    function burnTokens() internal returns (bool){\n      if(burnTokenBal == 0){\n        return true;\n      }\n      else{\n        uint MaxAmount = ((totalSupply()).mul(2)).div(100);   // max amount permitted to burn in a month\n        if(MaxAmount >= burnTokenBal ){\n          burn(burnTokenBal);\n          burnTokenBal = 0;\n        }\n        else{\n          burnTokenBal = burnTokenBal.sub(MaxAmount);\n          burn(MaxAmount);\n        }\n        return true;\n      }\n    }\n\n    /**\n    * @dev To invoke monthly release\n    * @return true if success\n    */\n\n    function MonthlyNRTRelease() external returns (bool) {\n      require(now.sub(LastNRTRelease)> 2592000,\"NRT release happens once every month\");\n      uint256 NRTBal = MonthlyNRTAmount.add(luckPoolBal);        // Total NRT available.\n\n      // Calculating NRT to be released to each of the pools\n      newTalentsAndPartnershipsBal = (NRTBal.mul(5)).div(100);\n      platformMaintenanceBal = (NRTBal.mul(10)).div(100);\n      marketingAndRNRBal = (NRTBal.mul(10)).div(100);\n      kmPardsBal = (NRTBal.mul(10)).div(100);\n      contingencyFundsBal = (NRTBal.mul(10)).div(100);\n      researchAndDevelopmentBal = (NRTBal.mul(5)).div(100);\n      buzzCafeNRT = (NRTBal.mul(25)).div(1000);\n      TimeAllyNRT = (NRTBal.mul(15)).div(100);\n      timeSwappersNRT = (NRTBal.mul(325)).div(1000);\n\n      // sending tokens to respective wallets and emitting events\n      mint(newTalentsAndPartnerships,newTalentsAndPartnershipsBal);\n      emit NRTTransfer(\"newTalentsAndPartnerships\", newTalentsAndPartnerships, newTalentsAndPartnershipsBal);\n      mint(platformMaintenance,platformMaintenanceBal);\n      emit NRTTransfer(\"platformMaintenance\", platformMaintenance, platformMaintenanceBal);\n      mint(marketingAndRNR,marketingAndRNRBal);\n      emit NRTTransfer(\"marketingAndRNR\", marketingAndRNR, marketingAndRNRBal);\n      mint(kmPards,kmPardsBal);\n      emit NRTTransfer(\"kmPards\", kmPards, kmPardsBal);\n      mint(contingencyFunds,contingencyFundsBal);\n      emit NRTTransfer(\"contingencyFunds\", contingencyFunds, contingencyFundsBal);\n      mint(researchAndDevelopment,researchAndDevelopmentBal);\n      emit NRTTransfer(\"researchAndDevelopment\", researchAndDevelopment, researchAndDevelopmentBal);\n      mint(buzzCafe,buzzCafeNRT);\n      emit NRTTransfer(\"buzzCafe\", buzzCafe, buzzCafeNRT);\n      mint(TimeAlly,TimeAllyNRT);\n      emit NRTTransfer(\"stakingContract\", TimeAlly, TimeAllyNRT);\n      mint(timeSwappers,timeSwappersNRT);\n      emit NRTTransfer(\"timeSwappers\", timeSwappers, timeSwappersNRT);\n\n      // Reseting NRT\n      emit NRTDistributed(NRTBal);\n      luckPoolBal = 0;\n      LastNRTRelease = LastNRTRelease.add(30 days); // resetting release date again\n      burnTokens();                                 // burning burnTokenBal\n      emit TokensBurned(burnTokenBal);\n\n\n      if(MonthCount == 11){\n        MonthCount = 0;\n        AnnualNRTAmount = (AnnualNRTAmount.mul(9)).div(10);\n        MonthlyNRTAmount = MonthlyNRTAmount.div(12);\n      }\n      else{\n        MonthCount = MonthCount.add(1);\n      }\n      return true;\n    }\n\n\n  /**\n  * @dev Constructor\n  */\n\n  constructor() public{\n    LastNRTRelease = now;\n    AnnualNRTAmount = 819000000000000000000000000;\n    MonthlyNRTAmount = AnnualNRTAmount.div(uint256(12));\n    MonthCount = 0;\n  }\n\n}\n\ncontract PausableEraswap is NRTManager {\n\n  /**\n   * @dev Modifier to make a function callable only when the contract is not paused.\n   */\n  modifier whenNotPaused() {\n    require((now.sub(LastNRTRelease))< 2592000,\"NRT is currently paused\");\n    _;\n  }\n\n\n  function transfer(\n    address _to,\n    uint256 _value\n  )\n    public\n    whenNotPaused\n    returns (bool)\n  {\n    return super.transfer(_to, _value);\n  }\n\n  function transferFrom(\n    address _from,\n    address _to,\n    uint256 _value\n  )\n    public\n    whenNotPaused\n    returns (bool)\n  {\n    return super.transferFrom(_from, _to, _value);\n  }\n\n  function approve(\n    address _spender,\n    uint256 _value\n  )\n    public\n    whenNotPaused\n    returns (bool)\n  {\n    return super.approve(_spender, _value);\n  }\n\n  function increaseApproval(\n    address _spender,\n    uint _addedValue\n  )\n    public\n    whenNotPaused\n    returns (bool success)\n  {\n    return super.increaseApproval(_spender, _addedValue);\n  }\n\n  function decreaseApproval(\n    address _spender,\n    uint _subtractedValue\n  )\n    public\n    whenNotPaused\n    returns (bool success)\n  {\n    return super.decreaseApproval(_spender, _subtractedValue);\n  }\n}\n\ncontract EraswapToken is PausableEraswap {\n\n\n    /**\n    * Event to watch the addition of pool address\n    * @param pool - The pool name\n    * @param sendAddress - The address of pool\n    **/\n    event PoolAddressAdded(string pool, address sendAddress);\n\n    // Event to watch LuckPool Updation\n    // @param luckPoolBal The current luckPoolBal\n    event LuckPoolUpdated(uint256 luckPoolBal);\n\n    // Event to watch BurnTokenBal Updation\n    // @param burnTokenBal The current burnTokenBal\n    event BurnTokenBalUpdated(uint256 burnTokenBal);\n\n    /**\n    * @dev Throws if caller is not TimeAlly\n    */\n    modifier OnlyTimeAlly() {\n      require(msg.sender == TimeAlly,\"Only TimeAlly is authorised\");\n      _;\n    }\n\n\n    /**\n    * @dev To update pool addresses\n    * @param  pool - A List of pool addresses\n    * Updates if pool address is not already set and if given address is not zero\n    * @return true if success\n    */\n\n    function UpdateAddresses (address[9] calldata  pool) external onlyOwner  returns(bool){\n\n      if((pool[0] != address(0)) && (newTalentsAndPartnerships == address(0))){\n        newTalentsAndPartnerships = pool[0];\n        emit PoolAddressAdded( \"NewTalentsAndPartnerships\", newTalentsAndPartnerships);\n      }\n      if((pool[1] != address(0)) && (platformMaintenance == address(0))){\n        platformMaintenance = pool[1];\n        emit PoolAddressAdded( \"PlatformMaintenance\", platformMaintenance);\n      }\n      if((pool[2] != address(0)) && (marketingAndRNR == address(0))){\n        marketingAndRNR = pool[2];\n        emit PoolAddressAdded( \"MarketingAndRNR\", marketingAndRNR);\n      }\n      if((pool[3] != address(0)) && (kmPards == address(0))){\n        kmPards = pool[3];\n        emit PoolAddressAdded( \"KmPards\", kmPards);\n      }\n      if((pool[4] != address(0)) && (contingencyFunds == address(0))){\n        contingencyFunds = pool[4];\n        emit PoolAddressAdded( \"ContingencyFunds\", contingencyFunds);\n      }\n      if((pool[5] != address(0)) && (researchAndDevelopment == address(0))){\n        researchAndDevelopment = pool[5];\n        emit PoolAddressAdded( \"ResearchAndDevelopment\", researchAndDevelopment);\n      }\n      if((pool[6] != address(0)) && (buzzCafe == address(0))){\n        buzzCafe = pool[6];\n        emit PoolAddressAdded( \"BuzzCafe\", buzzCafe);\n      }\n      if((pool[7] != address(0)) && (timeSwappers == address(0))){\n        timeSwappers = pool[7];\n        emit PoolAddressAdded( \"TimeSwapper\", timeSwappers);\n      }\n      if((pool[8] != address(0)) && (TimeAlly == address(0))){\n        TimeAlly = pool[8];\n        emit PoolAddressAdded( \"TimeAlly\", TimeAlly);\n      }\n\n      return true;\n    }\n\n\n    /**\n    * @dev Function to update luckpool balance\n    * @param amount Amount to be updated\n    */\n    function UpdateLuckpool(uint256 amount) external OnlyTimeAlly  returns(bool){\n      require(transferFrom(msg.sender,address(this), amount),\"Amount should be successfully transfered\");\n      luckPoolBal = luckPoolBal.add(amount);\n      emit LuckPoolUpdated(luckPoolBal);\n      return true;\n    }\n\n    /**\n    * @dev Function to trigger to update  for burning of tokens\n    * @param amount Amount to be updated\n    */\n    function UpdateBurnBal(uint256 amount) external OnlyTimeAlly  returns(bool){\n      require(transferFrom(msg.sender,address(this), amount),\"Amount should be successfully transfered\");\n      burnTokenBal = burnTokenBal.add(amount);\n      emit BurnTokenBalUpdated(burnTokenBal);\n      return true;\n    }\n\n    /**\n    * @dev Function to trigger balance update of a list of users\n    * @param TokenTransferList - List of user addresses\n    * @param TokenTransferBalance - Amount of token to be sent\n    */\n    function UpdateBalance(address[100] calldata TokenTransferList, uint256[100] calldata TokenTransferBalance) external OnlyTimeAlly  returns(bool){\n        uint256 i = 0;\n        while( i < TokenTransferList.length) {\n        require(transferFrom(msg.sender, TokenTransferList[i], TokenTransferBalance[i]),\"Amount should be successfully transfered\");\n        i++;\n        }\n      return true;\n    }\n}\n",
  "sourcePath": "/home/osiz/Desktop/Truffle/contracts/EraswapToken.sol",
  "compiler": {
    "name": "solc",
    "version": "0.5.0+commit.1d4f565a.Emscripten.clang"
  },
  "schemaVersion": "3.0.6",
  "updatedAt": "2019-05-07T06:15:54.704Z",
  "devdoc": {
    "methods": {
      "MonthlyNRTRelease()": {
        "details": "To invoke monthly release",
        "return": "true if success"
      },
      "UpdateAddresses(address[9])": {
        "details": "To update pool addresses",
        "params": {
          "pool": "- A List of pool addresses Updates if pool address is not already set and if given address is not zero"
        },
        "return": "true if success"
      },
      "UpdateBalance(address[100],uint256[100])": {
        "details": "Function to trigger balance update of a list of users",
        "params": {
          "TokenTransferBalance": "- Amount of token to be sent",
          "TokenTransferList": "- List of user addresses"
        }
      },
      "UpdateBurnBal(uint256)": {
        "details": "Function to trigger to update  for burning of tokens",
        "params": {
          "amount": "Amount to be updated"
        }
      },
      "UpdateLuckpool(uint256)": {
        "details": "Function to update luckpool balance",
        "params": {
          "amount": "Amount to be updated"
        }
      },
      "allowance(address,address)": {
        "details": "Function to check the amount of tokens that an owner allowed to a spender.",
        "params": {
          "_owner": "address The address which owns the funds.",
          "_spender": "address The address which will spend the funds."
        },
        "return": "A uint256 specifying the amount of tokens still available for the spender."
      },
      "balanceOf(address)": {
        "details": "Gets the balance of the specified address.",
        "params": {
          "_owner": "The address to query the the balance of."
        },
        "return": "An uint256 representing the amount owned by the passed address."
      },
      "burn(uint256)": {
        "details": "Burns a specific amount of tokens.",
        "params": {
          "_value": "The amount of token to be burned."
        }
      },
      "finishMinting()": {
        "details": "Function to stop minting new tokens.",
        "return": "True if the operation was successful."
      },
      "renounceOwnership()": {
        "details": "Allows the current owner to relinquish control of the contract."
      },
      "totalSupply()": {
        "details": "Total number of tokens in existence"
      },
      "transferOwnership(address)": {
        "details": "Allows the current owner to transfer control of the contract to a newOwner.",
        "params": {
          "_newOwner": "The address to transfer ownership to."
        }
      }
    }
  },
  "userdoc": {
    "methods": {
      "renounceOwnership()": {
        "notice": "Renouncing to ownership will leave the contract without an owner. It will not be possible to call the functions with the `onlyOwner` modifier anymore."
      }
    }
  }
}