{
  "contractName": "LoanAndRefund",
  "abi": [
    {
      "constant": true,
      "inputs": [
        {
          "name": "",
          "type": "uint256"
        }
      ],
      "name": "RefundList",
      "outputs": [
        {
          "name": "",
          "type": "uint256"
        }
      ],
      "payable": false,
      "stateMutability": "view",
      "type": "function"
    },
    {
      "constant": true,
      "inputs": [
        {
          "name": "",
          "type": "uint256"
        }
      ],
      "name": "Loans",
      "outputs": [
        {
          "name": "LoanAmount",
          "type": "uint128"
        },
        {
          "name": "LoanPeriod",
          "type": "uint32"
        },
        {
          "name": "loanStartTime",
          "type": "uint32"
        },
        {
          "name": "LoanListIndex",
          "type": "uint32"
        }
      ],
      "payable": false,
      "stateMutability": "view",
      "type": "function"
    },
    {
      "constant": true,
      "inputs": [
        {
          "name": "",
          "type": "uint256"
        }
      ],
      "name": "LoanList",
      "outputs": [
        {
          "name": "",
          "type": "uint256"
        }
      ],
      "payable": false,
      "stateMutability": "view",
      "type": "function"
    },
    {
      "constant": true,
      "inputs": [
        {
          "name": "",
          "type": "uint256"
        }
      ],
      "name": "Refunds",
      "outputs": [
        {
          "name": "RefundWeeks",
          "type": "uint32"
        },
        {
          "name": "Refundcount",
          "type": "uint32"
        },
        {
          "name": "RefundListIndex",
          "type": "uint32"
        },
        {
          "name": "RefundAmount",
          "type": "uint64"
        }
      ],
      "payable": false,
      "stateMutability": "view",
      "type": "function"
    },
    {
      "inputs": [
        {
          "name": "timeally",
          "type": "address"
        }
      ],
      "payable": false,
      "stateMutability": "nonpayable",
      "type": "constructor"
    },
    {
      "anonymous": false,
      "inputs": [
        {
          "indexed": false,
          "name": "contractid",
          "type": "uint256"
        },
        {
          "indexed": false,
          "name": "count",
          "type": "uint256"
        },
        {
          "indexed": false,
          "name": "amount",
          "type": "uint256"
        }
      ],
      "name": "RefundInitiated",
      "type": "event"
    },
    {
      "anonymous": false,
      "inputs": [
        {
          "indexed": false,
          "name": "contractid",
          "type": "uint256"
        }
      ],
      "name": "RefundEnded",
      "type": "event"
    },
    {
      "anonymous": false,
      "inputs": [
        {
          "indexed": false,
          "name": "contractid",
          "type": "uint256"
        }
      ],
      "name": "LoanDefaulted",
      "type": "event"
    },
    {
      "constant": true,
      "inputs": [
        {
          "name": "contractID",
          "type": "uint256"
        }
      ],
      "name": "ViewLoan",
      "outputs": [
        {
          "name": "",
          "type": "uint256"
        },
        {
          "name": "",
          "type": "uint256"
        },
        {
          "name": "",
          "type": "uint256"
        }
      ],
      "payable": false,
      "stateMutability": "view",
      "type": "function"
    },
    {
      "constant": true,
      "inputs": [
        {
          "name": "contractID",
          "type": "uint256"
        }
      ],
      "name": "ViewRefund",
      "outputs": [
        {
          "name": "",
          "type": "uint256"
        },
        {
          "name": "",
          "type": "uint256"
        },
        {
          "name": "",
          "type": "uint256"
        }
      ],
      "payable": false,
      "stateMutability": "view",
      "type": "function"
    },
    {
      "constant": false,
      "inputs": [
        {
          "name": "contractID",
          "type": "uint256"
        },
        {
          "name": "loanperiod",
          "type": "uint32"
        },
        {
          "name": "loanamount",
          "type": "uint128"
        }
      ],
      "name": "AddLoan",
      "outputs": [
        {
          "name": "",
          "type": "bool"
        }
      ],
      "payable": false,
      "stateMutability": "nonpayable",
      "type": "function"
    },
    {
      "constant": false,
      "inputs": [
        {
          "name": "contractID",
          "type": "uint256"
        }
      ],
      "name": "RemoveLoan",
      "outputs": [
        {
          "name": "",
          "type": "bool"
        }
      ],
      "payable": false,
      "stateMutability": "nonpayable",
      "type": "function"
    },
    {
      "constant": false,
      "inputs": [
        {
          "name": "contractID",
          "type": "uint256"
        },
        {
          "name": "refundWeeks",
          "type": "uint32"
        },
        {
          "name": "refundcount",
          "type": "uint32"
        },
        {
          "name": "refundamount",
          "type": "uint64"
        }
      ],
      "name": "AddRefund",
      "outputs": [
        {
          "name": "",
          "type": "bool"
        }
      ],
      "payable": false,
      "stateMutability": "nonpayable",
      "type": "function"
    },
    {
      "constant": false,
      "inputs": [],
      "name": "MonthlyRefundHandler",
      "outputs": [
        {
          "name": "",
          "type": "uint256[]"
        }
      ],
      "payable": false,
      "stateMutability": "nonpayable",
      "type": "function"
    },
    {
      "constant": false,
      "inputs": [],
      "name": "MonthlyLoanHandler",
      "outputs": [
        {
          "name": "",
          "type": "uint256[]"
        }
      ],
      "payable": false,
      "stateMutability": "nonpayable",
      "type": "function"
    }
  ],
  "bytecode": "0x608060405234801561001057600080fd5b506040516020806118548339810180604052602081101561003057600080fd5b810190808051906020019092919050505080600460006101000a81548173ffffffffffffffffffffffffffffffffffffffff021916908373ffffffffffffffffffffffffffffffffffffffff160217905550506117c2806100926000396000f3fe6080604052600436106100af576000357c0100000000000000000000000000000000000000000000000000000000900463ffffffff168063042eae5e146100b4578063167cb8aa1461012057806338930f071461017d57806346597208146101cc578063522b84521461023857806389b279e71461028b578063a5b6074b14610337578063cebec813146103b6578063d8d7485414610405578063e33e4b4314610462578063f4364a71146104e9575b600080fd5b3480156100c057600080fd5b506100c9610585565b6040518080602001828103825283818151815260200191508051906020019060200280838360005b8381101561010c5780820151818401526020810190506100f1565b505050509050019250505060405180910390f35b34801561012c57600080fd5b506101596004803603602081101561014357600080fd5b8101908080359060200190929190505050610831565b60405180848152602001838152602001828152602001935050505060405180910390f35b34801561018957600080fd5b506101b6600480360360208110156101a057600080fd5b8101908080359060200190929190505050610997565b6040518082815260200191505060405180910390f35b3480156101d857600080fd5b506101e16109ba565b6040518080602001828103825283818151815260200191508051906020019060200280838360005b83811015610224578082015181840152602081019050610209565b505050509050019250505060405180910390f35b34801561024457600080fd5b506102716004803603602081101561025b57600080fd5b8101908080359060200190929190505050610cd7565b604051808215151515815260200191505060405180910390f35b34801561029757600080fd5b506102c4600480360360208110156102ae57600080fd5b8101908080359060200190929190505050610dd6565b60405180856fffffffffffffffffffffffffffffffff166fffffffffffffffffffffffffffffffff1681526020018463ffffffff1663ffffffff1681526020018363ffffffff1663ffffffff1681526020018263ffffffff1663ffffffff16815260200194505050505060405180910390f35b34801561034357600080fd5b5061039c6004803603606081101561035a57600080fd5b8101908080359060200190929190803563ffffffff16906020019092919080356fffffffffffffffffffffffffffffffff169060200190929190505050610e52565b604051808215151515815260200191505060405180910390f35b3480156103c257600080fd5b506103ef600480360360208110156103d957600080fd5b81019080803590602001909291905050506110ac565b6040518082815260200191505060405180910390f35b34801561041157600080fd5b5061043e6004803603602081101561042857600080fd5b81019080803590602001909291905050506110cf565b60405180848152602001838152602001828152602001935050505060405180910390f35b34801561046e57600080fd5b506104cf6004803603608081101561048557600080fd5b8101908080359060200190929190803563ffffffff169060200190929190803563ffffffff169060200190929190803567ffffffffffffffff169060200190929190505050611242565b604051808215151515815260200191505060405180910390f35b3480156104f557600080fd5b506105226004803603602081101561050c57600080fd5b810190808035906020019092919050505061147e565b604051808563ffffffff1663ffffffff1681526020018463ffffffff1663ffffffff1681526020018363ffffffff1663ffffffff1681526020018267ffffffffffffffff1667ffffffffffffffff16815260200194505050505060405180910390f35b6060600460009054906101000a900473ffffffffffffffffffffffffffffffffffffffff1673ffffffffffffffffffffffffffffffffffffffff163373ffffffffffffffffffffffffffffffffffffffff1614151561064c576040517f08c379a00000000000000000000000000000000000000000000000000000000081526004018080602001828103825260208152602001807f4f776e65722054696d65416c6c792073686f756c642062652063616c6c696e6781525060200191505060405180910390fd5b6060610656611704565b600080905060008090505b6003805490508110156108275760011515821515141561068957808060019003915050600091505b600060038281548110151561069a57fe5b90600052602060002001549050600080828152602001908152602001600020608060405190810160405290816000820160009054906101000a90046fffffffffffffffffffffffffffffffff166fffffffffffffffffffffffffffffffff166fffffffffffffffffffffffffffffffff1681526020016000820160109054906101000a900463ffffffff1663ffffffff1663ffffffff1681526020016000820160149054906101000a900463ffffffff1663ffffffff1663ffffffff1681526020016000820160189054906101000a900463ffffffff1663ffffffff1663ffffffff16815250509350836020015163ffffffff166107ab856040015163ffffffff16426114f290919063ffffffff16565b111561081957808586518151811015156107c157fe5b90602001906020020181815250506107dc846060015161150b565b507f0789b7097e8066538cfaa1132488b132e14ba5f0c938c8b7aaf8cf40356aab0b816040518082815260200191505060405180910390a1600192505b508080600101915050610661565b5082935050505090565b6000806000600460009054906101000a900473ffffffffffffffffffffffffffffffffffffffff1673ffffffffffffffffffffffffffffffffffffffff163373ffffffffffffffffffffffffffffffffffffffff161415156108fb576040517f08c379a00000000000000000000000000000000000000000000000000000000081526004018080602001828103825260208152602001807f4f776e65722054696d65416c6c792073686f756c642062652063616c6c696e6781525060200191505060405180910390fd5b6001600085815260200190815260200160002060000160009054906101000a900463ffffffff1663ffffffff166001600086815260200190815260200160002060000160049054906101000a900463ffffffff1663ffffffff1660016000878152602001908152602001600020600001600c9054906101000a900467ffffffffffffffff1667ffffffffffffffff169250925092509193909250565b6002818154811015156109a657fe5b906000526020600020016000915090505481565b60608060006109c7611751565b600080905060008090505b600280549050811015610ccc576001151582151514156109fa57808060019003915050600091505b6000600282815481101515610a0b57fe5b9060005260206000200154905060016000828152602001908152602001600020608060405190810160405290816000820160009054906101000a900463ffffffff1663ffffffff1663ffffffff1681526020016000820160049054906101000a900463ffffffff1663ffffffff1663ffffffff1681526020016000820160089054906101000a900463ffffffff1663ffffffff1663ffffffff16815260200160008201600c9054906101000a900467ffffffffffffffff1667ffffffffffffffff1667ffffffffffffffff168152505093508094506080846060015167ffffffffffffffff169060020a0267ffffffffffffffff168517945084868751815181101515610b1457fe5b90602001906020020181815250507fe23275393c32ee6d4b10b72e5ff7c46995381da1e2e44394ed3977a6311ce61d8185602001518660600151604051808481526020018363ffffffff1681526020018267ffffffffffffffff168152602001935050505060405180910390a183602001805180919060010163ffffffff1663ffffffff1681525050836001600083815260200190815260200160002060008201518160000160006101000a81548163ffffffff021916908363ffffffff16021790555060208201518160000160046101000a81548163ffffffff021916908363ffffffff16021790555060408201518160000160086101000a81548163ffffffff021916908363ffffffff160217905550606082015181600001600c6101000a81548167ffffffffffffffff021916908367ffffffffffffffff160217905550905050836000015163ffffffff16846020015163ffffffff161415610cbe57610c818460400151611607565b507f477bfc4e57aadef7233905796ce664e856977e27ebcc57d63ac571abe59b5f15816040518082815260200191505060405180910390a1600192505b5080806001019150506109d2565b508394505050505090565b6000600460009054906101000a900473ffffffffffffffffffffffffffffffffffffffff1673ffffffffffffffffffffffffffffffffffffffff163373ffffffffffffffffffffffffffffffffffffffff16141515610d9e576040517f08c379a00000000000000000000000000000000000000000000000000000000081526004018080602001828103825260208152602001807f4f776e65722054696d65416c6c792073686f756c642062652063616c6c696e6781525060200191505060405180910390fd5b610dcc60008084815260200190815260200160002060000160189054906101000a900463ffffffff1661150b565b5060019050919050565b60006020528060005260406000206000915090508060000160009054906101000a90046fffffffffffffffffffffffffffffffff16908060000160109054906101000a900463ffffffff16908060000160149054906101000a900463ffffffff16908060000160189054906101000a900463ffffffff16905084565b6000600460009054906101000a900473ffffffffffffffffffffffffffffffffffffffff1673ffffffffffffffffffffffffffffffffffffffff163373ffffffffffffffffffffffffffffffffffffffff16141515610f19576040517f08c379a00000000000000000000000000000000000000000000000000000000081526004018080602001828103825260208152602001807f4f776e65722054696d65416c6c792073686f756c642062652063616c6c696e6781525060200191505060405180910390fd5b610f21611704565b83816020019063ffffffff16908163ffffffff16815250508281600001906fffffffffffffffffffffffffffffffff1690816fffffffffffffffffffffffffffffffff168152505042816040019063ffffffff16908163ffffffff1681525050610fbf6001600387908060018154018082558091505090600182039060005260206000200160009091929091909150556114f290919063ffffffff16565b816060019063ffffffff16908163ffffffff16815250508060008087815260200190815260200160002060008201518160000160006101000a8154816fffffffffffffffffffffffffffffffff02191690836fffffffffffffffffffffffffffffffff16021790555060208201518160000160106101000a81548163ffffffff021916908363ffffffff16021790555060408201518160000160146101000a81548163ffffffff021916908363ffffffff16021790555060608201518160000160186101000a81548163ffffffff021916908363ffffffff16021790555090505060019150509392505050565b6003818154811015156110bb57fe5b906000526020600020016000915090505481565b6000806000600460009054906101000a900473ffffffffffffffffffffffffffffffffffffffff1673ffffffffffffffffffffffffffffffffffffffff163373ffffffffffffffffffffffffffffffffffffffff16141515611199576040517f08c379a00000000000000000000000000000000000000000000000000000000081526004018080602001828103825260208152602001807f4f776e65722054696d65416c6c792073686f756c642062652063616c6c696e6781525060200191505060405180910390fd5b60008085815260200190815260200160002060000160109054906101000a900463ffffffff1663ffffffff1660008086815260200190815260200160002060000160149054906101000a900463ffffffff1663ffffffff1660008087815260200190815260200160002060000160009054906101000a90046fffffffffffffffffffffffffffffffff166fffffffffffffffffffffffffffffffff169250925092509193909250565b6000600460009054906101000a900473ffffffffffffffffffffffffffffffffffffffff1673ffffffffffffffffffffffffffffffffffffffff163373ffffffffffffffffffffffffffffffffffffffff16141515611309576040517f08c379a00000000000000000000000000000000000000000000000000000000081526004018080602001828103825260208152602001807f4f776e65722054696d65416c6c792073686f756c642062652063616c6c696e6781525060200191505060405180910390fd5b611311611751565b84816000019063ffffffff16908163ffffffff168152505083816020019063ffffffff16908163ffffffff168152505082816060019067ffffffffffffffff16908167ffffffffffffffff168152505061139f6001600288908060018154018082558091505090600182039060005260206000200160009091929091909150556114f290919063ffffffff16565b816040019063ffffffff16908163ffffffff1681525050806001600088815260200190815260200160002060008201518160000160006101000a81548163ffffffff021916908363ffffffff16021790555060208201518160000160046101000a81548163ffffffff021916908363ffffffff16021790555060408201518160000160086101000a81548163ffffffff021916908363ffffffff160217905550606082015181600001600c6101000a81548167ffffffffffffffff021916908367ffffffffffffffff1602179055509050506001915050949350505050565b60016020528060005260406000206000915090508060000160009054906101000a900463ffffffff16908060000160049054906101000a900463ffffffff16908060000160089054906101000a900463ffffffff169080600001600c9054906101000a900467ffffffffffffffff16905084565b600082821115151561150057fe5b818303905092915050565b60006003805490508263ffffffff1610151561152657600080fd5b600060016003805490500390508260008060038481548110151561154657fe5b9060005260206000200154815260200190815260200160002060000160186101000a81548163ffffffff021916908363ffffffff16021790555060038181548110151561158f57fe5b906000526020600020015460038463ffffffff168154811015156115af57fe5b90600052602060002001819055506003818154811015156115cc57fe5b9060005260206000200160009055600380548015156115e757fe5b600190038181906000526020600020016000905590556001915050919050565b60006002805490508263ffffffff1610151561162257600080fd5b60006001600280549050039050826001600060028481548110151561164357fe5b9060005260206000200154815260200190815260200160002060000160086101000a81548163ffffffff021916908363ffffffff16021790555060028181548110151561168c57fe5b906000526020600020015460028463ffffffff168154811015156116ac57fe5b90600052602060002001819055506002818154811015156116c957fe5b9060005260206000200160009055600280548015156116e457fe5b600190038181906000526020600020016000905590556001915050919050565b60806040519081016040528060006fffffffffffffffffffffffffffffffff168152602001600063ffffffff168152602001600063ffffffff168152602001600063ffffffff1681525090565b608060405190810160405280600063ffffffff168152602001600063ffffffff168152602001600063ffffffff168152602001600067ffffffffffffffff168152509056fea165627a7a72305820f0efbe7fe83ede002e8178d63850bfa40305b6e8ef04bcc8714c3ffc11f6888f0029",
  "source": "pragma solidity ^0.5.0;\nimport \"./SafeMath.sol\";\n\ncontract LoanAndRefund{\n  using SafeMath for uint256;\n\n  struct Loan {\n  uint128 LoanAmount;\n  uint32 LoanPeriod;\n  uint32 loanStartTime;\n  uint32 LoanListIndex;\n  }\n  mapping (uint256 => Loan) public Loans;\n\n  struct Refund {\n  uint32 RefundWeeks;\n  uint32 Refundcount;\n  uint32 RefundListIndex;\n   uint64 RefundAmount;\n  }\n  mapping (uint256 => Refund) public Refunds;\n\n  uint256[] public RefundList;\n  uint256[] public LoanList;\n  address TimeAlly;\n\nevent RefundInitiated(uint256 contractid, uint256 count, uint256 amount);\nevent RefundEnded(uint256 contractid);\nevent LoanDefaulted(uint256 contractid);\n\n\n   modifier OnlyTimeAlly() {\n     require(msg.sender == TimeAlly, \"Owner TimeAlly should be calling\");\n     _;\n   }\n\n   constructor(address timeally) public {\n     TimeAlly = timeally;\n   }\n\n  function ViewLoan(uint256 contractID) public OnlyTimeAlly() view returns(uint256, uint256, uint256){\n   return(uint256(Loans[contractID].LoanPeriod), uint256(Loans[contractID].loanStartTime), uint256(Loans[contractID].LoanAmount));\n  }\n\n    function ViewRefund(uint256 contractID) public OnlyTimeAlly() view returns(uint256, uint256, uint256){\n   return(uint256(Refunds[contractID].RefundWeeks), uint256(Refunds[contractID].Refundcount), uint256(Refunds[contractID].RefundAmount));\n  }\n\n  function AddLoan(uint256 contractID, uint32 loanperiod, uint128 loanamount) public OnlyTimeAlly() returns(bool) {\n    Loan memory loan;\n    loan.LoanPeriod = loanperiod;\n    loan.LoanAmount = uint128(loanamount);\n    loan.loanStartTime = uint32(now);\n    loan.LoanListIndex = uint32(LoanList.push(contractID).sub(1));\n    Loans[contractID] = loan;\n  return true;\n  }\n\n  function RemoveLoan(uint256 contractID) public OnlyTimeAlly() returns(bool) {\n  DeleteLoanListElement(Loans[contractID].LoanListIndex);\n  return true;\n  }\n\n  function AddRefund(uint256 contractID, uint32 refundWeeks, uint32 refundcount, uint64 refundamount) public OnlyTimeAlly() returns(bool) {\n  Refund memory refund;\n  refund.RefundWeeks = refundWeeks;\n  refund.Refundcount = refundcount;\n  refund.RefundAmount = refundamount;\n  refund.RefundListIndex = uint32(RefundList.push(contractID).sub(1));\n\n  Refunds[contractID] = refund;\n  return true;\n  }\n\n  function MonthlyRefundHandler() public  returns (uint[] memory){\n    uint256[] memory UserPayment;\n    uint256 character;\n    Refund memory refund;\n    bool check = false;\n    for (uint256 i = 0; i < RefundList.length; i++) {\n\n     if(check == true){\n            i--;\n            check = false;\n        }\n      uint256 contractID = RefundList[i];\n      refund = Refunds[contractID];\n      character = contractID;\n      character |= refund.RefundAmount<<128;\n      UserPayment[UserPayment.length] = character;\n      emit RefundInitiated(contractID, refund.Refundcount, refund.RefundAmount);\n      refund.Refundcount++;\n      Refunds[contractID] = refund;\n      if(refund.Refundcount == refund.RefundWeeks){\n        DeleteRefundListElement(refund.RefundListIndex);\n        emit RefundEnded(contractID);\n       check = true;\n      }\n    }\n    return(UserPayment);\n  }\n\n  function MonthlyLoanHandler() public OnlyTimeAlly() returns (uint[] memory){\n    uint256[] memory Defaultlist;\n    Loan memory loan;\n    bool check = false;\n    for (uint256 i = 0; i < LoanList.length; i++) {\n         if(check == true){\n            i--;\n            check = false;\n        }\n      uint256 contractID = LoanList[i];\n      loan = Loans[contractID];\n      if ((now.sub(loan.loanStartTime)) > loan.LoanPeriod ) {\n        Defaultlist[Defaultlist.length] = contractID;\n        DeleteLoanListElement(loan.LoanListIndex);\n        emit LoanDefaulted(contractID);\n        check = true;\n      }\n    }\n    return(Defaultlist);\n  }\n\n    function DeleteRefundListElement(uint32 index) internal returns(bool){\n      require(index < RefundList.length);\n      uint256 last = RefundList.length-1;\n      Refunds[RefundList[last]].RefundListIndex = index;\n      RefundList[index] = RefundList[last];\n      delete RefundList[last];\n      RefundList.pop();\n      return true;\n    }\n\n    function DeleteLoanListElement(uint32 index) internal returns(bool){\n      require(index < LoanList.length);\n      uint256 last = LoanList.length-1;\n      Loans[LoanList[last]].LoanListIndex = index;\n      LoanList[index] = LoanList[last];\n      delete LoanList[last];\n      LoanList.pop();\n      return true;\n    }\n\n}\n",
  "sourcePath": "/home/osiz/Desktop/Truffle/contracts/LoanAndRefund.sol",
  "compiler": {
    "name": "solc",
    "version": "0.5.0+commit.1d4f565a.Emscripten.clang"
  },
  "schemaVersion": "3.0.6",
  "updatedAt": "2019-05-07T06:15:54.308Z",
  "devdoc": {
    "methods": {}
  },
  "userdoc": {
    "methods": {}
  }
}