{
  "contractName": "Staking",
  "abi": [
    {
      "constant": true,
      "inputs": [
        {
          "name": "",
          "type": "uint256"
        }
      ],
      "name": "Stakes",
      "outputs": [
        {
          "name": "stakedAmount",
          "type": "uint128"
        },
        {
          "name": "PlanTime",
          "type": "uint32"
        },
        {
          "name": "monthcount",
          "type": "uint32"
        },
        {
          "name": "ActivePlanListIndex",
          "type": "uint32"
        }
      ],
      "payable": false,
      "stateMutability": "view",
      "type": "function"
    },
    {
      "constant": true,
      "inputs": [
        {
          "name": "",
          "type": "uint256"
        }
      ],
      "name": "Plans",
      "outputs": [
        {
          "name": "NRTBalance",
          "type": "uint128"
        },
        {
          "name": "ActivePlanAmount",
          "type": "uint128"
        },
        {
          "name": "LastPlanAmount",
          "type": "uint128"
        },
        {
          "name": "UpdateCount",
          "type": "uint128"
        }
      ],
      "payable": false,
      "stateMutability": "view",
      "type": "function"
    },
    {
      "constant": true,
      "inputs": [
        {
          "name": "",
          "type": "uint256"
        }
      ],
      "name": "Status",
      "outputs": [
        {
          "name": "",
          "type": "bool"
        }
      ],
      "payable": false,
      "stateMutability": "view",
      "type": "function"
    },
    {
      "inputs": [
        {
          "name": "timeally",
          "type": "address"
        }
      ],
      "payable": false,
      "stateMutability": "nonpayable",
      "type": "constructor"
    },
    {
      "anonymous": false,
      "inputs": [
        {
          "indexed": false,
          "name": "amount",
          "type": "uint256"
        }
      ],
      "name": "TotalPlanAmount",
      "type": "event"
    },
    {
      "anonymous": false,
      "inputs": [
        {
          "indexed": false,
          "name": "planid",
          "type": "uint256"
        },
        {
          "indexed": false,
          "name": "activeplanamount",
          "type": "uint256"
        },
        {
          "indexed": false,
          "name": "nrtbalance",
          "type": "uint256"
        }
      ],
      "name": "PlanAmountandNRT",
      "type": "event"
    },
    {
      "anonymous": false,
      "inputs": [
        {
          "indexed": false,
          "name": "contractid",
          "type": "uint256"
        },
        {
          "indexed": false,
          "name": "term",
          "type": "uint32"
        },
        {
          "indexed": false,
          "name": "amount",
          "type": "uint256"
        }
      ],
      "name": "PrincipalReleased",
      "type": "event"
    },
    {
      "anonymous": false,
      "inputs": [
        {
          "indexed": false,
          "name": "contractid",
          "type": "uint256"
        },
        {
          "indexed": false,
          "name": "month",
          "type": "uint32"
        },
        {
          "indexed": false,
          "name": "interest",
          "type": "uint256"
        }
      ],
      "name": "InterestReleased",
      "type": "event"
    },
    {
      "anonymous": false,
      "inputs": [
        {
          "indexed": false,
          "name": "planid",
          "type": "uint256"
        },
        {
          "indexed": false,
          "name": "current",
          "type": "uint256"
        },
        {
          "indexed": false,
          "name": "total",
          "type": "uint256"
        }
      ],
      "name": "PlanHandlerStatus",
      "type": "event"
    },
    {
      "constant": true,
      "inputs": [
        {
          "name": "contractID",
          "type": "uint256"
        }
      ],
      "name": "ViewStake",
      "outputs": [
        {
          "name": "",
          "type": "uint256"
        },
        {
          "name": "",
          "type": "uint256"
        },
        {
          "name": "",
          "type": "uint256"
        }
      ],
      "payable": false,
      "stateMutability": "view",
      "type": "function"
    },
    {
      "constant": true,
      "inputs": [
        {
          "name": "contractID",
          "type": "uint256"
        }
      ],
      "name": "ViewStakedAmount",
      "outputs": [
        {
          "name": "",
          "type": "uint256"
        }
      ],
      "payable": false,
      "stateMutability": "view",
      "type": "function"
    },
    {
      "constant": false,
      "inputs": [
        {
          "name": "planID",
          "type": "uint256"
        },
        {
          "name": "contractID",
          "type": "uint256"
        },
        {
          "name": "plantime",
          "type": "uint256"
        },
        {
          "name": "stakedamount",
          "type": "uint256"
        }
      ],
      "name": "AddStake",
      "outputs": [
        {
          "name": "",
          "type": "bool"
        }
      ],
      "payable": false,
      "stateMutability": "nonpayable",
      "type": "function"
    },
    {
      "constant": false,
      "inputs": [
        {
          "name": "size",
          "type": "uint256"
        },
        {
          "name": "planID",
          "type": "uint256"
        },
        {
          "name": "contractID",
          "type": "uint256"
        },
        {
          "name": "plantime",
          "type": "uint256"
        },
        {
          "name": "stakedamount",
          "type": "uint256[]"
        }
      ],
      "name": "BatchAddStake",
      "outputs": [
        {
          "name": "",
          "type": "bool"
        }
      ],
      "payable": false,
      "stateMutability": "nonpayable",
      "type": "function"
    },
    {
      "constant": false,
      "inputs": [
        {
          "name": "planID",
          "type": "uint256"
        },
        {
          "name": "contractID",
          "type": "uint256"
        }
      ],
      "name": "Pause",
      "outputs": [
        {
          "name": "",
          "type": "bool"
        }
      ],
      "payable": false,
      "stateMutability": "nonpayable",
      "type": "function"
    },
    {
      "constant": false,
      "inputs": [
        {
          "name": "planID",
          "type": "uint256"
        },
        {
          "name": "contractID",
          "type": "uint256"
        }
      ],
      "name": "Resume",
      "outputs": [
        {
          "name": "",
          "type": "bool"
        }
      ],
      "payable": false,
      "stateMutability": "nonpayable",
      "type": "function"
    },
    {
      "constant": false,
      "inputs": [
        {
          "name": "NRT",
          "type": "uint256"
        },
        {
          "name": "planID",
          "type": "uint256"
        }
      ],
      "name": "MonthlyNRTHandler",
      "outputs": [
        {
          "name": "",
          "type": "uint256"
        }
      ],
      "payable": false,
      "stateMutability": "nonpayable",
      "type": "function"
    },
    {
      "constant": false,
      "inputs": [
        {
          "name": "planID",
          "type": "uint256"
        },
        {
          "name": "size",
          "type": "uint256"
        }
      ],
      "name": "MonthlyPlanHandler",
      "outputs": [
        {
          "name": "",
          "type": "uint256[]"
        },
        {
          "name": "",
          "type": "bool"
        }
      ],
      "payable": false,
      "stateMutability": "nonpayable",
      "type": "function"
    }
  ],
  "bytecode": "0x608060405234801561001057600080fd5b50604051602080612a7c8339810180604052602081101561003057600080fd5b810190808051906020019092919050505080600360006101000a81548173ffffffffffffffffffffffffffffffffffffffff021916908373ffffffffffffffffffffffffffffffffffffffff160217905550506129ea806100926000396000f3fe6080604052600436106100af576000357c0100000000000000000000000000000000000000000000000000000000900463ffffffff16806315fecf7a146100b457806316d4c01614610111578063270d2cbd1461018257806331112aa7146101db57806334c76397146102e0578063395713d71461038c5780635696866c146104805780635b56fd22146104dd57806388253bf11461053a578063c4dfb4b014610589578063d41f82ed146105dc575b600080fd5b3480156100c057600080fd5b506100f7600480360360408110156100d757600080fd5b810190808035906020019092919080359060200190929190505050610681565b604051808215151515815260200191505060405180910390f35b34801561011d57600080fd5b506101686004803603608081101561013457600080fd5b810190808035906020019092919080359060200190929190803590602001909291908035906020019092919050505061091c565b604051808215151515815260200191505060405180910390f35b34801561018e57600080fd5b506101c5600480360360408110156101a557600080fd5b810190808035906020019092919080359060200190929190505050610c95565b6040518082815260200191505060405180910390f35b3480156101e757600080fd5b506102c6600480360360a08110156101fe57600080fd5b81019080803590602001909291908035906020019092919080359060200190929190803590602001909291908035906020019064010000000081111561024357600080fd5b82018360208201111561025557600080fd5b8035906020019184602083028401116401000000008311171561027757600080fd5b919080806020026020016040519081016040528093929190818152602001838360200280828437600081840152601f19601f8201169050808301925050505050505091929192905050506112c5565b604051808215151515815260200191505060405180910390f35b3480156102ec57600080fd5b506103196004803603602081101561030357600080fd5b81019080803590602001909291905050506113e5565b60405180856fffffffffffffffffffffffffffffffff166fffffffffffffffffffffffffffffffff1681526020018463ffffffff1663ffffffff1681526020018363ffffffff1663ffffffff1681526020018263ffffffff1663ffffffff16815260200194505050505060405180910390f35b34801561039857600080fd5b506103c5600480360360208110156103af57600080fd5b8101908080359060200190929190505050611461565b60405180856fffffffffffffffffffffffffffffffff166fffffffffffffffffffffffffffffffff168152602001846fffffffffffffffffffffffffffffffff166fffffffffffffffffffffffffffffffff168152602001836fffffffffffffffffffffffffffffffff166fffffffffffffffffffffffffffffffff168152602001826fffffffffffffffffffffffffffffffff166fffffffffffffffffffffffffffffffff16815260200194505050505060405180910390f35b34801561048c57600080fd5b506104c3600480360360408110156104a357600080fd5b810190808035906020019092919080359060200190929190505050611501565b604051808215151515815260200191505060405180910390f35b3480156104e957600080fd5b506105166004803603602081101561050057600080fd5b81019080803590602001909291905050506116e8565b60405180848152602001838152602001828152602001935050505060405180910390f35b34801561054657600080fd5b506105736004803603602081101561055d57600080fd5b810190808035906020019092919050505061185e565b6040518082815260200191505060405180910390f35b34801561059557600080fd5b506105c2600480360360208110156105ac57600080fd5b8101908080359060200190929190505050611971565b604051808215151515815260200191505060405180910390f35b3480156105e857600080fd5b5061061f600480360360408110156105ff57600080fd5b810190808035906020019092919080359060200190929190505050611991565b604051808060200183151515158152602001828103825284818151815260200191508051906020019060200280838360005b8381101561066c578082015181840152602081019050610651565b50505050905001935050505060405180910390f35b6000600360009054906101000a900473ffffffffffffffffffffffffffffffffffffffff1673ffffffffffffffffffffffffffffffffffffffff163373ffffffffffffffffffffffffffffffffffffffff16141515610748576040517f08c379a00000000000000000000000000000000000000000000000000000000081526004018080602001828103825260208152602001807f4f776e65722054696d65416c6c792073686f756c642062652063616c6c696e6781525060200191505060405180910390fd5b60006002600084815260200190815260200160002060000160189054906101000a900463ffffffff1663ffffffff1614151561078357600080fd5b6107f9600160008086815260200190815260200160002060020184908060018154018082558091505090600182039060005260206000209060089182820401919006600402909192909190916101000a81548163ffffffff021916908363ffffffff16021790555061241690919063ffffffff16565b6002600084815260200190815260200160002060000160186101000a81548163ffffffff021916908363ffffffff1602179055506108c76002600084815260200190815260200160002060000160009054906101000a90046fffffffffffffffffffffffffffffffff166fffffffffffffffffffffffffffffffff1660008086815260200190815260200160002060000160109054906101000a90046fffffffffffffffffffffffffffffffff166fffffffffffffffffffffffffffffffff1661242f90919063ffffffff16565b60008085815260200190815260200160002060000160106101000a8154816fffffffffffffffffffffffffffffffff02191690836fffffffffffffffffffffffffffffffff1602179055506001905092915050565b6000600360009054906101000a900473ffffffffffffffffffffffffffffffffffffffff1673ffffffffffffffffffffffffffffffffffffffff163373ffffffffffffffffffffffffffffffffffffffff161415156109e3576040517f08c379a00000000000000000000000000000000000000000000000000000000081526004018080602001828103825260208152602001807f4f776e65722054696d65416c6c792073686f756c642062652063616c6c696e6781525060200191505060405180910390fd5b6109eb6126e2565b83816020019063ffffffff16908163ffffffff16815250508281600001906fffffffffffffffffffffffffffffffff1690816fffffffffffffffffffffffffffffffff16815250506000816040019063ffffffff16908163ffffffff1681525050610ac2600160008089815260200190815260200160002060020187908060018154018082558091505090600182039060005260206000209060089182820401919006600402909192909190916101000a81548163ffffffff021916908363ffffffff16021790555061241690919063ffffffff16565b816060019063ffffffff16908163ffffffff16815250508281608001516000601881101515610aed57fe5b602002019063ffffffff16908163ffffffff1681525050806002600087815260200190815260200160002060008201518160000160006101000a8154816fffffffffffffffffffffffffffffffff02191690836fffffffffffffffffffffffffffffffff16021790555060208201518160000160106101000a81548163ffffffff021916908363ffffffff16021790555060408201518160000160146101000a81548163ffffffff021916908363ffffffff16021790555060608201518160000160186101000a81548163ffffffff021916908363ffffffff160217905550608082015181600101906018610be392919061273d565b50905050610c3d8360008089815260200190815260200160002060000160109054906101000a90046fffffffffffffffffffffffffffffffff166fffffffffffffffffffffffffffffffff1661242f90919063ffffffff16565b60008088815260200190815260200160002060000160106101000a8154816fffffffffffffffffffffffffffffffff02191690836fffffffffffffffffffffffffffffffff1602179055506001915050949350505050565b6000600360009054906101000a900473ffffffffffffffffffffffffffffffffffffffff1673ffffffffffffffffffffffffffffffffffffffff163373ffffffffffffffffffffffffffffffffffffffff16141515610d5c576040517f08c379a00000000000000000000000000000000000000000000000000000000081526004018080602001828103825260208152602001807f4f776e65722054696d65416c6c792073686f756c642062652063616c6c696e6781525060200191505060405180910390fd5b600080600090505b8381111515610dd257610dc360008083815260200190815260200160002060000160109054906101000a90046fffffffffffffffffffffffffffffffff166fffffffffffffffffffffffffffffffff168361242f90919063ffffffff16565b91508080600101915050610d64565b507ff77fa968b82936dc0480f623faeea411245c1d9f74ffd0530d6ca303943b3df4816040518082815260200191505060405180910390a1600081111515610e1957600080fd5b60008090505b83811115156110d157600080600083815260200190815260200160002060000160109054906101000a90046fffffffffffffffffffffffffffffffff166fffffffffffffffffffffffffffffffff161415610ec657600080600083815260200190815260200160002060000160006101000a8154816fffffffffffffffffffffffffffffffff02191690836fffffffffffffffffffffffffffffffff160217905550610ff7565b610f2e82610f208760008086815260200190815260200160002060000160109054906101000a90046fffffffffffffffffffffffffffffffff166fffffffffffffffffffffffffffffffff1661244b90919063ffffffff16565b61248390919063ffffffff16565b60008083815260200190815260200160002060000160006101000a8154816fffffffffffffffffffffffffffffffff02191690836fffffffffffffffffffffffffffffffff16021790555060008082815260200190815260200160002060000160109054906101000a90046fffffffffffffffffffffffffffffffff1660008083815260200190815260200160002060010160006101000a8154816fffffffffffffffffffffffffffffffff02191690836fffffffffffffffffffffffffffffffff1602179055505b7f0cd26e91c568ac4316dce91615897b0cf6adeb79e220880fe9dafaad25452d898160008084815260200190815260200160002060000160109054906101000a90046fffffffffffffffffffffffffffffffff166fffffffffffffffffffffffffffffffff1660008085815260200190815260200160002060000160009054906101000a90046fffffffffffffffffffffffffffffffff166fffffffffffffffffffffffffffffffff1660405180848152602001838152602001828152602001935050505060405180910390a18080600101915050610e1f565b50600061113e600f611130600260008080815260200190815260200160002060000160009054906101000a90046fffffffffffffffffffffffffffffffff166fffffffffffffffffffffffffffffffff1661244b90919063ffffffff16565b61248390919063ffffffff16565b90506000811415156111ec576111a08160008080815260200190815260200160002060000160009054906101000a90046fffffffffffffffffffffffffffffffff166fffffffffffffffffffffffffffffffff1661241690919063ffffffff16565b60008080815260200190815260200160002060000160006101000a8154816fffffffffffffffffffffffffffffffff02191690836fffffffffffffffffffffffffffffffff1602179055505b7f0cd26e91c568ac4316dce91615897b0cf6adeb79e220880fe9dafaad25452d89600080600080815260200190815260200160002060000160109054906101000a90046fffffffffffffffffffffffffffffffff166fffffffffffffffffffffffffffffffff1660008080815260200190815260200160002060000160009054906101000a90046fffffffffffffffffffffffffffffffff166fffffffffffffffffffffffffffffffff1660405180848152602001838152602001828152602001935050505060405180910390a1809250505092915050565b6000600360009054906101000a900473ffffffffffffffffffffffffffffffffffffffff1673ffffffffffffffffffffffffffffffffffffffff163373ffffffffffffffffffffffffffffffffffffffff1614151561138c576040517f08c379a00000000000000000000000000000000000000000000000000000000081526004018080602001828103825260208152602001807f4f776e65722054696d65416c6c792073686f756c642062652063616c6c696e6781525060200191505060405180910390fd5b60008090505b868110156113d7576113bf868287018686858151811015156113b057fe5b9060200190602002015161091c565b15156113ca57600080fd5b8080600101915050611392565b506001905095945050505050565b60026020528060005260406000206000915090508060000160009054906101000a90046fffffffffffffffffffffffffffffffff16908060000160109054906101000a900463ffffffff16908060000160149054906101000a900463ffffffff16908060000160189054906101000a900463ffffffff16905084565b60006020528060005260406000206000915090508060000160009054906101000a90046fffffffffffffffffffffffffffffffff16908060000160109054906101000a90046fffffffffffffffffffffffffffffffff16908060010160009054906101000a90046fffffffffffffffffffffffffffffffff16908060010160109054906101000a90046fffffffffffffffffffffffffffffffff16905084565b6000600360009054906101000a900473ffffffffffffffffffffffffffffffffffffffff1673ffffffffffffffffffffffffffffffffffffffff163373ffffffffffffffffffffffffffffffffffffffff161415156115c8576040517f08c379a00000000000000000000000000000000000000000000000000000000081526004018080602001828103825260208152602001807f4f776e65722054696d65416c6c792073686f756c642062652063616c6c696e6781525060200191505060405180910390fd5b6115f8836002600085815260200190815260200160002060000160189054906101000a900463ffffffff16612499565b506116936002600084815260200190815260200160002060000160009054906101000a90046fffffffffffffffffffffffffffffffff166fffffffffffffffffffffffffffffffff1660008086815260200190815260200160002060000160109054906101000a90046fffffffffffffffffffffffffffffffff166fffffffffffffffffffffffffffffffff1661241690919063ffffffff16565b60008085815260200190815260200160002060000160106101000a8154816fffffffffffffffffffffffffffffffff02191690836fffffffffffffffffffffffffffffffff1602179055506001905092915050565b6000806000600360009054906101000a900473ffffffffffffffffffffffffffffffffffffffff1673ffffffffffffffffffffffffffffffffffffffff163373ffffffffffffffffffffffffffffffffffffffff161415156117b2576040517f08c379a00000000000000000000000000000000000000000000000000000000081526004018080602001828103825260208152602001807f4f776e65722054696d65416c6c792073686f756c642062652063616c6c696e6781525060200191505060405180910390fd5b6002600085815260200190815260200160002060000160109054906101000a900463ffffffff1663ffffffff166002600086815260200190815260200160002060000160009054906101000a90046fffffffffffffffffffffffffffffffff166fffffffffffffffffffffffffffffffff166002600087815260200190815260200160002060000160149054906101000a900463ffffffff1663ffffffff169250925092509193909250565b6000600360009054906101000a900473ffffffffffffffffffffffffffffffffffffffff1673ffffffffffffffffffffffffffffffffffffffff163373ffffffffffffffffffffffffffffffffffffffff16141515611925576040517f08c379a00000000000000000000000000000000000000000000000000000000081526004018080602001828103825260208152602001807f4f776e65722054696d65416c6c792073686f756c642062652063616c6c696e6781525060200191505060405180910390fd5b6002600083815260200190815260200160002060000160009054906101000a90046fffffffffffffffffffffffffffffffff166fffffffffffffffffffffffffffffffff169050919050565b60016020528060005260406000206000915054906101000a900460ff1681565b60606000600360009054906101000a900473ffffffffffffffffffffffffffffffffffffffff1673ffffffffffffffffffffffffffffffffffffffff163373ffffffffffffffffffffffffffffffffffffffff16141515611a5a576040517f08c379a00000000000000000000000000000000000000000000000000000000081526004018080602001828103825260208152602001807f4f776e65722054696d65416c6c792073686f756c642062652063616c6c696e6781525060200191505060405180910390fd5b600015156001600086815260200190815260200160002060009054906101000a900460ff161515141515611a8d57600080fd5b611a956127e0565b60008086815260200190815260200160002060a060405190810160405290816000820160009054906101000a90046fffffffffffffffffffffffffffffffff166fffffffffffffffffffffffffffffffff166fffffffffffffffffffffffffffffffff1681526020016000820160109054906101000a90046fffffffffffffffffffffffffffffffff166fffffffffffffffffffffffffffffffff166fffffffffffffffffffffffffffffffff1681526020016001820160009054906101000a90046fffffffffffffffffffffffffffffffff166fffffffffffffffffffffffffffffffff166fffffffffffffffffffffffffffffffff1681526020016001820160109054906101000a90046fffffffffffffffffffffffffffffffff166fffffffffffffffffffffffffffffffff166fffffffffffffffffffffffffffffffff16815260200160028201805480602002602001604051908101604052809291908181526020018280548015611c5657602002820191906000526020600020906000905b82829054906101000a900463ffffffff1663ffffffff1681526020019060040190602082600301049283019260010382029150808411611c195790505b5050505050815250509050611c696126e2565b600080600080606060008760800151518b89606001516fffffffffffffffffffffffffffffffff1601101515611cd157876080015151905060018060008e815260200190815260200160002060006101000a81548160ff021916908315150217905550611ced565b8a88606001516fffffffffffffffffffffffffffffffff160190505b600088606001516fffffffffffffffffffffffffffffffff1690505b8181101561221f57886080015181815181101515611d2357fe5b9060200190602002015163ffffffff1696506002600088815260200190815260200160002060a060405190810160405290816000820160009054906101000a90046fffffffffffffffffffffffffffffffff166fffffffffffffffffffffffffffffffff166fffffffffffffffffffffffffffffffff1681526020016000820160109054906101000a900463ffffffff1663ffffffff1663ffffffff1681526020016000820160149054906101000a900463ffffffff1663ffffffff1663ffffffff1681526020016000820160189054906101000a900463ffffffff1663ffffffff1663ffffffff16815260200160018201601880602002604051908101604052809291908260188015611e78576020028201916000905b82829054906101000a900463ffffffff1663ffffffff1681526020019060040190602082600301049283019260010382029150808411611e3b5790505b5050505050815250509750876020015163ffffffff16886040015163ffffffff16811515611ea257fe5b0663ffffffff169550611ef360028a60400151026fffffffffffffffffffffffffffffffff168a600001518a60000151026fffffffffffffffffffffffffffffffff1661248390919063ffffffff16565b94507f356b79d8e456e7aa0d7747645cf39921d403293bb965efc71e8a65c1a62590e087896040015187604051808481526020018363ffffffff1663ffffffff168152602001828152602001935050505060405180910390a160009350600188602001510363ffffffff16886040015163ffffffff161115611fe657876080015186601881101515611f8157fe5b602002015163ffffffff1693507f296537e11b520626dbd4aae6053652b9c2a7395fb926f112d547e0f9383476a687896040015186604051808481526020018363ffffffff1663ffffffff168152602001828152602001935050505060405180910390a15b61202184612013878c602001516fffffffffffffffffffffffffffffffff1661242f90919063ffffffff16565b61241690919063ffffffff16565b89602001906fffffffffffffffffffffffffffffffff1690816fffffffffffffffffffffffffffffffff168152505061208b8461207d878b600001516fffffffffffffffffffffffffffffffff1661242f90919063ffffffff16565b61241690919063ffffffff16565b88600001906fffffffffffffffffffffffffffffffff1690816fffffffffffffffffffffffffffffffff1681525050848860800151876018811015156120cd57fe5b602002019063ffffffff16908163ffffffff168152505087604001805180919060010163ffffffff1663ffffffff168152505086955060808486019060020a02861795508583845181518110151561212157fe5b9060200190602002018181525050876002600089815260200190815260200160002060008201518160000160006101000a8154816fffffffffffffffffffffffffffffffff02191690836fffffffffffffffffffffffffffffffff16021790555060208201518160000160106101000a81548163ffffffff021916908363ffffffff16021790555060408201518160000160146101000a81548163ffffffff021916908363ffffffff16021790555060608201518160000160186101000a81548163ffffffff021916908363ffffffff16021790555060808201518160010190601861220e92919061273d565b509050508080600101915050611d09565b508088606001906fffffffffffffffffffffffffffffffff1690816fffffffffffffffffffffffffffffffff16815250507f08a82d6b7dbab5cafd85cce94dd8a6f4e8495965c3573d486582e53c6cbfb6bd8c89606001518a608001515160405180848152602001836fffffffffffffffffffffffffffffffff168152602001828152602001935050505060405180910390a1876000808e815260200190815260200160002060008201518160000160006101000a8154816fffffffffffffffffffffffffffffffff02191690836fffffffffffffffffffffffffffffffff16021790555060208201518160000160106101000a8154816fffffffffffffffffffffffffffffffff02191690836fffffffffffffffffffffffffffffffff16021790555060408201518160010160006101000a8154816fffffffffffffffffffffffffffffffff02191690836fffffffffffffffffffffffffffffffff16021790555060608201518160010160106101000a8154816fffffffffffffffffffffffffffffffff02191690836fffffffffffffffffffffffffffffffff16021790555060808201518160020190805190602001906123dd929190612858565b5090505081600160008e815260200190815260200160002060009054906101000a900460ff169950995050505050505050509250929050565b600082821115151561242457fe5b818303905092915050565b6000818301905082811015151561244257fe5b80905092915050565b60008083141561245e576000905061247d565b818302905081838281151561246f57fe5b0414151561247957fe5b8090505b92915050565b6000818381151561249057fe5b04905092915050565b60008060008085815260200190815260200160002060000160109054906101000a90046fffffffffffffffffffffffffffffffff166fffffffffffffffffffffffffffffffff16141515156124ed57600080fd5b600080848152602001908152602001600020600201805490508263ffffffff1610151561251957600080fd5b600060016000808681526020019081526020016000206002018054905003905060008060008681526020019081526020016000206002018281548110151561255d57fe5b90600052602060002090600891828204019190066004029054906101000a900463ffffffff16905083600260008363ffffffff16815260200190815260200160002060000160186101000a81548163ffffffff021916908363ffffffff160217905550600080868152602001908152602001600020600201828154811015156125e257fe5b90600052602060002090600891828204019190066004029054906101000a900463ffffffff166000808781526020019081526020016000206002018563ffffffff1681548110151561263057fe5b90600052602060002090600891828204019190066004026101000a81548163ffffffff021916908363ffffffff1602179055506000808681526020019081526020016000206002018281548110151561268557fe5b90600052602060002090600891828204019190066004026101000a81549063ffffffff02191690556000808681526020019081526020016000206002018054809190600190036126d59190612908565b5060019250505092915050565b6103806040519081016040528060006fffffffffffffffffffffffffffffffff168152602001600063ffffffff168152602001600063ffffffff168152602001600063ffffffff168152602001612737612942565b81525090565b8260186007016008900481019282156127cf5791602002820160005b8382111561279d57835183826101000a81548163ffffffff021916908363ffffffff1602179055509260200192600401602081600301049283019260010302612759565b80156127cd5782816101000a81549063ffffffff021916905560040160208160030104928301926001030261279d565b505b5090506127dc9190612966565b5090565b60a06040519081016040528060006fffffffffffffffffffffffffffffffff16815260200160006fffffffffffffffffffffffffffffffff16815260200160006fffffffffffffffffffffffffffffffff16815260200160006fffffffffffffffffffffffffffffffff168152602001606081525090565b828054828255906000526020600020906007016008900481019282156128f75791602002820160005b838211156128c557835183826101000a81548163ffffffff021916908363ffffffff1602179055509260200192600401602081600301049283019260010302612881565b80156128f55782816101000a81549063ffffffff02191690556004016020816003010492830192600103026128c5565b505b5090506129049190612966565b5090565b81548183558181111561293d57600701600890048160070160089004836000526020600020918201910161293c9190612999565b5b505050565b61030060405190810160405280601890602082028038833980820191505090505090565b61299691905b8082111561299257600081816101000a81549063ffffffff02191690555060010161296c565b5090565b90565b6129bb91905b808211156129b757600081600090555060010161299f565b5090565b9056fea165627a7a72305820aabc375b8f594e06ee741416c4ed382dde4c15298b3f4ac4fdfc26ea7c3cf0d40029",
  "source": "pragma solidity ^0.5.0;\n\nimport \"./SafeMath.sol\";\n\n\ncontract Staking{\n\n  using SafeMath for uint256;\n\n  struct Plan{                         //Structure to store details of different Plans\n  uint128 NRTBalance;\n  uint128 ActivePlanAmount;\n  uint128 LastPlanAmount;\n  uint128 UpdateCount;\n  uint32[] ActivePlanList;\n  }\n  mapping (uint256 => Plan) public Plans;     //orderid ==> order details\n  mapping (uint256 => bool) public Status;\n\n  struct Stake {\n  uint128 stakedAmount;\n  uint32 PlanTime;\n  uint32 monthcount;\n  uint32 ActivePlanListIndex;\n  uint32[24] MonthlyPrincipal;\n  }\n  mapping (uint256 => Stake) public Stakes;     //orderid ==> order details\n  address TimeAlly;\n\n\n   event TotalPlanAmount(uint256 amount);\n   event PlanAmountandNRT(uint256 planid, uint256 activeplanamount, uint256 nrtbalance);\n   event PrincipalReleased(uint256 contractid, uint32 term ,uint256 amount);\n   event InterestReleased(uint256 contractid, uint32 month ,uint256 interest);\n   event PlanHandlerStatus(uint256 planid, uint256 current, uint256 total);\n\n   modifier OnlyTimeAlly() {\n     require(msg.sender == TimeAlly, \"Owner TimeAlly should be calling\");\n     _;\n   }\n\n   constructor(address timeally) public {\n     TimeAlly = timeally;\n   }\n\n  function ViewStake(uint256 contractID) public OnlyTimeAlly() view returns(uint256, uint256, uint256){\n   return(uint256(Stakes[contractID].PlanTime), uint256(Stakes[contractID].stakedAmount), uint256(Stakes[contractID].monthcount));\n  }\n\n  function ViewStakedAmount(uint256 contractID) public OnlyTimeAlly() view returns(uint256){\n   return(uint256(Stakes[contractID].stakedAmount));\n  }\n\n  function AddStake(uint256 planID, uint256 contractID, uint256 plantime, uint256 stakedamount) public OnlyTimeAlly() returns(bool) {\n  Stake memory stake;\n  stake.PlanTime = uint32(plantime);\n  stake.stakedAmount = uint128(stakedamount);\n  stake.monthcount = 0;\n  stake.ActivePlanListIndex = uint32(Plans[planID].ActivePlanList.push(uint32(contractID)).sub(1));\n  stake.MonthlyPrincipal[0] = uint32(stakedamount);\n  Stakes[contractID] = stake;\n  Plans[planID].ActivePlanAmount = uint128(uint256(Plans[planID].ActivePlanAmount).add(stakedamount));\n  return true;\n  }\n\n  function BatchAddStake(uint256 size, uint256 planID, uint256 contractID, uint256 plantime, uint256[] memory stakedamount) public OnlyTimeAlly() returns(bool) {\n    for(uint256 i = 0; i < size; i++) {\n    require(AddStake(planID, (contractID+i), plantime, stakedamount[i]));\n    }\n    return true;\n  }\n\n  function Pause(uint256 planID, uint256 contractID) public OnlyTimeAlly() returns(bool) {\n  DeleteActivePlanListElement(planID, Stakes[contractID].ActivePlanListIndex);\n  Plans[planID].ActivePlanAmount = uint128(uint256(Plans[planID].ActivePlanAmount).sub(uint256(Stakes[contractID].stakedAmount)));\n  return true;\n  }\n\n  function Resume(uint256 planID, uint256 contractID) public OnlyTimeAlly() returns(bool) {\n  require(Stakes[contractID].ActivePlanListIndex == 0);\n  Stakes[contractID].ActivePlanListIndex = uint32(Plans[planID].ActivePlanList.push(uint32(contractID)).sub(1));\n  Plans[planID].ActivePlanAmount = uint128(uint256(Plans[planID].ActivePlanAmount).add(Stakes[contractID].stakedAmount));\n  return true;\n  }\n\n\n\n  function MonthlyNRTHandler(uint256 NRT, uint256 planID) public OnlyTimeAlly() returns(uint256){\n  uint256 TotalAmount;\n  for(uint i=0; i<=planID; i++){\n    TotalAmount = TotalAmount.add(uint256(Plans[i].ActivePlanAmount));\n  }\n  emit TotalPlanAmount(TotalAmount);\n  require(TotalAmount > 0);\n\n  for( uint i=0; i<=planID; i++){\n      if(Plans[i].ActivePlanAmount == 0){\n        Plans[i].NRTBalance = 0;\n      }\n      else{\n        Plans[i].NRTBalance = uint128((uint256(Plans[i].ActivePlanAmount).mul(NRT)).div(TotalAmount));\n        Plans[i].LastPlanAmount = Plans[i].ActivePlanAmount;\n      }\n      emit PlanAmountandNRT(i, uint256(Plans[i].ActivePlanAmount), uint256(Plans[i].NRTBalance));\n  }\n\n  uint256 luckPoolBal = (uint256(Plans[0].NRTBalance).mul(2)).div(15);\n  if(luckPoolBal != 0){\n    Plans[0].NRTBalance = uint128(uint256(Plans[0].NRTBalance).sub(luckPoolBal));\n  }\n  emit PlanAmountandNRT(0, uint256(Plans[0].ActivePlanAmount), uint256(Plans[0].NRTBalance));\n  return luckPoolBal;\n  }\n\n\n  function MonthlyPlanHandler(uint256 planID, uint256 size) public OnlyTimeAlly() returns(uint[] memory, bool){\n    require(Status[planID] == false);\n    Plan memory plan = Plans[planID];\n    Stake memory stake;\n    uint256 contractid;\n    uint256 Index;\n    uint256 Interest;\n    uint256 PrincipalToRelease;\n    uint256[] memory UserPayment;\n    uint256 limit;\n    if(plan.UpdateCount + size >= plan.ActivePlanList.length){\n    limit = plan.ActivePlanList.length;\n    Status[planID] = true;\n    }\n    else{\n    limit = plan.UpdateCount+size;\n    }\n    for (uint256 i = plan.UpdateCount; i < limit; i++) {\n         contractid = uint256(plan.ActivePlanList[i]);\n         stake = Stakes[contractid];\n         Index = uint256(stake.monthcount % stake.PlanTime);\n         Interest = uint256(stake.stakedAmount * plan.NRTBalance).div(uint256(plan.LastPlanAmount * 2));\n         emit InterestReleased(contractid, stake.monthcount, Interest);\n         PrincipalToRelease = 0;\n         if(stake.monthcount >((stake.PlanTime)-1)){\n           PrincipalToRelease = uint256(stake.MonthlyPrincipal[Index]);\n           emit PrincipalReleased(contractid, stake.monthcount, PrincipalToRelease);\n         }\n         plan.ActivePlanAmount = uint128((uint256(plan.ActivePlanAmount).add(Interest)).sub(PrincipalToRelease));\n         stake.stakedAmount = uint128((uint256(stake.stakedAmount).add(Interest)).sub(PrincipalToRelease));\n         stake.MonthlyPrincipal[Index] = uint32(Interest);\n         stake.monthcount++;\n         Index = contractid;\n         Index |= (Interest + PrincipalToRelease)<<128;\n         UserPayment[UserPayment.length] = Index;\n         Stakes[contractid] = stake;\n       }\n  plan.UpdateCount =  uint128(limit);\n  emit PlanHandlerStatus(planID, plan.UpdateCount, plan.ActivePlanList.length);\n  Plans[planID] = plan;\n  return(UserPayment, Status[planID]);\n  }\n\n\n\n  function DeleteActivePlanListElement(uint256 id, uint32 index) internal returns(bool){\n    require(Plans[id].ActivePlanAmount != 0);\n    require(index < Plans[id].ActivePlanList.length);\n    uint256 last = Plans[id].ActivePlanList.length - 1;\n    uint32 lastelem = Plans[id].ActivePlanList[last];\n    Stakes[lastelem].ActivePlanListIndex = index;\n    Plans[id].ActivePlanList[index] = Plans[id].ActivePlanList[last];\n    delete Plans[id].ActivePlanList[last];\n    Plans[id].ActivePlanList.length--;\n    return true;\n  }\n\n\n}\n\n",
  "sourcePath": "/home/osiz/Desktop/Truffle/contracts/Staking.sol",
  "compiler": {
    "name": "solc",
    "version": "0.5.0+commit.1d4f565a.Emscripten.clang"
  },
  "schemaVersion": "3.0.6",
  "updatedAt": "2019-05-07T06:15:54.348Z",
  "devdoc": {
    "methods": {}
  },
  "userdoc": {
    "methods": {}
  }
}