{
  "contractName": "TimeAlly",
  "abi": [
    {
      "constant": true,
      "inputs": [],
      "name": "PlanHandlerCount",
      "outputs": [
        {
          "name": "",
          "type": "uint256"
        }
      ],
      "payable": false,
      "stateMutability": "view",
      "type": "function"
    },
    {
      "constant": true,
      "inputs": [
        {
          "name": "",
          "type": "uint256"
        }
      ],
      "name": "Plans",
      "outputs": [
        {
          "name": "PlanPeriod",
          "type": "uint256"
        },
        {
          "name": "LoanInterestRate",
          "type": "uint256"
        },
        {
          "name": "LoanPeriod",
          "type": "uint256"
        },
        {
          "name": "RefundWeeks",
          "type": "uint256"
        }
      ],
      "payable": false,
      "stateMutability": "view",
      "type": "function"
    },
    {
      "constant": true,
      "inputs": [
        {
          "name": "",
          "type": "uint256"
        }
      ],
      "name": "TokenTransferList",
      "outputs": [
        {
          "name": "",
          "type": "uint256"
        }
      ],
      "payable": false,
      "stateMutability": "view",
      "type": "function"
    },
    {
      "constant": true,
      "inputs": [],
      "name": "ContractID",
      "outputs": [
        {
          "name": "",
          "type": "uint256"
        }
      ],
      "payable": false,
      "stateMutability": "view",
      "type": "function"
    },
    {
      "constant": true,
      "inputs": [
        {
          "name": "",
          "type": "uint256"
        }
      ],
      "name": "LoanRepaymentAmount",
      "outputs": [
        {
          "name": "",
          "type": "uint256"
        }
      ],
      "payable": false,
      "stateMutability": "view",
      "type": "function"
    },
    {
      "constant": true,
      "inputs": [],
      "name": "MonthlyHandlerCount",
      "outputs": [
        {
          "name": "",
          "type": "uint256"
        }
      ],
      "payable": false,
      "stateMutability": "view",
      "type": "function"
    },
    {
      "constant": true,
      "inputs": [
        {
          "name": "",
          "type": "uint256"
        }
      ],
      "name": "Contracts",
      "outputs": [
        {
          "name": "status",
          "type": "uint256"
        },
        {
          "name": "planid",
          "type": "uint256"
        },
        {
          "name": "owner",
          "type": "address"
        },
        {
          "name": "timestamp",
          "type": "uint256"
        }
      ],
      "payable": false,
      "stateMutability": "view",
      "type": "function"
    },
    {
      "constant": true,
      "inputs": [],
      "name": "StakingAddress",
      "outputs": [
        {
          "name": "",
          "type": "address"
        }
      ],
      "payable": false,
      "stateMutability": "view",
      "type": "function"
    },
    {
      "constant": false,
      "inputs": [],
      "name": "MonthlyPaymentHandler",
      "outputs": [
        {
          "name": "",
          "type": "bool"
        }
      ],
      "payable": false,
      "stateMutability": "nonpayable",
      "type": "function"
    },
    {
      "constant": true,
      "inputs": [],
      "name": "EraswapTokenAddress",
      "outputs": [
        {
          "name": "",
          "type": "address"
        }
      ],
      "payable": false,
      "stateMutability": "view",
      "type": "function"
    },
    {
      "constant": true,
      "inputs": [],
      "name": "PlanID",
      "outputs": [
        {
          "name": "",
          "type": "uint256"
        }
      ],
      "payable": false,
      "stateMutability": "view",
      "type": "function"
    },
    {
      "constant": false,
      "inputs": [],
      "name": "MonthlyMasterHandler",
      "outputs": [
        {
          "name": "",
          "type": "uint256"
        }
      ],
      "payable": false,
      "stateMutability": "nonpayable",
      "type": "function"
    },
    {
      "constant": false,
      "inputs": [
        {
          "name": "Size",
          "type": "uint256"
        }
      ],
      "name": "MonthlyPlansHandler",
      "outputs": [
        {
          "name": "",
          "type": "bool"
        }
      ],
      "payable": false,
      "stateMutability": "nonpayable",
      "type": "function"
    },
    {
      "constant": false,
      "inputs": [
        {
          "name": "stakingaddress",
          "type": "address"
        },
        {
          "name": "loanandrefundaddress",
          "type": "address"
        }
      ],
      "name": "Setaddress",
      "outputs": [
        {
          "name": "",
          "type": "bool"
        }
      ],
      "payable": false,
      "stateMutability": "nonpayable",
      "type": "function"
    },
    {
      "constant": true,
      "inputs": [],
      "name": "LoanandRefundAddress",
      "outputs": [
        {
          "name": "",
          "type": "address"
        }
      ],
      "payable": false,
      "stateMutability": "view",
      "type": "function"
    },
    {
      "constant": true,
      "inputs": [],
      "name": "LastMonthlyHandler",
      "outputs": [
        {
          "name": "",
          "type": "uint256"
        }
      ],
      "payable": false,
      "stateMutability": "view",
      "type": "function"
    },
    {
      "inputs": [
        {
          "name": "eraswapTokenAddress",
          "type": "address"
        }
      ],
      "payable": false,
      "stateMutability": "nonpayable",
      "type": "constructor"
    },
    {
      "anonymous": false,
      "inputs": [
        {
          "indexed": false,
          "name": "contractid",
          "type": "uint256"
        },
        {
          "indexed": false,
          "name": "owner",
          "type": "address"
        },
        {
          "indexed": false,
          "name": "planid",
          "type": "uint256"
        }
      ],
      "name": "ContractCreated",
      "type": "event"
    },
    {
      "anonymous": false,
      "inputs": [
        {
          "indexed": false,
          "name": "planid",
          "type": "uint256"
        }
      ],
      "name": "PlanCreated",
      "type": "event"
    },
    {
      "anonymous": false,
      "inputs": [
        {
          "indexed": false,
          "name": "contractid",
          "type": "uint256"
        },
        {
          "indexed": false,
          "name": "owner",
          "type": "address"
        },
        {
          "indexed": false,
          "name": "amount",
          "type": "uint256"
        },
        {
          "indexed": false,
          "name": "planid",
          "type": "uint256"
        }
      ],
      "name": "WindupInitiated",
      "type": "event"
    },
    {
      "anonymous": false,
      "inputs": [
        {
          "indexed": false,
          "name": "contractid",
          "type": "uint256"
        },
        {
          "indexed": false,
          "name": "owner",
          "type": "address"
        },
        {
          "indexed": false,
          "name": "loanamnt",
          "type": "uint256"
        },
        {
          "indexed": false,
          "name": "planid",
          "type": "uint256"
        }
      ],
      "name": "LoanTaken",
      "type": "event"
    },
    {
      "anonymous": false,
      "inputs": [
        {
          "indexed": false,
          "name": "contractid",
          "type": "uint256"
        },
        {
          "indexed": false,
          "name": "owner",
          "type": "address"
        },
        {
          "indexed": false,
          "name": "loanamnt",
          "type": "uint256"
        },
        {
          "indexed": false,
          "name": "interest",
          "type": "uint256"
        },
        {
          "indexed": false,
          "name": "planid",
          "type": "uint256"
        }
      ],
      "name": "LoanRepayed",
      "type": "event"
    },
    {
      "anonymous": false,
      "inputs": [
        {
          "indexed": false,
          "name": "contractid",
          "type": "uint256"
        },
        {
          "indexed": false,
          "name": "owner",
          "type": "address"
        },
        {
          "indexed": false,
          "name": "newowner",
          "type": "address"
        }
      ],
      "name": "OwnershipTransfered",
      "type": "event"
    },
    {
      "anonymous": false,
      "inputs": [
        {
          "indexed": false,
          "name": "nrt",
          "type": "uint256"
        }
      ],
      "name": "NRTRecieved",
      "type": "event"
    },
    {
      "anonymous": false,
      "inputs": [
        {
          "indexed": false,
          "name": "user",
          "type": "address"
        },
        {
          "indexed": false,
          "name": "amount",
          "type": "uint256"
        }
      ],
      "name": "MonthlyPaymentsHandler",
      "type": "event"
    },
    {
      "anonymous": false,
      "inputs": [
        {
          "indexed": false,
          "name": "contractid",
          "type": "uint256"
        },
        {
          "indexed": false,
          "name": "amount",
          "type": "uint256"
        }
      ],
      "name": "ContractBurned",
      "type": "event"
    },
    {
      "anonymous": false,
      "inputs": [
        {
          "indexed": false,
          "name": "id",
          "type": "uint256"
        }
      ],
      "name": "PlanHandlercompleted",
      "type": "event"
    },
    {
      "anonymous": false,
      "inputs": [],
      "name": "MonthlyPlanHandlerscompleted",
      "type": "event"
    },
    {
      "anonymous": false,
      "inputs": [],
      "name": "MonthlyPaymentHandlercompleted",
      "type": "event"
    },
    {
      "anonymous": false,
      "inputs": [
        {
          "indexed": false,
          "name": "",
          "type": "address[100]"
        },
        {
          "indexed": false,
          "name": "",
          "type": "uint256[100]"
        }
      ],
      "name": "TokenSent",
      "type": "event"
    },
    {
      "constant": true,
      "inputs": [
        {
          "name": "contractID",
          "type": "uint256"
        }
      ],
      "name": "ViewContract",
      "outputs": [
        {
          "name": "",
          "type": "uint256"
        },
        {
          "name": "",
          "type": "uint256"
        },
        {
          "name": "",
          "type": "uint256"
        },
        {
          "name": "",
          "type": "address"
        }
      ],
      "payable": false,
      "stateMutability": "view",
      "type": "function"
    },
    {
      "constant": true,
      "inputs": [
        {
          "name": "contractID",
          "type": "uint256"
        }
      ],
      "name": "ViewUserStakes",
      "outputs": [
        {
          "name": "",
          "type": "uint256"
        },
        {
          "name": "",
          "type": "uint256"
        },
        {
          "name": "",
          "type": "uint256"
        }
      ],
      "payable": false,
      "stateMutability": "view",
      "type": "function"
    },
    {
      "constant": true,
      "inputs": [
        {
          "name": "contractID",
          "type": "uint256"
        }
      ],
      "name": "ViewUserLoan",
      "outputs": [
        {
          "name": "",
          "type": "uint256"
        },
        {
          "name": "",
          "type": "uint256"
        },
        {
          "name": "",
          "type": "uint256"
        }
      ],
      "payable": false,
      "stateMutability": "view",
      "type": "function"
    },
    {
      "constant": true,
      "inputs": [
        {
          "name": "contractID",
          "type": "uint256"
        }
      ],
      "name": "ViewUserRefund",
      "outputs": [
        {
          "name": "",
          "type": "uint256"
        },
        {
          "name": "",
          "type": "uint256"
        },
        {
          "name": "",
          "type": "uint256"
        }
      ],
      "payable": false,
      "stateMutability": "view",
      "type": "function"
    },
    {
      "constant": true,
      "inputs": [],
      "name": "AllContracts",
      "outputs": [
        {
          "name": "",
          "type": "uint256[]"
        }
      ],
      "payable": false,
      "stateMutability": "view",
      "type": "function"
    },
    {
      "constant": true,
      "inputs": [
        {
          "name": "planID",
          "type": "uint256"
        }
      ],
      "name": "PlanDetails",
      "outputs": [
        {
          "name": "",
          "type": "uint256"
        },
        {
          "name": "",
          "type": "uint256"
        },
        {
          "name": "",
          "type": "uint256"
        },
        {
          "name": "",
          "type": "uint256"
        }
      ],
      "payable": false,
      "stateMutability": "view",
      "type": "function"
    },
    {
      "constant": false,
      "inputs": [
        {
          "name": "owner",
          "type": "address"
        },
        {
          "name": "planid",
          "type": "uint256"
        },
        {
          "name": "stakedamount",
          "type": "uint256"
        }
      ],
      "name": "CreateContract",
      "outputs": [
        {
          "name": "",
          "type": "bool"
        }
      ],
      "payable": false,
      "stateMutability": "nonpayable",
      "type": "function"
    },
    {
      "constant": false,
      "inputs": [
        {
          "name": "batchlength",
          "type": "uint256"
        },
        {
          "name": "planid",
          "type": "uint256"
        },
        {
          "name": "contractOwner",
          "type": "address[]"
        },
        {
          "name": "amount",
          "type": "uint256[]"
        },
        {
          "name": "total",
          "type": "uint256"
        }
      ],
      "name": "CreateContractsByBatch",
      "outputs": [
        {
          "name": "",
          "type": "bool"
        }
      ],
      "payable": false,
      "stateMutability": "nonpayable",
      "type": "function"
    },
    {
      "constant": false,
      "inputs": [
        {
          "name": "planperiod",
          "type": "uint256"
        },
        {
          "name": "loanInterestRate",
          "type": "uint256"
        },
        {
          "name": "loanPeriod",
          "type": "uint256"
        },
        {
          "name": "refundWeeks",
          "type": "uint256"
        }
      ],
      "name": "CreatePlan",
      "outputs": [
        {
          "name": "",
          "type": "bool"
        }
      ],
      "payable": false,
      "stateMutability": "nonpayable",
      "type": "function"
    },
    {
      "constant": false,
      "inputs": [
        {
          "name": "contractID",
          "type": "uint256"
        }
      ],
      "name": "windUpContract",
      "outputs": [
        {
          "name": "",
          "type": "bool"
        }
      ],
      "payable": false,
      "stateMutability": "nonpayable",
      "type": "function"
    },
    {
      "constant": false,
      "inputs": [
        {
          "name": "contractID",
          "type": "uint256"
        },
        {
          "name": "loanamount",
          "type": "uint256"
        }
      ],
      "name": "takeLoan",
      "outputs": [
        {
          "name": "",
          "type": "bool"
        }
      ],
      "payable": false,
      "stateMutability": "nonpayable",
      "type": "function"
    },
    {
      "constant": false,
      "inputs": [
        {
          "name": "contractID",
          "type": "uint256"
        }
      ],
      "name": "rePayLoan",
      "outputs": [
        {
          "name": "",
          "type": "bool"
        }
      ],
      "payable": false,
      "stateMutability": "nonpayable",
      "type": "function"
    },
    {
      "constant": false,
      "inputs": [
        {
          "name": "contractid",
          "type": "uint256"
        },
        {
          "name": "newowner",
          "type": "address"
        }
      ],
      "name": "transferOwnership",
      "outputs": [
        {
          "name": "",
          "type": "bool"
        }
      ],
      "payable": false,
      "stateMutability": "nonpayable",
      "type": "function"
    }
  ],
  "bytecode": "0x6080604052600080556000600255600060075560006008556000600960006101000a81548160ff02191690831515021790555034801561003e57600080fd5b50604051602080620054838339810180604052602081101561005f57600080fd5b81019080805190602001909291905050504260068190555033600b60006101000a81548173ffffffffffffffffffffffffffffffffffffffff021916908373ffffffffffffffffffffffffffffffffffffffff16021790555080600c60006101000a81548173ffffffffffffffffffffffffffffffffffffffff021916908373ffffffffffffffffffffffffffffffffffffffff16021790555080600d60006101000a81548173ffffffffffffffffffffffffffffffffffffffff021916908373ffffffffffffffffffffffffffffffffffffffff16021790555050615338806200014b6000396000f3fe608060405260043610610175576000357c0100000000000000000000000000000000000000000000000000000000900463ffffffff168063027c7d141461017a5780630bf8344f146101d75780631c0501f01461020257806329507f7314610255578063395713d7146102c85780634aff96b11461032c5780635325b88c1461037b57806362479bab146103a6578063738b6ed4146103f557806378496a17146104665780637ea6646f146104c35780638282d891146104ee5780638a795503146105415780638ec7e848146105d1578063953fb4fb1461063d5780639910dff9146106945780639c99414a146107115780639ddbe3e914610740578063a26da15b14610797578063a318312514610926578063a813ed7914610983578063bf3f38e0146109ae578063bffb9f44146109d9578063c80d163b14610a2c578063cffe623b14610abc578063e4bd326b14610b19578063e5ee3f9d14610ba2578063f80e150814610bf9578063f9b264e014610c24575b600080fd5b34801561018657600080fd5b506101b36004803603602081101561019d57600080fd5b8101908080359060200190929190505050610c88565b60405180848152602001838152602001828152602001935050505060405180910390f35b3480156101e357600080fd5b506101ec610e64565b6040518082815260200191505060405180910390f35b34801561020e57600080fd5b5061023b6004803603602081101561022557600080fd5b8101908080359060200190929190505050610e6a565b604051808215151515815260200191505060405180910390f35b34801561026157600080fd5b506102ae6004803603604081101561027857600080fd5b8101908080359060200190929190803573ffffffffffffffffffffffffffffffffffffffff16906020019092919050505061183a565b604051808215151515815260200191505060405180910390f35b3480156102d457600080fd5b50610301600480360360208110156102eb57600080fd5b8101908080359060200190929190505050611adb565b6040518085815260200184815260200183815260200182815260200194505050505060405180910390f35b34801561033857600080fd5b506103656004803603602081101561034f57600080fd5b8101908080359060200190929190505050611b0b565b6040518082815260200191505060405180910390f35b34801561038757600080fd5b50610390611b2e565b6040518082815260200191505060405180910390f35b3480156103b257600080fd5b506103df600480360360208110156103c957600080fd5b8101908080359060200190929190505050611b34565b6040518082815260200191505060405180910390f35b34801561040157600080fd5b5061044c6004803603608081101561041857600080fd5b8101908080359060200190929190803590602001909291908035906020019092919080359060200190929190505050611b4c565b604051808215151515815260200191505060405180910390f35b34801561047257600080fd5b5061049f6004803603602081101561048957600080fd5b8101908080359060200190929190505050611d69565b60405180848152602001838152602001828152602001935050505060405180910390f35b3480156104cf57600080fd5b506104d8611f45565b6040518082815260200191505060405180910390f35b3480156104fa57600080fd5b506105276004803603602081101561051157600080fd5b8101908080359060200190929190505050611f4b565b604051808215151515815260200191505060405180910390f35b34801561054d57600080fd5b5061057a6004803603602081101561056457600080fd5b810190808035906020019092919050505061263b565b604051808581526020018481526020018373ffffffffffffffffffffffffffffffffffffffff1673ffffffffffffffffffffffffffffffffffffffff16815260200182815260200194505050505060405180910390f35b3480156105dd57600080fd5b506105e661268b565b6040518080602001828103825283818151815260200191508051906020019060200280838360005b8381101561062957808201518184015260208101905061060e565b505050509050019250505060405180910390f35b34801561064957600080fd5b50610652612720565b604051808273ffffffffffffffffffffffffffffffffffffffff1673ffffffffffffffffffffffffffffffffffffffff16815260200191505060405180910390f35b3480156106a057600080fd5b506106f7600480360360608110156106b757600080fd5b81019080803573ffffffffffffffffffffffffffffffffffffffff1690602001909291908035906020019092919080359060200190929190505050612746565b604051808215151515815260200191505060405180910390f35b34801561071d57600080fd5b50610726612a38565b604051808215151515815260200191505060405180910390f35b34801561074c57600080fd5b50610755612f13565b604051808273ffffffffffffffffffffffffffffffffffffffff1673ffffffffffffffffffffffffffffffffffffffff16815260200191505060405180910390f35b3480156107a357600080fd5b5061090c600480360360a08110156107ba57600080fd5b810190808035906020019092919080359060200190929190803590602001906401000000008111156107eb57600080fd5b8201836020820111156107fd57600080fd5b8035906020019184602083028401116401000000008311171561081f57600080fd5b919080806020026020016040519081016040528093929190818152602001838360200280828437600081840152601f19601f8201169050808301925050505050505091929192908035906020019064010000000081111561087f57600080fd5b82018360208201111561089157600080fd5b803590602001918460208302840111640100000000831117156108b357600080fd5b919080806020026020016040519081016040528093929190818152602001838360200280828437600081840152601f19601f82011690508083019250505050505050919291929080359060200190929190505050612f39565b604051808215151515815260200191505060405180910390f35b34801561093257600080fd5b506109696004803603604081101561094957600080fd5b81019080803590602001909291908035906020019092919050505061336e565b604051808215151515815260200191505060405180910390f35b34801561098f57600080fd5b50610998613a72565b6040518082815260200191505060405180910390f35b3480156109ba57600080fd5b506109c3613a78565b6040518082815260200191505060405180910390f35b3480156109e557600080fd5b50610a12600480360360208110156109fc57600080fd5b810190808035906020019092919050505061465b565b604051808215151515815260200191505060405180910390f35b348015610a3857600080fd5b50610a6560048036036020811015610a4f57600080fd5b8101908080359060200190929190505050614941565b604051808581526020018481526020018381526020018273ffffffffffffffffffffffffffffffffffffffff1673ffffffffffffffffffffffffffffffffffffffff16815260200194505050505060405180910390f35b348015610ac857600080fd5b50610af560048036036020811015610adf57600080fd5b8101908080359060200190929190505050614ab5565b60405180848152602001838152602001828152602001935050505060405180910390f35b348015610b2557600080fd5b50610b8860048036036040811015610b3c57600080fd5b81019080803573ffffffffffffffffffffffffffffffffffffffff169060200190929190803573ffffffffffffffffffffffffffffffffffffffff169060200190929190505050614c91565b604051808215151515815260200191505060405180910390f35b348015610bae57600080fd5b50610bb7614eaa565b604051808273ffffffffffffffffffffffffffffffffffffffff1673ffffffffffffffffffffffffffffffffffffffff16815260200191505060405180910390f35b348015610c0557600080fd5b50610c0e614ed0565b6040518082815260200191505060405180910390f35b348015610c3057600080fd5b50610c5d60048036036020811015610c4757600080fd5b8101908080359060200190929190505050614ed6565b6040518085815260200184815260200183815260200182815260200194505050505060405180910390f35b6000806000836003600082815260200190815260200160002060020160009054906101000a900473ffffffffffffffffffffffffffffffffffffffff1673ffffffffffffffffffffffffffffffffffffffff163373ffffffffffffffffffffffffffffffffffffffff16141515610d67576040517f08c379a00000000000000000000000000000000000000000000000000000000081526004018080602001828103825260178152602001807f4f776e65722073686f756c642062652063616c6c696e6700000000000000000081525060200191505060405180910390fd5b6000806000601160009054906101000a900473ffffffffffffffffffffffffffffffffffffffff1673ffffffffffffffffffffffffffffffffffffffff1663d8d74854896040518263ffffffff167c01000000000000000000000000000000000000000000000000000000000281526004018082815260200191505060606040518083038186803b158015610dfb57600080fd5b505afa158015610e0f573d6000803e3d6000fd5b505050506040513d6060811015610e2557600080fd5b81019080805190602001909291908051906020019092919080519060200190929190505050925092509250828282965096509650505050509193909250565b60075481565b6000816003600082815260200190815260200160002060020160009054906101000a900473ffffffffffffffffffffffffffffffffffffffff1673ffffffffffffffffffffffffffffffffffffffff163373ffffffffffffffffffffffffffffffffffffffff16141515610f46576040517f08c379a00000000000000000000000000000000000000000000000000000000081526004018080602001828103825260178152602001807f4f776e65722073686f756c642062652063616c6c696e6700000000000000000081525060200191505060405180910390fd5b8260026003600083815260200190815260200160002060000154141515610fd5576040517f08c379a000000000000000000000000000000000000000000000000000000000815260040180806020018281038252601a8152602001807f4c6f616e2073686f756c64206e6f742062652070726573656e7400000000000081525060200191505060405180910390fd5b6004600085815260200190815260200160002054600d60009054906101000a900473ffffffffffffffffffffffffffffffffffffffff1673ffffffffffffffffffffffffffffffffffffffff1663dd62ed3e33306040518363ffffffff167c0100000000000000000000000000000000000000000000000000000000028152600401808373ffffffffffffffffffffffffffffffffffffffff1673ffffffffffffffffffffffffffffffffffffffff1681526020018273ffffffffffffffffffffffffffffffffffffffff1673ffffffffffffffffffffffffffffffffffffffff1681526020019250505060206040518083038186803b1580156110d857600080fd5b505afa1580156110ec573d6000803e3d6000fd5b505050506040513d602081101561110257600080fd5b81019080805190602001909291905050501015151561112057600080fd5b600d60009054906101000a900473ffffffffffffffffffffffffffffffffffffffff1673ffffffffffffffffffffffffffffffffffffffff166323b872dd333060046000898152602001908152602001600020546040518463ffffffff167c0100000000000000000000000000000000000000000000000000000000028152600401808473ffffffffffffffffffffffffffffffffffffffff1673ffffffffffffffffffffffffffffffffffffffff1681526020018373ffffffffffffffffffffffffffffffffffffffff1673ffffffffffffffffffffffffffffffffffffffff1681526020018281526020019350505050602060405180830381600087803b15801561122c57600080fd5b505af1158015611240573d6000803e3d6000fd5b505050506040513d602081101561125657600080fd5b8101908080519060200190929190505050151561127257600080fd5b601160009054906101000a900473ffffffffffffffffffffffffffffffffffffffff1673ffffffffffffffffffffffffffffffffffffffff1663522b8452856040518263ffffffff167c010000000000000000000000000000000000000000000000000000000002815260040180828152602001915050602060405180830381600087803b15801561130357600080fd5b505af1158015611317573d6000803e3d6000fd5b505050506040513d602081101561132d57600080fd5b8101908080519060200190929190505050151561134957600080fd5b6000600360008681526020019081526020016000206001015490506000601160009054906101000a900473ffffffffffffffffffffffffffffffffffffffff1673ffffffffffffffffffffffffffffffffffffffff1663d8d74854876040518263ffffffff167c01000000000000000000000000000000000000000000000000000000000281526004018082815260200191505060606040518083038186803b1580156113f557600080fd5b505afa158015611409573d6000803e3d6000fd5b505050506040513d606081101561141f57600080fd5b8101908080519060200190929190805190602001909291908051906020019092919050505092505050600061147082600460008a815260200190815260200160002054614f4790919063ffffffff16565b9050600d60009054906101000a900473ffffffffffffffffffffffffffffffffffffffff1673ffffffffffffffffffffffffffffffffffffffff1663d73dd623600c60009054906101000a900473ffffffffffffffffffffffffffffffffffffffff16836040518363ffffffff167c0100000000000000000000000000000000000000000000000000000000028152600401808373ffffffffffffffffffffffffffffffffffffffff1673ffffffffffffffffffffffffffffffffffffffff16815260200182815260200192505050602060405180830381600087803b15801561155957600080fd5b505af115801561156d573d6000803e3d6000fd5b505050506040513d602081101561158357600080fd5b8101908080519060200190929190505050151561159f57600080fd5b600d60009054906101000a900473ffffffffffffffffffffffffffffffffffffffff1673ffffffffffffffffffffffffffffffffffffffff1663382e2aab826040518263ffffffff167c010000000000000000000000000000000000000000000000000000000002815260040180828152602001915050602060405180830381600087803b15801561163057600080fd5b505af1158015611644573d6000803e3d6000fd5b505050506040513d602081101561165a57600080fd5b8101908080519060200190929190505050151561167657600080fd5b600f60009054906101000a900473ffffffffffffffffffffffffffffffffffffffff1673ffffffffffffffffffffffffffffffffffffffff166315fecf7a84896040518363ffffffff167c01000000000000000000000000000000000000000000000000000000000281526004018083815260200182815260200192505050602060405180830381600087803b15801561170f57600080fd5b505af1158015611723573d6000803e3d6000fd5b505050506040513d602081101561173957600080fd5b8101908080519060200190929190505050151561175557600080fd5b600160036000898152602001908152602001600020600001819055507f990c8a384dc8357d4610060e2eec7c3f622078ad1131d94f43b3e9eb9822a59f8760036000600254815260200190815260200160002060020160009054906101000a900473ffffffffffffffffffffffffffffffffffffffff16848487604051808681526020018573ffffffffffffffffffffffffffffffffffffffff1673ffffffffffffffffffffffffffffffffffffffff1681526020018481526020018381526020018281526020019550505050505060405180910390a1600195505050505050919050565b6000826003600082815260200190815260200160002060020160009054906101000a900473ffffffffffffffffffffffffffffffffffffffff1673ffffffffffffffffffffffffffffffffffffffff163373ffffffffffffffffffffffffffffffffffffffff16141515611916576040517f08c379a00000000000000000000000000000000000000000000000000000000081526004018080602001828103825260178152602001807f4f776e65722073686f756c642062652063616c6c696e6700000000000000000081525060200191505060405180910390fd5b83600160036000838152602001908152602001600020600001541415156119a5576040517f08c379a000000000000000000000000000000000000000000000000000000000815260040180806020018281038252601a8152602001807f4c6f616e2073686f756c64206e6f742062652070726573656e7400000000000081525060200191505060405180910390fd5b7fb1a6b2cf583eddc8871f6fa3f25b135d758809a39d9a595422053a8b17003098856003600088815260200190815260200160002060020160009054906101000a900473ffffffffffffffffffffffffffffffffffffffff1686604051808481526020018373ffffffffffffffffffffffffffffffffffffffff1673ffffffffffffffffffffffffffffffffffffffff1681526020018273ffffffffffffffffffffffffffffffffffffffff1673ffffffffffffffffffffffffffffffffffffffff168152602001935050505060405180910390a1836003600087815260200190815260200160002060020160006101000a81548173ffffffffffffffffffffffffffffffffffffffff021916908373ffffffffffffffffffffffffffffffffffffffff16021790555060019250505092915050565b60016020528060005260406000206000915090508060000154908060010154908060020154908060030154905084565b600a81815481101515611b1a57fe5b906000526020600020016000915090505481565b60025481565b60046020528060005260406000206000915090505481565b6000801515600960009054906101000a900460ff161515141515611bd8576040517f08c379a00000000000000000000000000000000000000000000000000000000081526004018080602001828103825260148152602001807f53486f756c64206e6f742062652050617573656400000000000000000000000081525060200191505060405180910390fd5b600b60009054906101000a900473ffffffffffffffffffffffffffffffffffffffff1673ffffffffffffffffffffffffffffffffffffffff163373ffffffffffffffffffffffffffffffffffffffff16141515611c9d576040517f08c379a00000000000000000000000000000000000000000000000000000000081526004018080602001828103825260208152602001807f4f776e65722054696d65416c6c792073686f756c642062652063616c6c696e6781525060200191505060405180910390fd5b611ca5615216565b85816000018181525050848160200181815250508381604001818152505082816060018181525050806001600080548152602001908152602001600020600082015181600001556020820151816001015560408201518160020155606082015181600301559050507f9dfd4372898f1ab4b7aab4735c5b8c07f64b72ef6f72e0da892265459fc1b8616000546040518082815260200191505060405180910390a1600080815480929190600101919050556000819055506001915050949350505050565b6000806000836003600082815260200190815260200160002060020160009054906101000a900473ffffffffffffffffffffffffffffffffffffffff1673ffffffffffffffffffffffffffffffffffffffff163373ffffffffffffffffffffffffffffffffffffffff16141515611e48576040517f08c379a00000000000000000000000000000000000000000000000000000000081526004018080602001828103825260178152602001807f4f776e65722073686f756c642062652063616c6c696e6700000000000000000081525060200191505060405180910390fd5b6000806000600f60009054906101000a900473ffffffffffffffffffffffffffffffffffffffff1673ffffffffffffffffffffffffffffffffffffffff16635b56fd22896040518263ffffffff167c01000000000000000000000000000000000000000000000000000000000281526004018082815260200191505060606040518083038186803b158015611edc57600080fd5b505afa158015611ef0573d6000803e3d6000fd5b505050506040513d6060811015611f0657600080fd5b81019080805190602001909291908051906020019092919080519060200190929190505050925092509250828282965096509650505050509193909250565b60085481565b6000816003600082815260200190815260200160002060020160009054906101000a900473ffffffffffffffffffffffffffffffffffffffff1673ffffffffffffffffffffffffffffffffffffffff163373ffffffffffffffffffffffffffffffffffffffff16141515612027576040517f08c379a00000000000000000000000000000000000000000000000000000000081526004018080602001828103825260178152602001807f4f776e65722073686f756c642062652063616c6c696e6700000000000000000081525060200191505060405180910390fd5b8260016000600360008481526020019081526020016000206001015481526020019081526020016000206000015461207e600360008481526020019081526020016000206003015442614f4790919063ffffffff16565b1015151561211a576040517f08c379a00000000000000000000000000000000000000000000000000000000081526004018080602001828103825260288152602001807f436f6e74726163742063616e206f6e6c7920626520656e64656420616674657281526020017f203220796561727300000000000000000000000000000000000000000000000081525060400191505060405180910390fd5b6001600360008381526020019081526020016000206000015414151561213f57600080fd5b600f60009054906101000a900473ffffffffffffffffffffffffffffffffffffffff1673ffffffffffffffffffffffffffffffffffffffff16635696866c6003600087815260200190815260200160002060010154866040518363ffffffff167c01000000000000000000000000000000000000000000000000000000000281526004018083815260200182815260200192505050602060405180830381600087803b1580156121ee57600080fd5b505af1158015612202573d6000803e3d6000fd5b505050506040513d602081101561221857600080fd5b8101908080519060200190929190505050151561223457600080fd5b6003806000868152602001908152602001600020600001819055506000612359600160006003600089815260200190815260200160002060010154815260200190815260200160002060030154600f60009054906101000a900473ffffffffffffffffffffffffffffffffffffffff1673ffffffffffffffffffffffffffffffffffffffff166388253bf1886040518263ffffffff167c01000000000000000000000000000000000000000000000000000000000281526004018082815260200191505060206040518083038186803b15801561231057600080fd5b505afa158015612324573d6000803e3d6000fd5b505050506040513d602081101561233a57600080fd5b8101908080519060200190929190505050614f6090919063ffffffff16565b9050601160009054906101000a900473ffffffffffffffffffffffffffffffffffffffff1673ffffffffffffffffffffffffffffffffffffffff1663e33e4b438660016000600360008b8152602001908152602001600020600101548152602001908152602001600020600301546000856040518563ffffffff167c0100000000000000000000000000000000000000000000000000000000028152600401808581526020018463ffffffff1663ffffffff1681526020018363ffffffff1681526020018267ffffffffffffffff1667ffffffffffffffff168152602001945050505050602060405180830381600087803b15801561245757600080fd5b505af115801561246b573d6000803e3d6000fd5b505050506040513d602081101561248157600080fd5b8101908080519060200190929190505050151561249d57600080fd5b7f04f60fa832335fa9283f85b6733e66c999574b9ec5f77a177a42294759d104598560036000600254815260200190815260200160002060020160009054906101000a900473ffffffffffffffffffffffffffffffffffffffff16600f60009054906101000a900473ffffffffffffffffffffffffffffffffffffffff1673ffffffffffffffffffffffffffffffffffffffff166388253bf1896040518263ffffffff167c01000000000000000000000000000000000000000000000000000000000281526004018082815260200191505060206040518083038186803b15801561258757600080fd5b505afa15801561259b573d6000803e3d6000fd5b505050506040513d60208110156125b157600080fd5b8101908080519060200190929190505050600360008a815260200190815260200160002060010154604051808581526020018473ffffffffffffffffffffffffffffffffffffffff1673ffffffffffffffffffffffffffffffffffffffff16815260200183815260200182815260200194505050505060405180910390a160019350505050919050565b60036020528060005260406000206000915090508060000154908060010154908060020160009054906101000a900473ffffffffffffffffffffffffffffffffffffffff16908060030154905084565b6060600560003373ffffffffffffffffffffffffffffffffffffffff1673ffffffffffffffffffffffffffffffffffffffff16815260200190815260200160002080548060200260200160405190810160405280929190818152602001828054801561271657602002820191906000526020600020905b815481526020019060010190808311612702575b5050505050905090565b600e60009054906101000a900473ffffffffffffffffffffffffffffffffffffffff1681565b6000801515600960009054906101000a900460ff1615151415156127d2576040517f08c379a00000000000000000000000000000000000000000000000000000000081526004018080602001828103825260148152602001807f53486f756c64206e6f742062652050617573656400000000000000000000000081525060200191505060405180910390fd5b600d60009054906101000a900473ffffffffffffffffffffffffffffffffffffffff1673ffffffffffffffffffffffffffffffffffffffff166323b872dd3330856040518463ffffffff167c0100000000000000000000000000000000000000000000000000000000028152600401808473ffffffffffffffffffffffffffffffffffffffff1673ffffffffffffffffffffffffffffffffffffffff1681526020018373ffffffffffffffffffffffffffffffffffffffff1673ffffffffffffffffffffffffffffffffffffffff1681526020018281526020019350505050602060405180830381600087803b1580156128cb57600080fd5b505af11580156128df573d6000803e3d6000fd5b505050506040513d60208110156128f557600080fd5b8101908080519060200190929190505050151561291157600080fd5b600f60009054906101000a900473ffffffffffffffffffffffffffffffffffffffff1673ffffffffffffffffffffffffffffffffffffffff166316d4c016846002546001600088815260200190815260200160002060000154866040518563ffffffff167c010000000000000000000000000000000000000000000000000000000002815260040180858152602001848152602001838152602001828152602001945050505050602060405180830381600087803b1580156129d257600080fd5b505af11580156129e6573d6000803e3d6000fd5b505050506040513d60208110156129fc57600080fd5b81019080805190602001909291905050501515612a1857600080fd5b612a228484614f76565b1515612a2d57600080fd5b600190509392505050565b6000600b60009054906101000a900473ffffffffffffffffffffffffffffffffffffffff1673ffffffffffffffffffffffffffffffffffffffff163373ffffffffffffffffffffffffffffffffffffffff16141515612aff576040517f08c379a00000000000000000000000000000000000000000000000000000000081526004018080602001828103825260208152602001807f4f776e65722054696d65416c6c792073686f756c642062652063616c6c696e6781525060200191505060405180910390fd5b6004600854141515612b1057600080fd5b612b1861523f565b612b20615263565b600080600090506000606490505b600a80549050821015612ea357600a80549050606483011115612bd35781600a8054905003905060008190505b6064811015612bd15760008582606481101515612b7457fe5b602002019073ffffffffffffffffffffffffffffffffffffffff16908173ffffffffffffffffffffffffffffffffffffffff168152505060008682606481101515612bbb57fe5b6020020181815250508080600101915050612b5b565b505b60008090505b81811015612cd957600a818401815481101515612bf257fe5b906000526020600020015493506080600a828501815481101515612c1257fe5b9060005260206000200154908060020a82049150506fffffffffffffffffffffffffffffffff168682606481101515612c4757fe5b6020020181815250506003600085815260200190815260200160002060020160009054906101000a900473ffffffffffffffffffffffffffffffffffffffff168582606481101515612c9557fe5b602002019073ffffffffffffffffffffffffffffffffffffffff16908173ffffffffffffffffffffffffffffffffffffffff16815250508080600101915050612bd9565b50600d60009054906101000a900473ffffffffffffffffffffffffffffffffffffffff1673ffffffffffffffffffffffffffffffffffffffff1663e99e87a185876040518363ffffffff167c01000000000000000000000000000000000000000000000000000000000281526004018083606460200280838360005b83811015612d70578082015181840152602081019050612d55565b5050505090500182606460200280838360005b83811015612d9e578082015181840152602081019050612d83565b5050505090500192505050602060405180830381600087803b158015612dc357600080fd5b505af1158015612dd7573d6000803e3d6000fd5b505050506040513d6020811015612ded57600080fd5b81019080805190602001909291905050501515612e0957600080fd5b7f35b869901d4e09a771e804c476f9c943ffb15f548bd3ffab8134941c436b88fd84866040518083606460200280838360005b83811015612e57578082015181840152602081019050612e3c565b5050505090500182606460200280838360005b83811015612e85578082015181840152602081019050612e6a565b505050509050019250505060405180910390a1606482019150612b2e565b7fcf3827f34f14e604bbf506d08cbb46100c0588f8805fa53079a4037fac15053a60405160405180910390a1600a6000612edd9190615287565b6000600881905550426006819055506000600960006101000a81548160ff02191690831515021790555060019550505050505090565b600c60009054906101000a900473ffffffffffffffffffffffffffffffffffffffff1681565b6000801515600960009054906101000a900460ff161515141515612fc5576040517f08c379a00000000000000000000000000000000000000000000000000000000081526004018080602001828103825260148152602001807f53486f756c64206e6f742062652050617573656400000000000000000000000081525060200191505060405180910390fd5b600b60009054906101000a900473ffffffffffffffffffffffffffffffffffffffff1673ffffffffffffffffffffffffffffffffffffffff163373ffffffffffffffffffffffffffffffffffffffff1614151561308a576040517f08c379a00000000000000000000000000000000000000000000000000000000081526004018080602001828103825260208152602001807f4f776e65722054696d65416c6c792073686f756c642062652063616c6c696e6781525060200191505060405180910390fd5b600d60009054906101000a900473ffffffffffffffffffffffffffffffffffffffff1673ffffffffffffffffffffffffffffffffffffffff166323b872dd3330856040518463ffffffff167c0100000000000000000000000000000000000000000000000000000000028152600401808473ffffffffffffffffffffffffffffffffffffffff1673ffffffffffffffffffffffffffffffffffffffff1681526020018373ffffffffffffffffffffffffffffffffffffffff1673ffffffffffffffffffffffffffffffffffffffff1681526020018281526020019350505050602060405180830381600087803b15801561318357600080fd5b505af1158015613197573d6000803e3d6000fd5b505050506040513d60208110156131ad57600080fd5b810190808051906020019092919050505015156131c957600080fd5b600f60009054906101000a900473ffffffffffffffffffffffffffffffffffffffff1673ffffffffffffffffffffffffffffffffffffffff166331112aa78787600254600160008b815260200190815260200160002060000154886040518663ffffffff167c01000000000000000000000000000000000000000000000000000000000281526004018086815260200185815260200184815260200183815260200180602001828103825283818151815260200191508051906020019060200280838360005b838110156132aa57808201518184015260208101905061328f565b505050509050019650505050505050602060405180830381600087803b1580156132d357600080fd5b505af11580156132e7573d6000803e3d6000fd5b505050506040513d60208110156132fd57600080fd5b8101908080519060200190929190505050151561331957600080fd5b60008090505b8681101561336057613348858281518110151561333857fe5b9060200190602002015187614f76565b151561335357600080fd5b808060010191505061331f565b506001905095945050505050565b6000826003600082815260200190815260200160002060020160009054906101000a900473ffffffffffffffffffffffffffffffffffffffff1673ffffffffffffffffffffffffffffffffffffffff163373ffffffffffffffffffffffffffffffffffffffff1614151561344a576040517f08c379a00000000000000000000000000000000000000000000000000000000081526004018080602001828103825260178152602001807f4f776e65722073686f756c642062652063616c6c696e6700000000000000000081525060200191505060405180910390fd5b83600160036000838152602001908152602001600020600001541415156134d9576040517f08c379a000000000000000000000000000000000000000000000000000000000815260040180806020018281038252601a8152602001807f4c6f616e2073686f756c64206e6f742062652070726573656e7400000000000081525060200191505060405180910390fd5b6135b66002600f60009054906101000a900473ffffffffffffffffffffffffffffffffffffffff1673ffffffffffffffffffffffffffffffffffffffff166388253bf1886040518263ffffffff167c01000000000000000000000000000000000000000000000000000000000281526004018082815260200191505060206040518083038186803b15801561356d57600080fd5b505afa158015613581573d6000803e3d6000fd5b505050506040513d602081101561359757600080fd5b8101908080519060200190929190505050614f6090919063ffffffff16565b841015156135c357600080fd5b600060036000878152602001908152602001600020600101549050600061362e61361f606461361160016000878152602001908152602001600020600101548a61515790919063ffffffff16565b614f6090919063ffffffff16565b8761518f90919063ffffffff16565b9050600f60009054906101000a900473ffffffffffffffffffffffffffffffffffffffff1673ffffffffffffffffffffffffffffffffffffffff16635696866c83896040518363ffffffff167c01000000000000000000000000000000000000000000000000000000000281526004018083815260200182815260200192505050602060405180830381600087803b1580156136c957600080fd5b505af11580156136dd573d6000803e3d6000fd5b505050506040513d60208110156136f357600080fd5b8101908080519060200190929190505050151561370f57600080fd5b601160009054906101000a900473ffffffffffffffffffffffffffffffffffffffff1673ffffffffffffffffffffffffffffffffffffffff1663a5b6074b886001600086815260200190815260200160002060020154896040518463ffffffff167c0100000000000000000000000000000000000000000000000000000000028152600401808481526020018363ffffffff1663ffffffff168152602001826fffffffffffffffffffffffffffffffff166fffffffffffffffffffffffffffffffff1681526020019350505050602060405180830381600087803b1580156137f657600080fd5b505af115801561380a573d6000803e3d6000fd5b505050506040513d602081101561382057600080fd5b8101908080519060200190929190505050151561383c57600080fd5b80600460008981526020019081526020016000208190555060026003600089815260200190815260200160002060000181905550600d60009054906101000a900473ffffffffffffffffffffffffffffffffffffffff1673ffffffffffffffffffffffffffffffffffffffff1663a9059cbb600360008a815260200190815260200160002060020160009054906101000a900473ffffffffffffffffffffffffffffffffffffffff16886040518363ffffffff167c0100000000000000000000000000000000000000000000000000000000028152600401808373ffffffffffffffffffffffffffffffffffffffff1673ffffffffffffffffffffffffffffffffffffffff16815260200182815260200192505050602060405180830381600087803b15801561396b57600080fd5b505af115801561397f573d6000803e3d6000fd5b505050506040513d602081101561399557600080fd5b810190808051906020019092919050505015156139b157600080fd5b7f996e7ad42757a6d9360ee33183941b0c7956cbb6b5cbc24f8914f88688a6b92e8760036000600254815260200190815260200160002060020160009054906101000a900473ffffffffffffffffffffffffffffffffffffffff168885604051808581526020018473ffffffffffffffffffffffffffffffffffffffff1673ffffffffffffffffffffffffffffffffffffffff16815260200183815260200182815260200194505050505060405180910390a1600194505050505092915050565b60005481565b6000600b60009054906101000a900473ffffffffffffffffffffffffffffffffffffffff1673ffffffffffffffffffffffffffffffffffffffff163373ffffffffffffffffffffffffffffffffffffffff16141515613b3f576040517f08c379a00000000000000000000000000000000000000000000000000000000081526004018080602001828103825260208152602001807f4f776e65722054696d65416c6c792073686f756c642062652063616c6c696e6781525060200191505060405180910390fd5b62278d00613b5860065442614f4790919063ffffffff16565b111515613b6457600080fd5b62278d00613c39600d60009054906101000a900473ffffffffffffffffffffffffffffffffffffffff1673ffffffffffffffffffffffffffffffffffffffff16636c6a06096040518163ffffffff167c010000000000000000000000000000000000000000000000000000000002815260040160206040518083038186803b158015613bef57600080fd5b505afa158015613c03573d6000803e3d6000fd5b505050506040513d6020811015613c1957600080fd5b810190808051906020019092919050505042614f4790919063ffffffff16565b101515613c4557600080fd5b6003600854101515613c5657600080fd5b6001600960006101000a81548160ff02191690831515021790555060006008541415614073576000600d60009054906101000a900473ffffffffffffffffffffffffffffffffffffffff1673ffffffffffffffffffffffffffffffffffffffff1663c6b2c5366040518163ffffffff167c010000000000000000000000000000000000000000000000000000000002815260040160206040518083038186803b158015613d0257600080fd5b505afa158015613d16573d6000803e3d6000fd5b505050506040513d6020811015613d2c57600080fd5b810190808051906020019092919050505090506000600f60009054906101000a900473ffffffffffffffffffffffffffffffffffffffff1673ffffffffffffffffffffffffffffffffffffffff1663270d2cbd836000546040518363ffffffff167c01000000000000000000000000000000000000000000000000000000000281526004018083815260200182815260200192505050602060405180830381600087803b158015613ddc57600080fd5b505af1158015613df0573d6000803e3d6000fd5b505050506040513d6020811015613e0657600080fd5b8101908080519060200190929190505050905060008114151561402857600d60009054906101000a900473ffffffffffffffffffffffffffffffffffffffff1673ffffffffffffffffffffffffffffffffffffffff1663d73dd623600c60009054906101000a900473ffffffffffffffffffffffffffffffffffffffff16836040518363ffffffff167c0100000000000000000000000000000000000000000000000000000000028152600401808373ffffffffffffffffffffffffffffffffffffffff1673ffffffffffffffffffffffffffffffffffffffff16815260200182815260200192505050602060405180830381600087803b158015613f0a57600080fd5b505af1158015613f1e573d6000803e3d6000fd5b505050506040513d6020811015613f3457600080fd5b81019080805190602001909291905050501515613f5057600080fd5b600d60009054906101000a900473ffffffffffffffffffffffffffffffffffffffff1673ffffffffffffffffffffffffffffffffffffffff1663382e2aab826040518263ffffffff167c010000000000000000000000000000000000000000000000000000000002815260040180828152602001915050602060405180830381600087803b158015613fe157600080fd5b505af1158015613ff5573d6000803e3d6000fd5b505050506040513d602081101561400b57600080fd5b8101908080519060200190929190505050151561402757600080fd5b5b7f914bcbba8b5fb4c5cff7aa729fbb7cadfc11864085d2449482f23eb5f271215b826040518082815260200191505060405180910390a1600160088190555060085492505050614658565b600160085414156141b6576060601160009054906101000a900473ffffffffffffffffffffffffffffffffffffffff1673ffffffffffffffffffffffffffffffffffffffff1663465972086040518163ffffffff167c0100000000000000000000000000000000000000000000000000000000028152600401600060405180830381600087803b15801561410657600080fd5b505af115801561411a573d6000803e3d6000fd5b505050506040513d6000823e3d601f19601f82011682018060405250602081101561414457600080fd5b81019080805164010000000081111561415c57600080fd5b8281019050602081018481111561417257600080fd5b815185602082028301116401000000008211171561418f57600080fd5b505092919050505090506141a2816151ab565b506002600881905550600854915050614658565b60026008541415614657576060601160009054906101000a900473ffffffffffffffffffffffffffffffffffffffff1673ffffffffffffffffffffffffffffffffffffffff1663042eae5e6040518163ffffffff167c0100000000000000000000000000000000000000000000000000000000028152600401600060405180830381600087803b15801561424957600080fd5b505af115801561425d573d6000803e3d6000fd5b505050506040513d6000823e3d601f19601f82011682018060405250602081101561428757600080fd5b81019080805164010000000081111561429f57600080fd5b828101905060208101848111156142b557600080fd5b81518560208202830111640100000000821117156142d257600080fd5b5050929190505050905060008090505b815181101561464357600082828151811015156142fb57fe5b9060200190602002015190506000600f60009054906101000a900473ffffffffffffffffffffffffffffffffffffffff1673ffffffffffffffffffffffffffffffffffffffff166388253bf1836040518263ffffffff167c01000000000000000000000000000000000000000000000000000000000281526004018082815260200191505060206040518083038186803b15801561439857600080fd5b505afa1580156143ac573d6000803e3d6000fd5b505050506040513d60208110156143c257600080fd5b81019080805190602001909291905050509050600d60009054906101000a900473ffffffffffffffffffffffffffffffffffffffff1673ffffffffffffffffffffffffffffffffffffffff1663d73dd623600c60009054906101000a900473ffffffffffffffffffffffffffffffffffffffff16836040518363ffffffff167c0100000000000000000000000000000000000000000000000000000000028152600401808373ffffffffffffffffffffffffffffffffffffffff1673ffffffffffffffffffffffffffffffffffffffff16815260200182815260200192505050602060405180830381600087803b1580156144bc57600080fd5b505af11580156144d0573d6000803e3d6000fd5b505050506040513d60208110156144e657600080fd5b8101908080519060200190929190505050151561450257600080fd5b600d60009054906101000a900473ffffffffffffffffffffffffffffffffffffffff1673ffffffffffffffffffffffffffffffffffffffff166341aaa9b6826040518263ffffffff167c010000000000000000000000000000000000000000000000000000000002815260040180828152602001915050602060405180830381600087803b15801561459357600080fd5b505af11580156145a7573d6000803e3d6000fd5b505050506040513d60208110156145bd57600080fd5b810190808051906020019092919050505015156145d957600080fd5b600460036000848152602001908152602001600020600001819055507f25a3953cd3d7c557e600dfe04044fff77b29c22b88324be16dc3a1ec7fbb77fc8282604051808381526020018281526020019250505060405180910390a1505080806001019150506142e2565b506003600881905550600854915050614658565b5b90565b6000600b60009054906101000a900473ffffffffffffffffffffffffffffffffffffffff1673ffffffffffffffffffffffffffffffffffffffff163373ffffffffffffffffffffffffffffffffffffffff16141515614722576040517f08c379a00000000000000000000000000000000000000000000000000000000081526004018080602001828103825260208152602001807f4f776e65722054696d65416c6c792073686f756c642062652063616c6c696e6781525060200191505060405180910390fd5b600360085414151561473357600080fd5b6000546007541115151561474657600080fd5b60606000600f60009054906101000a900473ffffffffffffffffffffffffffffffffffffffff1673ffffffffffffffffffffffffffffffffffffffff1663d41f82ed600754866040518363ffffffff167c01000000000000000000000000000000000000000000000000000000000281526004018083815260200182815260200192505050600060405180830381600087803b1580156147e557600080fd5b505af11580156147f9573d6000803e3d6000fd5b505050506040513d6000823e3d601f19601f82011682018060405250604081101561482357600080fd5b81019080805164010000000081111561483b57600080fd5b8281019050602081018481111561485157600080fd5b815185602082028301116401000000008211171561486e57600080fd5b5050929190602001805190602001909291905050508092508193505050614894826151ab565b506001151581151514156148ee577f58c12b9e3cbbd25ed0b1885a003b57070468638fcf8766790f797cf665073aee6007546040518082815260200191505060405180910390a16007600081548092919060010191905055505b6000546007541115614937577fe03be865da724565d1ca0055178b8ec132c669644338713e09f79bcbb2545ad860405160405180910390a1600460088190555060006007819055505b8092505050919050565b600080600080846003600082815260200190815260200160002060020160009054906101000a900473ffffffffffffffffffffffffffffffffffffffff1673ffffffffffffffffffffffffffffffffffffffff163373ffffffffffffffffffffffffffffffffffffffff16141515614a21576040517f08c379a00000000000000000000000000000000000000000000000000000000081526004018080602001828103825260178152602001807f4f776e65722073686f756c642062652063616c6c696e6700000000000000000081525060200191505060405180910390fd5b60036000600254815260200190815260200160002060000154600360006002548152602001908152602001600020600301546003600060025481526020019081526020016000206001015460036000600254815260200190815260200160002060020160009054906101000a900473ffffffffffffffffffffffffffffffffffffffff169450945094509450509193509193565b6000806000836003600082815260200190815260200160002060020160009054906101000a900473ffffffffffffffffffffffffffffffffffffffff1673ffffffffffffffffffffffffffffffffffffffff163373ffffffffffffffffffffffffffffffffffffffff16141515614b94576040517f08c379a00000000000000000000000000000000000000000000000000000000081526004018080602001828103825260178152602001807f4f776e65722073686f756c642062652063616c6c696e6700000000000000000081525060200191505060405180910390fd5b6000806000601160009054906101000a900473ffffffffffffffffffffffffffffffffffffffff1673ffffffffffffffffffffffffffffffffffffffff1663167cb8aa896040518263ffffffff167c01000000000000000000000000000000000000000000000000000000000281526004018082815260200191505060606040518083038186803b158015614c2857600080fd5b505afa158015614c3c573d6000803e3d6000fd5b505050506040513d6060811015614c5257600080fd5b81019080805190602001909291908051906020019092919080519060200190929190505050925092509250828282965096509650505050509193909250565b6000600b60009054906101000a900473ffffffffffffffffffffffffffffffffffffffff1673ffffffffffffffffffffffffffffffffffffffff163373ffffffffffffffffffffffffffffffffffffffff16141515614d58576040517f08c379a00000000000000000000000000000000000000000000000000000000081526004018080602001828103825260208152602001807f4f776e65722054696d65416c6c792073686f756c642062652063616c6c696e6781525060200191505060405180910390fd5b82600e60006101000a81548173ffffffffffffffffffffffffffffffffffffffff021916908373ffffffffffffffffffffffffffffffffffffffff160217905550600e60009054906101000a900473ffffffffffffffffffffffffffffffffffffffff16600f60006101000a81548173ffffffffffffffffffffffffffffffffffffffff021916908373ffffffffffffffffffffffffffffffffffffffff16021790555081601060006101000a81548173ffffffffffffffffffffffffffffffffffffffff021916908373ffffffffffffffffffffffffffffffffffffffff160217905550601060009054906101000a900473ffffffffffffffffffffffffffffffffffffffff16601160006101000a81548173ffffffffffffffffffffffffffffffffffffffff021916908373ffffffffffffffffffffffffffffffffffffffff1602179055506001905092915050565b601060009054906101000a900473ffffffffffffffffffffffffffffffffffffffff1681565b60065481565b600080600080600160008681526020019081526020016000206001015460016000878152602001908152602001600020600301546001600088815260200190815260200160002060020154600160008981526020019081526020016000206000015493509350935093509193509193565b6000828211151515614f5557fe5b818303905092915050565b60008183811515614f6d57fe5b04905092915050565b6000614f806152a8565b60018160000181815250508281602001818152505083816040019073ffffffffffffffffffffffffffffffffffffffff16908173ffffffffffffffffffffffffffffffffffffffff16815250504281606001818152505080600360006002548152602001908152602001600020600082015181600001556020820151816001015560408201518160020160006101000a81548173ffffffffffffffffffffffffffffffffffffffff021916908373ffffffffffffffffffffffffffffffffffffffff16021790555060608201518160030155905050600560008573ffffffffffffffffffffffffffffffffffffffff1673ffffffffffffffffffffffffffffffffffffffff16815260200190815260200160002060025490806001815401808255809150509060018203906000526020600020016000909192909190915055507f01c42bd7e97a66166063b02fce6924e6656b6c2c61966630165095c4fb0b7b2f6002548585604051808481526020018373ffffffffffffffffffffffffffffffffffffffff1673ffffffffffffffffffffffffffffffffffffffff168152602001828152602001935050505060405180910390a16002600081548092919060010191905055600281905550600191505092915050565b60008083141561516a5760009050615189565b818302905081838281151561517b57fe5b0414151561518557fe5b8090505b92915050565b600081830190508281101515156151a257fe5b80905092915050565b600080600090505b825181101561520c57600a83828151811015156151cc57fe5b90602001906020020151908060018154018082558091505090600182039060005260206000200160009091929091909150555080806001019150506151b3565b5060019050919050565b608060405190810160405280600081526020016000815260200160008152602001600081525090565b610c8060405190810160405280606490602082028038833980820191505090505090565b610c8060405190810160405280606490602082028038833980820191505090505090565b50805460008255906000526020600020908101906152a591906152e7565b50565b6080604051908101604052806000815260200160008152602001600073ffffffffffffffffffffffffffffffffffffffff168152602001600081525090565b61530991905b808211156153055760008160009055506001016152ed565b5090565b9056fea165627a7a72305820bd8b8ff6d9344af8b330518f07f49dae81aa5e4ab8853d8a776300612839ac990029",
  "source": "pragma solidity ^ 0.5.0;\n\nimport \"./TimeAllyCore.sol\";\n\n\ncontract TimeAlly is TimeAllyCore{\n\n  using SafeMath for uint256;\n\n  event ContractCreated(uint256 contractid, address owner, uint256 planid);\n  event PlanCreated(uint256 planid);\n  event WindupInitiated(uint256 contractid, address owner, uint256 amount, uint256 planid);\n  event LoanTaken(uint256 contractid, address owner, uint256 loanamnt, uint256 planid);\n  event LoanRepayed(uint256 contractid, address owner, uint256 loanamnt, uint256 interest, uint256 planid);\n  event OwnershipTransfered(uint256 contractid, address owner, address newowner);\n\n\n\n  modifier OnlyContractOwner(uint256 contractid) {\n    require(msg.sender == Contracts[contractid].owner, \"Owner should be calling\");\n    _;\n  }\n\n\n  /**\n  * @dev Modifier\n  */\n  //todo: this also should check whther the contract have any active loans or not\n  modifier CanBeWindedUp(uint256 contractID) {\n    require(((now.sub(Contracts[contractID].timestamp)) >= Plans[Contracts[contractID].planid].PlanPeriod), \"Contract can only be ended after 2 years\");\n    require(Contracts[contractID].status == 1);\n    _;\n  }\n\n  /**\n  * @dev Modifier\n  */\n  modifier LoanCanBeTaken(uint256 contractID) {\n    require(Contracts[contractID].status == 1, \"Loan should not be present\");\n    _;\n  }\n\n  /**\n  * @dev Modifier\n  */\n  modifier LoanCanBeRepayed(uint256 contractID) {\n    require(Contracts[contractID].status == 2, \"Loan should not be present\");\n    _;\n  }\n\n\n\n  /**\n  * @dev Function\n  */\n\n  function ViewContract(uint256 contractID) public view OnlyContractOwner(contractID) returns(uint256, uint256, uint256, address) {\n    return (Contracts[ContractID].status, Contracts[ContractID].timestamp, Contracts[ContractID].planid, Contracts[ContractID].owner);\n  }\n  function ViewUserStakes(uint256 contractID) public view OnlyContractOwner(contractID) returns(uint256, uint256, uint256) {\n    (uint256 a, uint256 b, uint256 c) = staking.ViewStake(contractID);\n    return (a, b, c);\n  }\n  function ViewUserLoan(uint256 contractID) public view OnlyContractOwner(contractID) returns(uint256, uint256, uint256) {\n    (uint256 a, uint256 b, uint256 c) = loanAndRefund.ViewLoan(contractID);\n    return (a, b, c);\n  }\n  function ViewUserRefund(uint256 contractID) public view OnlyContractOwner(contractID) returns(uint256, uint256, uint256) {\n    (uint256 a, uint256 b, uint256 c) = loanAndRefund.ViewRefund(contractID);\n    return (a, b, c);\n  }\n\n  /**\n  * @dev Function\n  */\n\n  function AllContracts() public view returns(uint256[] memory) {\n    return (ContractIds[msg.sender]);\n  }\n\n  /**\n  * @dev Function\n  */\n\n  function PlanDetails(uint256 planID) public view returns(uint256, uint256, uint256, uint256) {\n    return (Plans[planID].LoanInterestRate, Plans[planID].RefundWeeks, Plans[planID].LoanPeriod, Plans[planID].PlanPeriod);\n}\n\n\n  /**\n   * @dev Function to create a contract\n   * @return orderId of created\n   */\n\n  function CreateContract(address owner, uint256 planid, uint256 stakedamount) public NotPaused() returns(bool) {\n    require(EraswapTokens.transferFrom(msg.sender, address(this), stakedamount));\n   require(staking.AddStake(planid, ContractID, Plans[planid].PlanPeriod, stakedamount));\n   require(NewContract(owner, planid));\n    return true;\n  }\n\n  /**\n   * @dev To create staking contract by batch\n   * @return orderIds of created contracts\n   */\n\n  function CreateContractsByBatch(uint256 batchlength, uint256 planid, address[] memory contractOwner, uint256[] memory amount, uint256 total) public NotPaused() OnlyOwner() returns(bool) {\n     require(EraswapTokens.transferFrom(msg.sender, address(this), total));\n    require(staking.BatchAddStake(batchlength, planid, ContractID, Plans[planid].PlanPeriod, amount));\n    for (uint i = 0; i < batchlength; i++) {\n         require(NewContract(contractOwner[i], planid));\n    }\n    return true;\n  }\n\n  function NewContract(address contractOwner, uint256 planID) internal returns(bool) {\n    Contract memory tempContract;\n    tempContract.status = 1;\n    tempContract.planid = planID;\n    tempContract.owner = contractOwner;\n    tempContract.timestamp = now;\n    Contracts[ContractID] = tempContract;\n    ContractIds[contractOwner].push(ContractID);\n    emit ContractCreated(ContractID, contractOwner, planID);\n    ContractID = ContractID++;\n    return true;\n  }\n\n  /**\n  * @dev Function\n  */\n  function CreatePlan(uint256 planperiod, uint256 loanInterestRate, uint256 loanPeriod, uint256 refundWeeks) public NotPaused() OnlyOwner() returns(bool) {\n    TimeAllyPlan memory tempPlan;\n    tempPlan.PlanPeriod = planperiod;\n    tempPlan.LoanInterestRate = loanInterestRate;\n    tempPlan.LoanPeriod = loanPeriod;\n    tempPlan.RefundWeeks = refundWeeks;\n    Plans[PlanID] = tempPlan;\n    emit PlanCreated(PlanID);\n    PlanID = PlanID++;\n    return true;\n  }\n\n\n  /**\n  * @dev Function\n  */\n\n  function windUpContract(uint256 contractID) external OnlyContractOwner(contractID) CanBeWindedUp(contractID) returns(bool) {\n    require(staking.Pause(Contracts[contractID].planid, contractID));\n    Contracts[contractID].status = 3;\n    uint256 refundAmount = (staking.ViewStakedAmount(contractID)).div(Plans[Contracts[contractID].planid].RefundWeeks);\n    require(loanAndRefund.AddRefund(contractID, uint32(Plans[Contracts[contractID].planid].RefundWeeks), 0, uint64(refundAmount)));\n    emit WindupInitiated(contractID, Contracts[ContractID].owner, staking.ViewStakedAmount(contractID), Contracts[contractID].planid);\n    return true;\n  }\n\n  /**\n  * @dev Function\n  */\n\n  function takeLoan(uint256 contractID, uint256 loanamount) external OnlyContractOwner(contractID) LoanCanBeTaken(contractID) returns(bool) {\n    require(loanamount < ((staking.ViewStakedAmount(contractID)).div(2)));\n    uint256 planid = Contracts[contractID].planid;\n    uint256 repayamount = loanamount.add((loanamount.mul(Plans[planid].LoanInterestRate)).div(100));\n    require(staking.Pause(planid, contractID));\n    require(loanAndRefund.AddLoan(contractID, uint32(Plans[planid].LoanPeriod), uint128(loanamount)));\n    LoanRepaymentAmount[contractID] = repayamount;\n    Contracts[contractID].status = 2;\n    require(EraswapTokens.transfer(Contracts[contractID].owner, loanamount));\n    emit LoanTaken(contractID, Contracts[ContractID].owner, loanamount, planid);\n    return true;\n  }\n\n  /**\n  * @dev Function\n  */\n\n  function rePayLoan(uint256 contractID) external OnlyContractOwner(contractID) LoanCanBeRepayed(contractID) returns(bool) {\n    require(EraswapTokens.allowance(msg.sender, address(this)) >= LoanRepaymentAmount[contractID]);\n    require(EraswapTokens.transferFrom(msg.sender, address(this), LoanRepaymentAmount[contractID]));\n    require(loanAndRefund.RemoveLoan(contractID));\n    uint256 planid = Contracts[contractID].planid;\n    ( , , uint256 amount) = loanAndRefund.ViewLoan(contractID);\n    uint256 luckPoolBal = LoanRepaymentAmount[contractID].sub(amount);\n    require(EraswapTokens.increaseApproval(EraswapTokenAddress, luckPoolBal));\n    require(EraswapTokens.UpdateLuckpool(luckPoolBal));\n    require(staking.Resume(planid, contractID));\n    Contracts[contractID].status = 1;\n    emit LoanRepayed(contractID, Contracts[ContractID].owner, amount, luckPoolBal, planid);\n    return true;\n  }\n\n\n\n  /**\n   * @dev To Transfer Staking Ownership\n   * @return bool true if ownership successfully transffered\n   */\n  function transferOwnership(uint256 contractid, address newowner) public OnlyContractOwner(contractid) LoanCanBeTaken(contractid) returns(bool) {\n    emit OwnershipTransfered(contractid, Contracts[contractid].owner, newowner);\n    Contracts[contractid].owner = newowner;\n    return true;\n  }\n\n  /**\n   * @dev Constructor\n   */\n\n  constructor(address eraswapTokenAddress) public {\n    EraswapTokenAddress = eraswapTokenAddress;\n    EraswapTokens = EraswapToken(eraswapTokenAddress);\n  }\n\n}\n\n",
  "sourcePath": "/home/osiz/Desktop/Truffle/contracts/TimeAlly.sol",
  "compiler": {
    "name": "solc",
    "version": "0.5.0+commit.1d4f565a.Emscripten.clang"
  },
  "schemaVersion": "3.0.6",
  "updatedAt": "2019-05-07T06:15:54.333Z",
  "devdoc": {
    "methods": {
      "AllContracts()": {
        "details": "Function"
      },
      "CreateContract(address,uint256,uint256)": {
        "details": "Function to create a contract",
        "return": "orderId of created"
      },
      "CreateContractsByBatch(uint256,uint256,address[],uint256[],uint256)": {
        "details": "To create staking contract by batch",
        "return": "orderIds of created contracts"
      },
      "CreatePlan(uint256,uint256,uint256,uint256)": {
        "details": "Function"
      },
      "PlanDetails(uint256)": {
        "details": "Function"
      },
      "ViewContract(uint256)": {
        "details": "Function"
      },
      "constructor": {
        "details": "Constructor"
      },
      "rePayLoan(uint256)": {
        "details": "Function"
      },
      "takeLoan(uint256,uint256)": {
        "details": "Function"
      },
      "transferOwnership(uint256,address)": {
        "details": "To Transfer Staking Ownership",
        "return": "bool true if ownership successfully transffered"
      },
      "windUpContract(uint256)": {
        "details": "Function"
      }
    }
  },
  "userdoc": {
    "methods": {}
  }
}