{
  "contractName": "TimeAllyCore",
  "abi": [
    {
      "constant": true,
      "inputs": [],
      "name": "PlanHandlerCount",
      "outputs": [
        {
          "name": "",
          "type": "uint256"
        }
      ],
      "payable": false,
      "stateMutability": "view",
      "type": "function"
    },
    {
      "constant": true,
      "inputs": [
        {
          "name": "",
          "type": "uint256"
        }
      ],
      "name": "Plans",
      "outputs": [
        {
          "name": "PlanPeriod",
          "type": "uint256"
        },
        {
          "name": "LoanInterestRate",
          "type": "uint256"
        },
        {
          "name": "LoanPeriod",
          "type": "uint256"
        },
        {
          "name": "RefundWeeks",
          "type": "uint256"
        }
      ],
      "payable": false,
      "stateMutability": "view",
      "type": "function"
    },
    {
      "constant": true,
      "inputs": [
        {
          "name": "",
          "type": "uint256"
        }
      ],
      "name": "TokenTransferList",
      "outputs": [
        {
          "name": "",
          "type": "uint256"
        }
      ],
      "payable": false,
      "stateMutability": "view",
      "type": "function"
    },
    {
      "constant": true,
      "inputs": [],
      "name": "ContractID",
      "outputs": [
        {
          "name": "",
          "type": "uint256"
        }
      ],
      "payable": false,
      "stateMutability": "view",
      "type": "function"
    },
    {
      "constant": true,
      "inputs": [
        {
          "name": "",
          "type": "uint256"
        }
      ],
      "name": "LoanRepaymentAmount",
      "outputs": [
        {
          "name": "",
          "type": "uint256"
        }
      ],
      "payable": false,
      "stateMutability": "view",
      "type": "function"
    },
    {
      "constant": true,
      "inputs": [],
      "name": "MonthlyHandlerCount",
      "outputs": [
        {
          "name": "",
          "type": "uint256"
        }
      ],
      "payable": false,
      "stateMutability": "view",
      "type": "function"
    },
    {
      "constant": true,
      "inputs": [
        {
          "name": "",
          "type": "uint256"
        }
      ],
      "name": "Contracts",
      "outputs": [
        {
          "name": "status",
          "type": "uint256"
        },
        {
          "name": "planid",
          "type": "uint256"
        },
        {
          "name": "owner",
          "type": "address"
        },
        {
          "name": "timestamp",
          "type": "uint256"
        }
      ],
      "payable": false,
      "stateMutability": "view",
      "type": "function"
    },
    {
      "constant": true,
      "inputs": [],
      "name": "StakingAddress",
      "outputs": [
        {
          "name": "",
          "type": "address"
        }
      ],
      "payable": false,
      "stateMutability": "view",
      "type": "function"
    },
    {
      "constant": true,
      "inputs": [],
      "name": "EraswapTokenAddress",
      "outputs": [
        {
          "name": "",
          "type": "address"
        }
      ],
      "payable": false,
      "stateMutability": "view",
      "type": "function"
    },
    {
      "constant": true,
      "inputs": [],
      "name": "PlanID",
      "outputs": [
        {
          "name": "",
          "type": "uint256"
        }
      ],
      "payable": false,
      "stateMutability": "view",
      "type": "function"
    },
    {
      "constant": true,
      "inputs": [],
      "name": "LoanandRefundAddress",
      "outputs": [
        {
          "name": "",
          "type": "address"
        }
      ],
      "payable": false,
      "stateMutability": "view",
      "type": "function"
    },
    {
      "constant": true,
      "inputs": [],
      "name": "LastMonthlyHandler",
      "outputs": [
        {
          "name": "",
          "type": "uint256"
        }
      ],
      "payable": false,
      "stateMutability": "view",
      "type": "function"
    },
    {
      "inputs": [],
      "payable": false,
      "stateMutability": "nonpayable",
      "type": "constructor"
    },
    {
      "anonymous": false,
      "inputs": [
        {
          "indexed": false,
          "name": "nrt",
          "type": "uint256"
        }
      ],
      "name": "NRTRecieved",
      "type": "event"
    },
    {
      "anonymous": false,
      "inputs": [
        {
          "indexed": false,
          "name": "user",
          "type": "address"
        },
        {
          "indexed": false,
          "name": "amount",
          "type": "uint256"
        }
      ],
      "name": "MonthlyPaymentsHandler",
      "type": "event"
    },
    {
      "anonymous": false,
      "inputs": [
        {
          "indexed": false,
          "name": "contractid",
          "type": "uint256"
        },
        {
          "indexed": false,
          "name": "amount",
          "type": "uint256"
        }
      ],
      "name": "ContractBurned",
      "type": "event"
    },
    {
      "anonymous": false,
      "inputs": [
        {
          "indexed": false,
          "name": "id",
          "type": "uint256"
        }
      ],
      "name": "PlanHandlercompleted",
      "type": "event"
    },
    {
      "anonymous": false,
      "inputs": [],
      "name": "MonthlyPlanHandlerscompleted",
      "type": "event"
    },
    {
      "anonymous": false,
      "inputs": [],
      "name": "MonthlyPaymentHandlercompleted",
      "type": "event"
    },
    {
      "anonymous": false,
      "inputs": [
        {
          "indexed": false,
          "name": "",
          "type": "address[100]"
        },
        {
          "indexed": false,
          "name": "",
          "type": "uint256[100]"
        }
      ],
      "name": "TokenSent",
      "type": "event"
    },
    {
      "constant": false,
      "inputs": [
        {
          "name": "stakingaddress",
          "type": "address"
        },
        {
          "name": "loanandrefundaddress",
          "type": "address"
        }
      ],
      "name": "Setaddress",
      "outputs": [
        {
          "name": "",
          "type": "bool"
        }
      ],
      "payable": false,
      "stateMutability": "nonpayable",
      "type": "function"
    },
    {
      "constant": false,
      "inputs": [],
      "name": "MonthlyMasterHandler",
      "outputs": [
        {
          "name": "",
          "type": "uint256"
        }
      ],
      "payable": false,
      "stateMutability": "nonpayable",
      "type": "function"
    },
    {
      "constant": false,
      "inputs": [
        {
          "name": "Size",
          "type": "uint256"
        }
      ],
      "name": "MonthlyPlansHandler",
      "outputs": [
        {
          "name": "",
          "type": "bool"
        }
      ],
      "payable": false,
      "stateMutability": "nonpayable",
      "type": "function"
    },
    {
      "constant": false,
      "inputs": [],
      "name": "MonthlyPaymentHandler",
      "outputs": [
        {
          "name": "",
          "type": "bool"
        }
      ],
      "payable": false,
      "stateMutability": "nonpayable",
      "type": "function"
    }
  ],
  "bytecode": "0x6080604052600080556000600255600060075560006008556000600960006101000a81548160ff02191690831515021790555034801561003e57600080fd5b504260068190555033600b60006101000a81548173ffffffffffffffffffffffffffffffffffffffff021916908373ffffffffffffffffffffffffffffffffffffffff160217905550611dd5806100966000396000f3fe6080604052600436106100e6576000357c0100000000000000000000000000000000000000000000000000000000900463ffffffff1680630bf8344f146100eb578063395713d7146101165780634aff96b11461017a5780635325b88c146101c957806362479bab146101f45780637ea6646f146102435780638a7955031461026e578063953fb4fb146102fe5780639c99414a146103555780639ddbe3e914610384578063a813ed79146103db578063bf3f38e014610406578063bffb9f4414610431578063e4bd326b14610484578063e5ee3f9d1461050d578063f80e150814610564575b600080fd5b3480156100f757600080fd5b5061010061058f565b6040518082815260200191505060405180910390f35b34801561012257600080fd5b5061014f6004803603602081101561013957600080fd5b8101908080359060200190929190505050610595565b6040518085815260200184815260200183815260200182815260200194505050505060405180910390f35b34801561018657600080fd5b506101b36004803603602081101561019d57600080fd5b81019080803590602001909291905050506105c5565b6040518082815260200191505060405180910390f35b3480156101d557600080fd5b506101de6105e8565b6040518082815260200191505060405180910390f35b34801561020057600080fd5b5061022d6004803603602081101561021757600080fd5b81019080803590602001909291905050506105ee565b6040518082815260200191505060405180910390f35b34801561024f57600080fd5b50610258610606565b6040518082815260200191505060405180910390f35b34801561027a57600080fd5b506102a76004803603602081101561029157600080fd5b810190808035906020019092919050505061060c565b604051808581526020018481526020018373ffffffffffffffffffffffffffffffffffffffff1673ffffffffffffffffffffffffffffffffffffffff16815260200182815260200194505050505060405180910390f35b34801561030a57600080fd5b5061031361065c565b604051808273ffffffffffffffffffffffffffffffffffffffff1673ffffffffffffffffffffffffffffffffffffffff16815260200191505060405180910390f35b34801561036157600080fd5b5061036a610682565b604051808215151515815260200191505060405180910390f35b34801561039057600080fd5b50610399610b5d565b604051808273ffffffffffffffffffffffffffffffffffffffff1673ffffffffffffffffffffffffffffffffffffffff16815260200191505060405180910390f35b3480156103e757600080fd5b506103f0610b83565b6040518082815260200191505060405180910390f35b34801561041257600080fd5b5061041b610b89565b6040518082815260200191505060405180910390f35b34801561043d57600080fd5b5061046a6004803603602081101561045457600080fd5b810190808035906020019092919050505061176c565b604051808215151515815260200191505060405180910390f35b34801561049057600080fd5b506104f3600480360360408110156104a757600080fd5b81019080803573ffffffffffffffffffffffffffffffffffffffff169060200190929190803573ffffffffffffffffffffffffffffffffffffffff169060200190929190505050611a52565b604051808215151515815260200191505060405180910390f35b34801561051957600080fd5b50610522611c6b565b604051808273ffffffffffffffffffffffffffffffffffffffff1673ffffffffffffffffffffffffffffffffffffffff16815260200191505060405180910390f35b34801561057057600080fd5b50610579611c91565b6040518082815260200191505060405180910390f35b60075481565b60016020528060005260406000206000915090508060000154908060010154908060020154908060030154905084565b600a818154811015156105d457fe5b906000526020600020016000915090505481565b60025481565b60046020528060005260406000206000915090505481565b60085481565b60036020528060005260406000206000915090508060000154908060010154908060020160009054906101000a900473ffffffffffffffffffffffffffffffffffffffff16908060030154905084565b600e60009054906101000a900473ffffffffffffffffffffffffffffffffffffffff1681565b6000600b60009054906101000a900473ffffffffffffffffffffffffffffffffffffffff1673ffffffffffffffffffffffffffffffffffffffff163373ffffffffffffffffffffffffffffffffffffffff16141515610749576040517f08c379a00000000000000000000000000000000000000000000000000000000081526004018080602001828103825260208152602001807f4f776e65722054696d65416c6c792073686f756c642062652063616c6c696e6781525060200191505060405180910390fd5b600460085414151561075a57600080fd5b610762611d1b565b61076a611d3f565b600080600090506000606490505b600a80549050821015610aed57600a8054905060648301111561081d5781600a8054905003905060008190505b606481101561081b57600085826064811015156107be57fe5b602002019073ffffffffffffffffffffffffffffffffffffffff16908173ffffffffffffffffffffffffffffffffffffffff16815250506000868260648110151561080557fe5b60200201818152505080806001019150506107a5565b505b60008090505b8181101561092357600a81840181548110151561083c57fe5b906000526020600020015493506080600a82850181548110151561085c57fe5b9060005260206000200154908060020a82049150506fffffffffffffffffffffffffffffffff16868260648110151561089157fe5b6020020181815250506003600085815260200190815260200160002060020160009054906101000a900473ffffffffffffffffffffffffffffffffffffffff1685826064811015156108df57fe5b602002019073ffffffffffffffffffffffffffffffffffffffff16908173ffffffffffffffffffffffffffffffffffffffff16815250508080600101915050610823565b50600d60009054906101000a900473ffffffffffffffffffffffffffffffffffffffff1673ffffffffffffffffffffffffffffffffffffffff1663e99e87a185876040518363ffffffff167c01000000000000000000000000000000000000000000000000000000000281526004018083606460200280838360005b838110156109ba57808201518184015260208101905061099f565b5050505090500182606460200280838360005b838110156109e85780820151818401526020810190506109cd565b5050505090500192505050602060405180830381600087803b158015610a0d57600080fd5b505af1158015610a21573d6000803e3d6000fd5b505050506040513d6020811015610a3757600080fd5b81019080805190602001909291905050501515610a5357600080fd5b7f35b869901d4e09a771e804c476f9c943ffb15f548bd3ffab8134941c436b88fd84866040518083606460200280838360005b83811015610aa1578082015181840152602081019050610a86565b5050505090500182606460200280838360005b83811015610acf578082015181840152602081019050610ab4565b505050509050019250505060405180910390a1606482019150610778565b7fcf3827f34f14e604bbf506d08cbb46100c0588f8805fa53079a4037fac15053a60405160405180910390a1600a6000610b279190611d63565b6000600881905550426006819055506000600960006101000a81548160ff02191690831515021790555060019550505050505090565b600c60009054906101000a900473ffffffffffffffffffffffffffffffffffffffff1681565b60005481565b6000600b60009054906101000a900473ffffffffffffffffffffffffffffffffffffffff1673ffffffffffffffffffffffffffffffffffffffff163373ffffffffffffffffffffffffffffffffffffffff16141515610c50576040517f08c379a00000000000000000000000000000000000000000000000000000000081526004018080602001828103825260208152602001807f4f776e65722054696d65416c6c792073686f756c642062652063616c6c696e6781525060200191505060405180910390fd5b62278d00610c6960065442611c9790919063ffffffff16565b111515610c7557600080fd5b62278d00610d4a600d60009054906101000a900473ffffffffffffffffffffffffffffffffffffffff1673ffffffffffffffffffffffffffffffffffffffff16636c6a06096040518163ffffffff167c010000000000000000000000000000000000000000000000000000000002815260040160206040518083038186803b158015610d0057600080fd5b505afa158015610d14573d6000803e3d6000fd5b505050506040513d6020811015610d2a57600080fd5b810190808051906020019092919050505042611c9790919063ffffffff16565b101515610d5657600080fd5b6003600854101515610d6757600080fd5b6001600960006101000a81548160ff02191690831515021790555060006008541415611184576000600d60009054906101000a900473ffffffffffffffffffffffffffffffffffffffff1673ffffffffffffffffffffffffffffffffffffffff1663c6b2c5366040518163ffffffff167c010000000000000000000000000000000000000000000000000000000002815260040160206040518083038186803b158015610e1357600080fd5b505afa158015610e27573d6000803e3d6000fd5b505050506040513d6020811015610e3d57600080fd5b810190808051906020019092919050505090506000600f60009054906101000a900473ffffffffffffffffffffffffffffffffffffffff1673ffffffffffffffffffffffffffffffffffffffff1663270d2cbd836000546040518363ffffffff167c01000000000000000000000000000000000000000000000000000000000281526004018083815260200182815260200192505050602060405180830381600087803b158015610eed57600080fd5b505af1158015610f01573d6000803e3d6000fd5b505050506040513d6020811015610f1757600080fd5b8101908080519060200190929190505050905060008114151561113957600d60009054906101000a900473ffffffffffffffffffffffffffffffffffffffff1673ffffffffffffffffffffffffffffffffffffffff1663d73dd623600c60009054906101000a900473ffffffffffffffffffffffffffffffffffffffff16836040518363ffffffff167c0100000000000000000000000000000000000000000000000000000000028152600401808373ffffffffffffffffffffffffffffffffffffffff1673ffffffffffffffffffffffffffffffffffffffff16815260200182815260200192505050602060405180830381600087803b15801561101b57600080fd5b505af115801561102f573d6000803e3d6000fd5b505050506040513d602081101561104557600080fd5b8101908080519060200190929190505050151561106157600080fd5b600d60009054906101000a900473ffffffffffffffffffffffffffffffffffffffff1673ffffffffffffffffffffffffffffffffffffffff1663382e2aab826040518263ffffffff167c010000000000000000000000000000000000000000000000000000000002815260040180828152602001915050602060405180830381600087803b1580156110f257600080fd5b505af1158015611106573d6000803e3d6000fd5b505050506040513d602081101561111c57600080fd5b8101908080519060200190929190505050151561113857600080fd5b5b7f914bcbba8b5fb4c5cff7aa729fbb7cadfc11864085d2449482f23eb5f271215b826040518082815260200191505060405180910390a1600160088190555060085492505050611769565b600160085414156112c7576060601160009054906101000a900473ffffffffffffffffffffffffffffffffffffffff1673ffffffffffffffffffffffffffffffffffffffff1663465972086040518163ffffffff167c0100000000000000000000000000000000000000000000000000000000028152600401600060405180830381600087803b15801561121757600080fd5b505af115801561122b573d6000803e3d6000fd5b505050506040513d6000823e3d601f19601f82011682018060405250602081101561125557600080fd5b81019080805164010000000081111561126d57600080fd5b8281019050602081018481111561128357600080fd5b81518560208202830111640100000000821117156112a057600080fd5b505092919050505090506112b381611cb0565b506002600881905550600854915050611769565b60026008541415611768576060601160009054906101000a900473ffffffffffffffffffffffffffffffffffffffff1673ffffffffffffffffffffffffffffffffffffffff1663042eae5e6040518163ffffffff167c0100000000000000000000000000000000000000000000000000000000028152600401600060405180830381600087803b15801561135a57600080fd5b505af115801561136e573d6000803e3d6000fd5b505050506040513d6000823e3d601f19601f82011682018060405250602081101561139857600080fd5b8101908080516401000000008111156113b057600080fd5b828101905060208101848111156113c657600080fd5b81518560208202830111640100000000821117156113e357600080fd5b5050929190505050905060008090505b8151811015611754576000828281518110151561140c57fe5b9060200190602002015190506000600f60009054906101000a900473ffffffffffffffffffffffffffffffffffffffff1673ffffffffffffffffffffffffffffffffffffffff166388253bf1836040518263ffffffff167c01000000000000000000000000000000000000000000000000000000000281526004018082815260200191505060206040518083038186803b1580156114a957600080fd5b505afa1580156114bd573d6000803e3d6000fd5b505050506040513d60208110156114d357600080fd5b81019080805190602001909291905050509050600d60009054906101000a900473ffffffffffffffffffffffffffffffffffffffff1673ffffffffffffffffffffffffffffffffffffffff1663d73dd623600c60009054906101000a900473ffffffffffffffffffffffffffffffffffffffff16836040518363ffffffff167c0100000000000000000000000000000000000000000000000000000000028152600401808373ffffffffffffffffffffffffffffffffffffffff1673ffffffffffffffffffffffffffffffffffffffff16815260200182815260200192505050602060405180830381600087803b1580156115cd57600080fd5b505af11580156115e1573d6000803e3d6000fd5b505050506040513d60208110156115f757600080fd5b8101908080519060200190929190505050151561161357600080fd5b600d60009054906101000a900473ffffffffffffffffffffffffffffffffffffffff1673ffffffffffffffffffffffffffffffffffffffff166341aaa9b6826040518263ffffffff167c010000000000000000000000000000000000000000000000000000000002815260040180828152602001915050602060405180830381600087803b1580156116a457600080fd5b505af11580156116b8573d6000803e3d6000fd5b505050506040513d60208110156116ce57600080fd5b810190808051906020019092919050505015156116ea57600080fd5b600460036000848152602001908152602001600020600001819055507f25a3953cd3d7c557e600dfe04044fff77b29c22b88324be16dc3a1ec7fbb77fc8282604051808381526020018281526020019250505060405180910390a1505080806001019150506113f3565b506003600881905550600854915050611769565b5b90565b6000600b60009054906101000a900473ffffffffffffffffffffffffffffffffffffffff1673ffffffffffffffffffffffffffffffffffffffff163373ffffffffffffffffffffffffffffffffffffffff16141515611833576040517f08c379a00000000000000000000000000000000000000000000000000000000081526004018080602001828103825260208152602001807f4f776e65722054696d65416c6c792073686f756c642062652063616c6c696e6781525060200191505060405180910390fd5b600360085414151561184457600080fd5b6000546007541115151561185757600080fd5b60606000600f60009054906101000a900473ffffffffffffffffffffffffffffffffffffffff1673ffffffffffffffffffffffffffffffffffffffff1663d41f82ed600754866040518363ffffffff167c01000000000000000000000000000000000000000000000000000000000281526004018083815260200182815260200192505050600060405180830381600087803b1580156118f657600080fd5b505af115801561190a573d6000803e3d6000fd5b505050506040513d6000823e3d601f19601f82011682018060405250604081101561193457600080fd5b81019080805164010000000081111561194c57600080fd5b8281019050602081018481111561196257600080fd5b815185602082028301116401000000008211171561197f57600080fd5b50509291906020018051906020019092919050505080925081935050506119a582611cb0565b506001151581151514156119ff577f58c12b9e3cbbd25ed0b1885a003b57070468638fcf8766790f797cf665073aee6007546040518082815260200191505060405180910390a16007600081548092919060010191905055505b6000546007541115611a48577fe03be865da724565d1ca0055178b8ec132c669644338713e09f79bcbb2545ad860405160405180910390a1600460088190555060006007819055505b8092505050919050565b6000600b60009054906101000a900473ffffffffffffffffffffffffffffffffffffffff1673ffffffffffffffffffffffffffffffffffffffff163373ffffffffffffffffffffffffffffffffffffffff16141515611b19576040517f08c379a00000000000000000000000000000000000000000000000000000000081526004018080602001828103825260208152602001807f4f776e65722054696d65416c6c792073686f756c642062652063616c6c696e6781525060200191505060405180910390fd5b82600e60006101000a81548173ffffffffffffffffffffffffffffffffffffffff021916908373ffffffffffffffffffffffffffffffffffffffff160217905550600e60009054906101000a900473ffffffffffffffffffffffffffffffffffffffff16600f60006101000a81548173ffffffffffffffffffffffffffffffffffffffff021916908373ffffffffffffffffffffffffffffffffffffffff16021790555081601060006101000a81548173ffffffffffffffffffffffffffffffffffffffff021916908373ffffffffffffffffffffffffffffffffffffffff160217905550601060009054906101000a900473ffffffffffffffffffffffffffffffffffffffff16601160006101000a81548173ffffffffffffffffffffffffffffffffffffffff021916908373ffffffffffffffffffffffffffffffffffffffff1602179055506001905092915050565b601060009054906101000a900473ffffffffffffffffffffffffffffffffffffffff1681565b60065481565b6000828211151515611ca557fe5b818303905092915050565b600080600090505b8251811015611d1157600a8382815181101515611cd157fe5b9060200190602002015190806001815401808255809150509060018203906000526020600020016000909192909190915055508080600101915050611cb8565b5060019050919050565b610c8060405190810160405280606490602082028038833980820191505090505090565b610c8060405190810160405280606490602082028038833980820191505090505090565b5080546000825590600052602060002090810190611d819190611d84565b50565b611da691905b80821115611da2576000816000905550600101611d8a565b5090565b9056fea165627a7a7230582007900a6949e8d64fc1cf72d931a24c55e59cd1ae20995c9eda82927b09f31b890029",
  "source": "pragma solidity ^0.5.0;\n\nimport \"./SafeMath.sol\";\nimport \"./Staking.sol\";\nimport \"./LoanAndRefund.sol\";\nimport \"./EraswapToken.sol\";\n\ncontract TimeAllyCore {\n\nusing SafeMath for uint256;\n\n  struct TimeAllyPlan{                         //Structure to store details of different Plans\n  uint256 PlanPeriod;\n  uint256 LoanInterestRate;\n  uint256 LoanPeriod;\n  uint256 RefundWeeks;\n  }\n  uint256 public PlanID = 0;\n  mapping (uint256 => TimeAllyPlan) public Plans;\n\n  struct Contract {\n  uint256 status;\n  uint256 planid;\n  address owner;\n  uint256 timestamp;\n  }\n  uint256 public ContractID = 0;\n  mapping (uint256 => Contract) public Contracts;\n  mapping (uint256 => uint256) public LoanRepaymentAmount;\n  mapping (address => uint256[]) ContractIds;\n\n  uint256 public LastMonthlyHandler;\n  uint256 public PlanHandlerCount = 0;\n  uint256 public MonthlyHandlerCount = 0;\n  bool Paused = false;\n\nuint256[] public TokenTransferList;\naddress Owner;\naddress public EraswapTokenAddress;\nEraswapToken EraswapTokens;\naddress public StakingAddress;\nStaking   staking;\naddress public LoanandRefundAddress;\nLoanAndRefund   loanAndRefund;\n\n\nevent NRTRecieved(uint256 nrt);\nevent MonthlyPaymentsHandler(address user, uint256 amount);\nevent ContractBurned(uint256 contractid, uint256 amount);\nevent PlanHandlercompleted(uint256 id);\nevent MonthlyPlanHandlerscompleted();\nevent MonthlyPaymentHandlercompleted();\nevent TokenSent(address[100], uint256[100]);\n\nmodifier OnlyOwner() {\n  require(msg.sender == Owner, \"Owner TimeAlly should be calling\");\n  _;\n}\n\nmodifier NotPaused() {\n  require(Paused == false, \"SHould not be Paused\");\n  _;\n}\n\n\nconstructor() public{\n  LastMonthlyHandler = now;\n  Owner = msg.sender;\n}\n\nfunction Setaddress(address stakingaddress, address loanandrefundaddress) public OnlyOwner() returns(bool){\n    StakingAddress = stakingaddress;\n    staking = Staking(StakingAddress);\n    LoanandRefundAddress = loanandrefundaddress;\n    loanAndRefund = LoanAndRefund(LoanandRefundAddress);\n    return true;\n}\n\n\nfunction MonthlyMasterHandler() external OnlyOwner() returns(uint256){\n  require(now.sub(LastMonthlyHandler)> 30 days);\n  require(now.sub(EraswapTokens.LastNRTRelease())< 30 days);\n  require(MonthlyHandlerCount<3);\n  Paused = true;\n  if(MonthlyHandlerCount == 0){\n  uint256 NRT = EraswapTokens.TimeAllyNRT();\n  uint256 luckPoolBal = staking.MonthlyNRTHandler(NRT, PlanID);\n  if(luckPoolBal != 0){\n    require(EraswapTokens.increaseApproval(EraswapTokenAddress, luckPoolBal));\n    require(EraswapTokens.UpdateLuckpool(luckPoolBal));\n  }\n  emit NRTRecieved(NRT);\n  MonthlyHandlerCount = 1;\n  return MonthlyHandlerCount;\n}\n\n  else if(MonthlyHandlerCount == 1){\n  uint256[] memory RefundList;\n  RefundList = loanAndRefund.MonthlyRefundHandler();\n  AddToTransferList(RefundList);\n  MonthlyHandlerCount = 2;\n  return MonthlyHandlerCount;\n}\n\n  else if(MonthlyHandlerCount == 2){\n  uint256[] memory LoanList;\n  LoanList = loanAndRefund.MonthlyLoanHandler();\n  for (uint256 i = 0; i < LoanList.length; i++) {\n    uint256 contractID = LoanList[i];\n    uint256 amount = staking.ViewStakedAmount(contractID);\n    require(EraswapTokens.increaseApproval(EraswapTokenAddress, amount));\n    require(EraswapTokens.UpdateBurnBal(amount));\n    Contracts[contractID].status = 4;\n    emit ContractBurned(contractID, amount);\n  }\n  MonthlyHandlerCount = 3;\n  return MonthlyHandlerCount;\n}\n}\n\nfunction MonthlyPlansHandler(uint256 Size) external OnlyOwner() returns(bool){\n  require(MonthlyHandlerCount == 3);\n  require(PlanHandlerCount <= PlanID);\n  uint256[] memory InterestList;\n  bool status;\n  (InterestList, status) = staking.MonthlyPlanHandler(PlanHandlerCount, Size);\n  AddToTransferList(InterestList);\n  if(status == true){\n  emit PlanHandlercompleted(PlanHandlerCount);\n  PlanHandlerCount++;\n  }\n  if(PlanHandlerCount > PlanID){\n  emit MonthlyPlanHandlerscompleted();\n  MonthlyHandlerCount = 4;\n  PlanHandlerCount = 0;\n  }\n  return status;\n}\n\n\nfunction MonthlyPaymentHandler() external OnlyOwner() returns(bool){\nrequire(MonthlyHandlerCount == 4);\nuint256[100] memory paymentlist;\naddress[100] memory addresslist;\nuint256 contractID;\nuint256 start = 0;\nuint256 stop = 100;\nwhile(start < TokenTransferList.length){\nif((start+100) > TokenTransferList.length)\n{\n   stop = TokenTransferList.length - start;\n   for(uint i = stop; i<100; i++){\n     addresslist[i] = address(0);\n     paymentlist[i] = 0;\n   }\n}\n  for (uint256 i = 0; i < stop; i++) {\n      contractID = uint256(TokenTransferList[start+i]);\n      paymentlist[i] = uint256(uint128(TokenTransferList[start+i]>>128));\n      addresslist[i] = Contracts[contractID].owner;\n  }\n  require(EraswapTokens.UpdateBalance(addresslist, paymentlist));\n  emit TokenSent(addresslist, paymentlist);\n  start = start + 100;\n}\nemit MonthlyPaymentHandlercompleted();\ndelete TokenTransferList;\nMonthlyHandlerCount = 0;\nLastMonthlyHandler = now;\nPaused = false;\nreturn true;\n}\n\n\nfunction AddToTransferList(uint256[] memory list) internal returns(bool) {\n  for (uint256 i = 0; i < list.length; i++) {\n    TokenTransferList.push(list[i]);\n  }\n  return true;\n}\n\n\n}\n\n",
  "sourcePath": "/home/osiz/Desktop/Truffle/contracts/TimeAllyCore.sol",
  "compiler": {
    "name": "solc",
    "version": "0.5.0+commit.1d4f565a.Emscripten.clang"
  },
  "schemaVersion": "3.0.6",
  "updatedAt": "2019-05-07T06:15:54.318Z",
  "devdoc": {
    "methods": {}
  },
  "userdoc": {
    "methods": {}
  }
}